{
  "_format": "hh-sol-artifact-1",
  "contractName": "NFTSplittingME",
  "sourceName": "contracts/NFT.sol",
  "abi": [
    {
      "inputs": [],
      "stateMutability": "nonpayable",
      "type": "constructor"
    },
    {
      "anonymous": false,
      "inputs": [
        {
          "indexed": true,
          "internalType": "address",
          "name": "owner",
          "type": "address"
        },
        {
          "indexed": true,
          "internalType": "address",
          "name": "approved",
          "type": "address"
        },
        {
          "indexed": true,
          "internalType": "uint256",
          "name": "tokenId",
          "type": "uint256"
        }
      ],
      "name": "Approval",
      "type": "event"
    },
    {
      "anonymous": false,
      "inputs": [
        {
          "indexed": true,
          "internalType": "address",
          "name": "owner",
          "type": "address"
        },
        {
          "indexed": true,
          "internalType": "address",
          "name": "operator",
          "type": "address"
        },
        {
          "indexed": false,
          "internalType": "bool",
          "name": "approved",
          "type": "bool"
        }
      ],
      "name": "ApprovalForAll",
      "type": "event"
    },
    {
      "anonymous": false,
      "inputs": [
        {
          "indexed": false,
          "internalType": "uint256",
          "name": "_fromTokenId",
          "type": "uint256"
        },
        {
          "indexed": false,
          "internalType": "uint256",
          "name": "_toTokenId",
          "type": "uint256"
        }
      ],
      "name": "BatchMetadataUpdate",
      "type": "event"
    },
    {
      "anonymous": false,
      "inputs": [
        {
          "indexed": false,
          "internalType": "uint256",
          "name": "_tokenId",
          "type": "uint256"
        }
      ],
      "name": "MetadataUpdate",
      "type": "event"
    },
    {
      "anonymous": false,
      "inputs": [
        {
          "indexed": true,
          "internalType": "address",
          "name": "previousOwner",
          "type": "address"
        },
        {
          "indexed": true,
          "internalType": "address",
          "name": "newOwner",
          "type": "address"
        }
      ],
      "name": "OwnershipTransferred",
      "type": "event"
    },
    {
      "anonymous": false,
      "inputs": [
        {
          "indexed": true,
          "internalType": "address",
          "name": "from",
          "type": "address"
        },
        {
          "indexed": true,
          "internalType": "address",
          "name": "to",
          "type": "address"
        },
        {
          "indexed": true,
          "internalType": "uint256",
          "name": "tokenId",
          "type": "uint256"
        }
      ],
      "name": "Transfer",
      "type": "event"
    },
    {
      "inputs": [],
      "name": "FactoryToken",
      "outputs": [
        {
          "internalType": "address",
          "name": "",
          "type": "address"
        }
      ],
      "stateMutability": "view",
      "type": "function"
    },
    {
      "inputs": [
        {
          "internalType": "address",
          "name": "to",
          "type": "address"
        },
        {
          "internalType": "uint256",
          "name": "tokenId",
          "type": "uint256"
        }
      ],
      "name": "approve",
      "outputs": [],
      "stateMutability": "nonpayable",
      "type": "function"
    },
    {
      "inputs": [
        {
          "internalType": "address",
          "name": "owner",
          "type": "address"
        }
      ],
      "name": "balanceOf",
      "outputs": [
        {
          "internalType": "uint256",
          "name": "",
          "type": "uint256"
        }
      ],
      "stateMutability": "view",
      "type": "function"
    },
    {
      "inputs": [
        {
          "internalType": "uint256",
          "name": "tokenId",
          "type": "uint256"
        }
      ],
      "name": "burn",
      "outputs": [],
      "stateMutability": "nonpayable",
      "type": "function"
    },
    {
      "inputs": [
        {
          "internalType": "address",
          "name": "_user",
          "type": "address"
        }
      ],
      "name": "getAllNFT",
      "outputs": [
        {
          "internalType": "uint256[]",
          "name": "",
          "type": "uint256[]"
        }
      ],
      "stateMutability": "view",
      "type": "function"
    },
    {
      "inputs": [
        {
          "internalType": "uint256",
          "name": "tokenId",
          "type": "uint256"
        }
      ],
      "name": "getApproved",
      "outputs": [
        {
          "internalType": "address",
          "name": "",
          "type": "address"
        }
      ],
      "stateMutability": "view",
      "type": "function"
    },
    {
      "inputs": [
        {
          "internalType": "address",
          "name": "_FactoryToken",
          "type": "address"
        }
      ],
      "name": "initialize",
      "outputs": [],
      "stateMutability": "nonpayable",
      "type": "function"
    },
    {
      "inputs": [
        {
          "internalType": "address",
          "name": "owner",
          "type": "address"
        },
        {
          "internalType": "address",
          "name": "operator",
          "type": "address"
        }
      ],
      "name": "isApprovedForAll",
      "outputs": [
        {
          "internalType": "bool",
          "name": "",
          "type": "bool"
        }
      ],
      "stateMutability": "view",
      "type": "function"
    },
    {
      "inputs": [
        {
          "internalType": "address",
          "name": "to",
          "type": "address"
        },
        {
          "internalType": "string",
          "name": "tokenURI",
          "type": "string"
        }
      ],
      "name": "mintNFT",
      "outputs": [
        {
          "internalType": "uint256",
          "name": "",
          "type": "uint256"
        }
      ],
      "stateMutability": "nonpayable",
      "type": "function"
    },
    {
      "inputs": [],
      "name": "name",
      "outputs": [
        {
          "internalType": "string",
          "name": "",
          "type": "string"
        }
      ],
      "stateMutability": "view",
      "type": "function"
    },
    {
      "inputs": [],
      "name": "owner",
      "outputs": [
        {
          "internalType": "address",
          "name": "",
          "type": "address"
        }
      ],
      "stateMutability": "view",
      "type": "function"
    },
    {
      "inputs": [
        {
          "internalType": "uint256",
          "name": "tokenId",
          "type": "uint256"
        }
      ],
      "name": "ownerOf",
      "outputs": [
        {
          "internalType": "address",
          "name": "",
          "type": "address"
        }
      ],
      "stateMutability": "view",
      "type": "function"
    },
    {
      "inputs": [],
      "name": "renounceOwnership",
      "outputs": [],
      "stateMutability": "nonpayable",
      "type": "function"
    },
    {
      "inputs": [
        {
          "internalType": "address",
          "name": "from",
          "type": "address"
        },
        {
          "internalType": "address",
          "name": "to",
          "type": "address"
        },
        {
          "internalType": "uint256",
          "name": "tokenId",
          "type": "uint256"
        }
      ],
      "name": "safeTransferFrom",
      "outputs": [],
      "stateMutability": "nonpayable",
      "type": "function"
    },
    {
      "inputs": [
        {
          "internalType": "address",
          "name": "from",
          "type": "address"
        },
        {
          "internalType": "address",
          "name": "to",
          "type": "address"
        },
        {
          "internalType": "uint256",
          "name": "tokenId",
          "type": "uint256"
        },
        {
          "internalType": "bytes",
          "name": "data",
          "type": "bytes"
        }
      ],
      "name": "safeTransferFrom",
      "outputs": [],
      "stateMutability": "nonpayable",
      "type": "function"
    },
    {
      "inputs": [
        {
          "internalType": "address",
          "name": "operator",
          "type": "address"
        },
        {
          "internalType": "bool",
          "name": "approved",
          "type": "bool"
        }
      ],
      "name": "setApprovalForAll",
      "outputs": [],
      "stateMutability": "nonpayable",
      "type": "function"
    },
    {
      "inputs": [
        {
          "internalType": "bytes4",
          "name": "interfaceId",
          "type": "bytes4"
        }
      ],
      "name": "supportsInterface",
      "outputs": [
        {
          "internalType": "bool",
          "name": "",
          "type": "bool"
        }
      ],
      "stateMutability": "view",
      "type": "function"
    },
    {
      "inputs": [],
      "name": "symbol",
      "outputs": [
        {
          "internalType": "string",
          "name": "",
          "type": "string"
        }
      ],
      "stateMutability": "view",
      "type": "function"
    },
    {
      "inputs": [
        {
          "internalType": "uint256",
          "name": "tokenId",
          "type": "uint256"
        }
      ],
      "name": "tokenURI",
      "outputs": [
        {
          "internalType": "string",
          "name": "",
          "type": "string"
        }
      ],
      "stateMutability": "view",
      "type": "function"
    },
    {
      "inputs": [
        {
          "internalType": "address",
          "name": "from",
          "type": "address"
        },
        {
          "internalType": "address",
          "name": "to",
          "type": "address"
        },
        {
          "internalType": "uint256",
          "name": "tokenId",
          "type": "uint256"
        }
      ],
      "name": "transferFrom",
      "outputs": [],
      "stateMutability": "nonpayable",
      "type": "function"
    },
    {
      "inputs": [
        {
          "internalType": "address",
          "name": "to",
          "type": "address"
        },
        {
          "internalType": "uint256",
          "name": "tokenId",
          "type": "uint256"
        }
      ],
      "name": "transferNFT",
      "outputs": [],
      "stateMutability": "nonpayable",
      "type": "function"
    },
    {
      "inputs": [
        {
          "internalType": "address",
          "name": "newOwner",
          "type": "address"
        }
      ],
      "name": "transferOwnership",
      "outputs": [],
      "stateMutability": "nonpayable",
      "type": "function"
    },
    {
      "inputs": [
        {
          "internalType": "address",
          "name": "to",
          "type": "address"
        }
      ],
      "name": "transferOwnershipNFT",
      "outputs": [],
      "stateMutability": "nonpayable",
      "type": "function"
    }
  ],
  "bytecode": "0x60806040523480156200001157600080fd5b506040518060400160405280601081526020017f53706c697474696e67204d45204e4654000000000000000000000000000000008152506040518060400160405280600481526020017f424e46540000000000000000000000000000000000000000000000000000000081525081600090816200008f919062000453565b508060019081620000a1919062000453565b505050620000c4620000b86200010b60201b60201c565b6200011360201b60201c565b33600960006101000a81548173ffffffffffffffffffffffffffffffffffffffff021916908373ffffffffffffffffffffffffffffffffffffffff1602179055506200053a565b600033905090565b6000600760009054906101000a900473ffffffffffffffffffffffffffffffffffffffff16905081600760006101000a81548173ffffffffffffffffffffffffffffffffffffffff021916908373ffffffffffffffffffffffffffffffffffffffff1602179055508173ffffffffffffffffffffffffffffffffffffffff168173ffffffffffffffffffffffffffffffffffffffff167f8be0079c531659141344cd1fd0a4f28419497f9722a3daafe3b4186f6b6457e060405160405180910390a35050565b600081519050919050565b7f4e487b7100000000000000000000000000000000000000000000000000000000600052604160045260246000fd5b7f4e487b7100000000000000000000000000000000000000000000000000000000600052602260045260246000fd5b600060028204905060018216806200025b57607f821691505b60208210810362000271576200027062000213565b5b50919050565b60008190508160005260206000209050919050565b60006020601f8301049050919050565b600082821b905092915050565b600060088302620002db7fffffffffffffffffffffffffffffffffffffffffffffffffffffffffffffffff826200029c565b620002e786836200029c565b95508019841693508086168417925050509392505050565b6000819050919050565b6000819050919050565b6000620003346200032e6200032884620002ff565b62000309565b620002ff565b9050919050565b6000819050919050565b620003508362000313565b620003686200035f826200033b565b848454620002a9565b825550505050565b600090565b6200037f62000370565b6200038c81848462000345565b505050565b5b81811015620003b457620003a860008262000375565b60018101905062000392565b5050565b601f8211156200040357620003cd8162000277565b620003d8846200028c565b81016020851015620003e8578190505b62000400620003f7856200028c565b83018262000391565b50505b505050565b600082821c905092915050565b6000620004286000198460080262000408565b1980831691505092915050565b600062000443838362000415565b9150826002028217905092915050565b6200045e82620001d9565b67ffffffffffffffff8111156200047a5762000479620001e4565b5b62000486825462000242565b62000493828285620003b8565b600060209050601f831160018114620004cb5760008415620004b6578287015190505b620004c2858262000435565b86555062000532565b601f198416620004db8662000277565b60005b828110156200050557848901518255600182019150602085019450602081019050620004de565b8683101562000525578489015162000521601f89168262000415565b8355505b6001600288020188555050505b505050505050565b61375c806200054a6000396000f3fe608060405234801561001057600080fd5b506004361061014d5760003560e01c8063715018a6116100c3578063c4d66de81161007c578063c4d66de814610386578063c87b56dd146103a2578063e985e9c5146103d2578063eacabe1414610402578063f2fde38b14610432578063f345cae31461044e5761014d565b8063715018a6146102ec5780638da5cb5b146102f657806394ab67fe1461031457806395d89b4114610330578063a22cb4651461034e578063b88d4fde1461036a5761014d565b806323b872dd1161011557806323b872dd1461021c5780632724d5911461023857806342842e0e1461025457806342966c68146102705780636352211e1461028c57806370a08231146102bc5761014d565b806301ffc9a71461015257806306fdde0314610182578063081812fc146101a0578063095ea7b3146101d05780631b8df0ee146101ec575b600080fd5b61016c600480360381019061016791906122c9565b61046c565b6040516101799190612311565b60405180910390f35b61018a6104cd565b60405161019791906123bc565b60405180910390f35b6101ba60048036038101906101b59190612414565b61055f565b6040516101c79190612482565b60405180910390f35b6101ea60048036038101906101e591906124c9565b6105a5565b005b61020660048036038101906102019190612509565b6106bc565b60405161021391906125f4565b60405180910390f35b61023660048036038101906102319190612616565b6107a1565b005b610252600480360381019061024d9190612509565b610801565b005b61026e60048036038101906102699190612616565b610815565b005b61028a60048036038101906102859190612414565b610835565b005b6102a660048036038101906102a19190612414565b6108b7565b6040516102b39190612482565b60405180910390f35b6102d660048036038101906102d19190612509565b61093d565b6040516102e39190612678565b60405180910390f35b6102f46109f4565b005b6102fe610a08565b60405161030b9190612482565b60405180910390f35b61032e600480360381019061032991906124c9565b610a32565b005b610338610ab7565b60405161034591906123bc565b60405180910390f35b610368600480360381019061036391906126bf565b610b49565b005b610384600480360381019061037f9190612834565b610b5f565b005b6103a0600480360381019061039b9190612509565b610bc1565b005b6103bc60048036038101906103b79190612414565b610c9d565b6040516103c991906123bc565b60405180910390f35b6103ec60048036038101906103e791906128b7565b610daf565b6040516103f99190612311565b60405180910390f35b61041c60048036038101906104179190612998565b610e43565b6040516104299190612678565b60405180910390f35b61044c60048036038101906104479190612509565b610f0b565b005b610456610f8e565b6040516104639190612482565b60405180910390f35b6000634906490660e01b7bffffffffffffffffffffffffffffffffffffffffffffffffffffffff1916827bffffffffffffffffffffffffffffffffffffffffffffffffffffffff191614806104c657506104c582610fb4565b5b9050919050565b6060600080546104dc90612a23565b80601f016020809104026020016040519081016040528092919081815260200182805461050890612a23565b80156105555780601f1061052a57610100808354040283529160200191610555565b820191906000526020600020905b81548152906001019060200180831161053857829003601f168201915b5050505050905090565b600061056a82611096565b6004600083815260200190815260200160002060009054906101000a900473ffffffffffffffffffffffffffffffffffffffff169050919050565b60006105b0826108b7565b90508073ffffffffffffffffffffffffffffffffffffffff168373ffffffffffffffffffffffffffffffffffffffff1603610620576040517f08c379a000000000000000000000000000000000000000000000000000000000815260040161061790612ac6565b60405180910390fd5b8073ffffffffffffffffffffffffffffffffffffffff1661063f6110e1565b73ffffffffffffffffffffffffffffffffffffffff16148061066e575061066d816106686110e1565b610daf565b5b6106ad576040517f08c379a00000000000000000000000000000000000000000000000000000000081526004016106a490612b58565b60405180910390fd5b6106b783836110e9565b505050565b606060006106ca60086111a2565b67ffffffffffffffff8111156106e3576106e2612709565b5b6040519080825280602002602001820160405280156107115781602001602082028036833780820191505090505b50905060005b61072160086111a2565b811015610797578373ffffffffffffffffffffffffffffffffffffffff16610748826108b7565b73ffffffffffffffffffffffffffffffffffffffff1603610784578082828151811061077757610776612b78565b5b6020026020010181815250505b808061078f90612bd6565b915050610717565b5080915050919050565b6107b26107ac6110e1565b826111b0565b6107f1576040517f08c379a00000000000000000000000000000000000000000000000000000000081526004016107e890612c90565b60405180910390fd5b6107fc838383611245565b505050565b61080961153e565b61081281610f0b565b50565b61083083838360405180602001604052806000815250610b5f565b505050565b3373ffffffffffffffffffffffffffffffffffffffff16610855826108b7565b73ffffffffffffffffffffffffffffffffffffffff16146108ab576040517f08c379a00000000000000000000000000000000000000000000000000000000081526004016108a290612d22565b60405180910390fd5b6108b4816115bc565b50565b6000806108c38361160f565b9050600073ffffffffffffffffffffffffffffffffffffffff168173ffffffffffffffffffffffffffffffffffffffff1603610934576040517f08c379a000000000000000000000000000000000000000000000000000000000815260040161092b90612d8e565b60405180910390fd5b80915050919050565b60008073ffffffffffffffffffffffffffffffffffffffff168273ffffffffffffffffffffffffffffffffffffffff16036109ad576040517f08c379a00000000000000000000000000000000000000000000000000000000081526004016109a490612e20565b60405180910390fd5b600360008373ffffffffffffffffffffffffffffffffffffffff1673ffffffffffffffffffffffffffffffffffffffff168152602001908152602001600020549050919050565b6109fc61153e565b610a06600061164c565b565b6000600760009054906101000a900473ffffffffffffffffffffffffffffffffffffffff16905090565b3373ffffffffffffffffffffffffffffffffffffffff16610a52826108b7565b73ffffffffffffffffffffffffffffffffffffffff1614610aa8576040517f08c379a0000000000000000000000000000000000000000000000000000000008152600401610a9f90612d22565b60405180910390fd5b610ab3338383610815565b5050565b606060018054610ac690612a23565b80601f0160208091040260200160405190810160405280929190818152602001828054610af290612a23565b8015610b3f5780601f10610b1457610100808354040283529160200191610b3f565b820191906000526020600020905b815481529060010190602001808311610b2257829003601f168201915b5050505050905090565b610b5b610b546110e1565b8383611712565b5050565b610b70610b6a6110e1565b836111b0565b610baf576040517f08c379a0000000000000000000000000000000000000000000000000000000008152600401610ba690612c90565b60405180910390fd5b610bbb8484848461187e565b50505050565b610bc961153e565b600960009054906101000a900473ffffffffffffffffffffffffffffffffffffffff1673ffffffffffffffffffffffffffffffffffffffff163373ffffffffffffffffffffffffffffffffffffffff1614610c59576040517f08c379a0000000000000000000000000000000000000000000000000000000008152600401610c5090612e8c565b60405180910390fd5b80600960006101000a81548173ffffffffffffffffffffffffffffffffffffffff021916908373ffffffffffffffffffffffffffffffffffffffff16021790555050565b6060610ca882611096565b6000600660008481526020019081526020016000208054610cc890612a23565b80601f0160208091040260200160405190810160405280929190818152602001828054610cf490612a23565b8015610d415780601f10610d1657610100808354040283529160200191610d41565b820191906000526020600020905b815481529060010190602001808311610d2457829003601f168201915b505050505090506000610d526118da565b90506000815103610d67578192505050610daa565b600082511115610d9c578082604051602001610d84929190612ee8565b60405160208183030381529060405292505050610daa565b610da5846118f1565b925050505b919050565b6000600560008473ffffffffffffffffffffffffffffffffffffffff1673ffffffffffffffffffffffffffffffffffffffff16815260200190815260200160002060008373ffffffffffffffffffffffffffffffffffffffff1673ffffffffffffffffffffffffffffffffffffffff16815260200190815260200160002060009054906101000a900460ff16905092915050565b6000600960009054906101000a900473ffffffffffffffffffffffffffffffffffffffff1673ffffffffffffffffffffffffffffffffffffffff163373ffffffffffffffffffffffffffffffffffffffff1614610ed5576040517f08c379a0000000000000000000000000000000000000000000000000000000008152600401610ecc90612e8c565b60405180910390fd5b610edf6008611959565b6000610eeb60086111a2565b9050610ef7848261196f565b610f018184611b8c565b8091505092915050565b610f1361153e565b600073ffffffffffffffffffffffffffffffffffffffff168173ffffffffffffffffffffffffffffffffffffffff1603610f82576040517f08c379a0000000000000000000000000000000000000000000000000000000008152600401610f7990612f7e565b60405180910390fd5b610f8b8161164c565b50565b600960009054906101000a900473ffffffffffffffffffffffffffffffffffffffff1681565b60007f80ac58cd000000000000000000000000000000000000000000000000000000007bffffffffffffffffffffffffffffffffffffffffffffffffffffffff1916827bffffffffffffffffffffffffffffffffffffffffffffffffffffffff1916148061107f57507f5b5e139f000000000000000000000000000000000000000000000000000000007bffffffffffffffffffffffffffffffffffffffffffffffffffffffff1916827bffffffffffffffffffffffffffffffffffffffffffffffffffffffff1916145b8061108f575061108e82611c30565b5b9050919050565b61109f81611c9a565b6110de576040517f08c379a00000000000000000000000000000000000000000000000000000000081526004016110d590612d8e565b60405180910390fd5b50565b600033905090565b816004600083815260200190815260200160002060006101000a81548173ffffffffffffffffffffffffffffffffffffffff021916908373ffffffffffffffffffffffffffffffffffffffff160217905550808273ffffffffffffffffffffffffffffffffffffffff1661115c836108b7565b73ffffffffffffffffffffffffffffffffffffffff167f8c5be1e5ebec7d5bd14f71427d1e84f3dd0314c0f7b2291e5b200ac8c7c3b92560405160405180910390a45050565b600081600001549050919050565b6000806111bc836108b7565b90508073ffffffffffffffffffffffffffffffffffffffff168473ffffffffffffffffffffffffffffffffffffffff1614806111fe57506111fd8185610daf565b5b8061123c57508373ffffffffffffffffffffffffffffffffffffffff166112248461055f565b73ffffffffffffffffffffffffffffffffffffffff16145b91505092915050565b8273ffffffffffffffffffffffffffffffffffffffff16611265826108b7565b73ffffffffffffffffffffffffffffffffffffffff16146112bb576040517f08c379a00000000000000000000000000000000000000000000000000000000081526004016112b290613010565b60405180910390fd5b600073ffffffffffffffffffffffffffffffffffffffff168273ffffffffffffffffffffffffffffffffffffffff160361132a576040517f08c379a0000000000000000000000000000000000000000000000000000000008152600401611321906130a2565b60405180910390fd5b6113378383836001611cdb565b8273ffffffffffffffffffffffffffffffffffffffff16611357826108b7565b73ffffffffffffffffffffffffffffffffffffffff16146113ad576040517f08c379a00000000000000000000000000000000000000000000000000000000081526004016113a490613010565b60405180910390fd5b6004600082815260200190815260200160002060006101000a81549073ffffffffffffffffffffffffffffffffffffffff02191690556001600360008573ffffffffffffffffffffffffffffffffffffffff1673ffffffffffffffffffffffffffffffffffffffff168152602001908152602001600020600082825403925050819055506001600360008473ffffffffffffffffffffffffffffffffffffffff1673ffffffffffffffffffffffffffffffffffffffff16815260200190815260200160002060008282540192505081905550816002600083815260200190815260200160002060006101000a81548173ffffffffffffffffffffffffffffffffffffffff021916908373ffffffffffffffffffffffffffffffffffffffff160217905550808273ffffffffffffffffffffffffffffffffffffffff168473ffffffffffffffffffffffffffffffffffffffff167fddf252ad1be2c89b69c2b068fc378daa952ba7f163c4a11628f55a4df523b3ef60405160405180910390a46115398383836001611ce1565b505050565b6115466110e1565b73ffffffffffffffffffffffffffffffffffffffff16611564610a08565b73ffffffffffffffffffffffffffffffffffffffff16146115ba576040517f08c379a00000000000000000000000000000000000000000000000000000000081526004016115b19061310e565b60405180910390fd5b565b6115c581611ce7565b60006006600083815260200190815260200160002080546115e590612a23565b90501461160c5760066000828152602001908152602001600020600061160b9190612200565b5b50565b60006002600083815260200190815260200160002060009054906101000a900473ffffffffffffffffffffffffffffffffffffffff169050919050565b6000600760009054906101000a900473ffffffffffffffffffffffffffffffffffffffff16905081600760006101000a81548173ffffffffffffffffffffffffffffffffffffffff021916908373ffffffffffffffffffffffffffffffffffffffff1602179055508173ffffffffffffffffffffffffffffffffffffffff168173ffffffffffffffffffffffffffffffffffffffff167f8be0079c531659141344cd1fd0a4f28419497f9722a3daafe3b4186f6b6457e060405160405180910390a35050565b8173ffffffffffffffffffffffffffffffffffffffff168373ffffffffffffffffffffffffffffffffffffffff1603611780576040517f08c379a00000000000000000000000000000000000000000000000000000000081526004016117779061317a565b60405180910390fd5b80600560008573ffffffffffffffffffffffffffffffffffffffff1673ffffffffffffffffffffffffffffffffffffffff16815260200190815260200160002060008473ffffffffffffffffffffffffffffffffffffffff1673ffffffffffffffffffffffffffffffffffffffff16815260200190815260200160002060006101000a81548160ff0219169083151502179055508173ffffffffffffffffffffffffffffffffffffffff168373ffffffffffffffffffffffffffffffffffffffff167f17307eab39ab6107e8899845ad3d59bd9653f200f220920489ca2b5937696c31836040516118719190612311565b60405180910390a3505050565b611889848484611245565b61189584848484611e35565b6118d4576040517f08c379a00000000000000000000000000000000000000000000000000000000081526004016118cb9061320c565b60405180910390fd5b50505050565b606060405180602001604052806000815250905090565b60606118fc82611096565b60006119066118da565b905060008151116119265760405180602001604052806000815250611951565b8061193084611fbc565b604051602001611941929190612ee8565b6040516020818303038152906040525b915050919050565b6001816000016000828254019250508190555050565b600073ffffffffffffffffffffffffffffffffffffffff168273ffffffffffffffffffffffffffffffffffffffff16036119de576040517f08c379a00000000000000000000000000000000000000000000000000000000081526004016119d590613278565b60405180910390fd5b6119e781611c9a565b15611a27576040517f08c379a0000000000000000000000000000000000000000000000000000000008152600401611a1e906132e4565b60405180910390fd5b611a35600083836001611cdb565b611a3e81611c9a565b15611a7e576040517f08c379a0000000000000000000000000000000000000000000000000000000008152600401611a75906132e4565b60405180910390fd5b6001600360008473ffffffffffffffffffffffffffffffffffffffff1673ffffffffffffffffffffffffffffffffffffffff16815260200190815260200160002060008282540192505081905550816002600083815260200190815260200160002060006101000a81548173ffffffffffffffffffffffffffffffffffffffff021916908373ffffffffffffffffffffffffffffffffffffffff160217905550808273ffffffffffffffffffffffffffffffffffffffff16600073ffffffffffffffffffffffffffffffffffffffff167fddf252ad1be2c89b69c2b068fc378daa952ba7f163c4a11628f55a4df523b3ef60405160405180910390a4611b88600083836001611ce1565b5050565b611b9582611c9a565b611bd4576040517f08c379a0000000000000000000000000000000000000000000000000000000008152600401611bcb90613376565b60405180910390fd5b80600660008481526020019081526020016000209081611bf49190613542565b507ff8e1a15aba9398e019f0b49df1a4fde98ee17ae345cb5f6b5e2c27f5033e8ce782604051611c249190612678565b60405180910390a15050565b60007f01ffc9a7000000000000000000000000000000000000000000000000000000007bffffffffffffffffffffffffffffffffffffffffffffffffffffffff1916827bffffffffffffffffffffffffffffffffffffffffffffffffffffffff1916149050919050565b60008073ffffffffffffffffffffffffffffffffffffffff16611cbc8361160f565b73ffffffffffffffffffffffffffffffffffffffff1614159050919050565b50505050565b50505050565b6000611cf2826108b7565b9050611d02816000846001611cdb565b611d0b826108b7565b90506004600083815260200190815260200160002060006101000a81549073ffffffffffffffffffffffffffffffffffffffff02191690556001600360008373ffffffffffffffffffffffffffffffffffffffff1673ffffffffffffffffffffffffffffffffffffffff168152602001908152602001600020600082825403925050819055506002600083815260200190815260200160002060006101000a81549073ffffffffffffffffffffffffffffffffffffffff021916905581600073ffffffffffffffffffffffffffffffffffffffff168273ffffffffffffffffffffffffffffffffffffffff167fddf252ad1be2c89b69c2b068fc378daa952ba7f163c4a11628f55a4df523b3ef60405160405180910390a4611e31816000846001611ce1565b5050565b6000611e568473ffffffffffffffffffffffffffffffffffffffff1661208a565b15611faf578373ffffffffffffffffffffffffffffffffffffffff1663150b7a02611e7f6110e1565b8786866040518563ffffffff1660e01b8152600401611ea19493929190613669565b6020604051808303816000875af1925050508015611edd57506040513d601f19601f82011682018060405250810190611eda91906136ca565b60015b611f5f573d8060008114611f0d576040519150601f19603f3d011682016040523d82523d6000602084013e611f12565b606091505b506000815103611f57576040517f08c379a0000000000000000000000000000000000000000000000000000000008152600401611f4e9061320c565b60405180910390fd5b805181602001fd5b63150b7a0260e01b7bffffffffffffffffffffffffffffffffffffffffffffffffffffffff1916817bffffffffffffffffffffffffffffffffffffffffffffffffffffffff191614915050611fb4565b600190505b949350505050565b606060006001611fcb846120ad565b01905060008167ffffffffffffffff811115611fea57611fe9612709565b5b6040519080825280601f01601f19166020018201604052801561201c5781602001600182028036833780820191505090505b509050600082602001820190505b60011561207f578080600190039150507f3031323334353637383961626364656600000000000000000000000000000000600a86061a8153600a8581612073576120726136f7565b5b0494506000850361202a575b819350505050919050565b6000808273ffffffffffffffffffffffffffffffffffffffff163b119050919050565b600080600090507a184f03e93ff9f4daa797ed6e38ed64bf6a1f010000000000000000831061210b577a184f03e93ff9f4daa797ed6e38ed64bf6a1f0100000000000000008381612101576121006136f7565b5b0492506040810190505b6d04ee2d6d415b85acef81000000008310612148576d04ee2d6d415b85acef8100000000838161213e5761213d6136f7565b5b0492506020810190505b662386f26fc10000831061217757662386f26fc10000838161216d5761216c6136f7565b5b0492506010810190505b6305f5e10083106121a0576305f5e1008381612196576121956136f7565b5b0492506008810190505b61271083106121c55761271083816121bb576121ba6136f7565b5b0492506004810190505b606483106121e857606483816121de576121dd6136f7565b5b0492506002810190505b600a83106121f7576001810190505b80915050919050565b50805461220c90612a23565b6000825580601f1061221e575061223d565b601f01602090049060005260206000209081019061223c9190612240565b5b50565b5b80821115612259576000816000905550600101612241565b5090565b6000604051905090565b600080fd5b600080fd5b60007fffffffff0000000000000000000000000000000000000000000000000000000082169050919050565b6122a681612271565b81146122b157600080fd5b50565b6000813590506122c38161229d565b92915050565b6000602082840312156122df576122de612267565b5b60006122ed848285016122b4565b91505092915050565b60008115159050919050565b61230b816122f6565b82525050565b60006020820190506123266000830184612302565b92915050565b600081519050919050565b600082825260208201905092915050565b60005b8381101561236657808201518184015260208101905061234b565b60008484015250505050565b6000601f19601f8301169050919050565b600061238e8261232c565b6123988185612337565b93506123a8818560208601612348565b6123b181612372565b840191505092915050565b600060208201905081810360008301526123d68184612383565b905092915050565b6000819050919050565b6123f1816123de565b81146123fc57600080fd5b50565b60008135905061240e816123e8565b92915050565b60006020828403121561242a57612429612267565b5b6000612438848285016123ff565b91505092915050565b600073ffffffffffffffffffffffffffffffffffffffff82169050919050565b600061246c82612441565b9050919050565b61247c81612461565b82525050565b60006020820190506124976000830184612473565b92915050565b6124a681612461565b81146124b157600080fd5b50565b6000813590506124c38161249d565b92915050565b600080604083850312156124e0576124df612267565b5b60006124ee858286016124b4565b92505060206124ff858286016123ff565b9150509250929050565b60006020828403121561251f5761251e612267565b5b600061252d848285016124b4565b91505092915050565b600081519050919050565b600082825260208201905092915050565b6000819050602082019050919050565b61256b816123de565b82525050565b600061257d8383612562565b60208301905092915050565b6000602082019050919050565b60006125a182612536565b6125ab8185612541565b93506125b683612552565b8060005b838110156125e75781516125ce8882612571565b97506125d983612589565b9250506001810190506125ba565b5085935050505092915050565b6000602082019050818103600083015261260e8184612596565b905092915050565b60008060006060848603121561262f5761262e612267565b5b600061263d868287016124b4565b935050602061264e868287016124b4565b925050604061265f868287016123ff565b9150509250925092565b612672816123de565b82525050565b600060208201905061268d6000830184612669565b92915050565b61269c816122f6565b81146126a757600080fd5b50565b6000813590506126b981612693565b92915050565b600080604083850312156126d6576126d5612267565b5b60006126e4858286016124b4565b92505060206126f5858286016126aa565b9150509250929050565b600080fd5b600080fd5b7f4e487b7100000000000000000000000000000000000000000000000000000000600052604160045260246000fd5b61274182612372565b810181811067ffffffffffffffff821117156127605761275f612709565b5b80604052505050565b600061277361225d565b905061277f8282612738565b919050565b600067ffffffffffffffff82111561279f5761279e612709565b5b6127a882612372565b9050602081019050919050565b82818337600083830152505050565b60006127d76127d284612784565b612769565b9050828152602081018484840111156127f3576127f2612704565b5b6127fe8482856127b5565b509392505050565b600082601f83011261281b5761281a6126ff565b5b813561282b8482602086016127c4565b91505092915050565b6000806000806080858703121561284e5761284d612267565b5b600061285c878288016124b4565b945050602061286d878288016124b4565b935050604061287e878288016123ff565b925050606085013567ffffffffffffffff81111561289f5761289e61226c565b5b6128ab87828801612806565b91505092959194509250565b600080604083850312156128ce576128cd612267565b5b60006128dc858286016124b4565b92505060206128ed858286016124b4565b9150509250929050565b600067ffffffffffffffff82111561291257612911612709565b5b61291b82612372565b9050602081019050919050565b600061293b612936846128f7565b612769565b90508281526020810184848401111561295757612956612704565b5b6129628482856127b5565b509392505050565b600082601f83011261297f5761297e6126ff565b5b813561298f848260208601612928565b91505092915050565b600080604083850312156129af576129ae612267565b5b60006129bd858286016124b4565b925050602083013567ffffffffffffffff8111156129de576129dd61226c565b5b6129ea8582860161296a565b9150509250929050565b7f4e487b7100000000000000000000000000000000000000000000000000000000600052602260045260246000fd5b60006002820490506001821680612a3b57607f821691505b602082108103612a4e57612a4d6129f4565b5b50919050565b7f4552433732313a20617070726f76616c20746f2063757272656e74206f776e6560008201527f7200000000000000000000000000000000000000000000000000000000000000602082015250565b6000612ab0602183612337565b9150612abb82612a54565b604082019050919050565b60006020820190508181036000830152612adf81612aa3565b9050919050565b7f4552433732313a20617070726f76652063616c6c6572206973206e6f7420746f60008201527f6b656e206f776e6572206f7220617070726f76656420666f7220616c6c000000602082015250565b6000612b42603d83612337565b9150612b4d82612ae6565b604082019050919050565b60006020820190508181036000830152612b7181612b35565b9050919050565b7f4e487b7100000000000000000000000000000000000000000000000000000000600052603260045260246000fd5b7f4e487b7100000000000000000000000000000000000000000000000000000000600052601160045260246000fd5b6000612be1826123de565b91507fffffffffffffffffffffffffffffffffffffffffffffffffffffffffffffffff8203612c1357612c12612ba7565b5b600182019050919050565b7f4552433732313a2063616c6c6572206973206e6f7420746f6b656e206f776e6560008201527f72206f7220617070726f76656400000000000000000000000000000000000000602082015250565b6000612c7a602d83612337565b9150612c8582612c1e565b604082019050919050565b60006020820190508181036000830152612ca981612c6d565b9050919050565b7f596f7520617265206e6f7420746865206f776e6572206f662074686973204e4660008201527f5400000000000000000000000000000000000000000000000000000000000000602082015250565b6000612d0c602183612337565b9150612d1782612cb0565b604082019050919050565b60006020820190508181036000830152612d3b81612cff565b9050919050565b7f4552433732313a20696e76616c696420746f6b656e2049440000000000000000600082015250565b6000612d78601883612337565b9150612d8382612d42565b602082019050919050565b60006020820190508181036000830152612da781612d6b565b9050919050565b7f4552433732313a2061646472657373207a65726f206973206e6f74206120766160008201527f6c6964206f776e65720000000000000000000000000000000000000000000000602082015250565b6000612e0a602983612337565b9150612e1582612dae565b604082019050919050565b60006020820190508181036000830152612e3981612dfd565b9050919050565b7f596f7520617265206e6f742074686520466163746f7279546f6b656e00000000600082015250565b6000612e76601c83612337565b9150612e8182612e40565b602082019050919050565b60006020820190508181036000830152612ea581612e69565b9050919050565b600081905092915050565b6000612ec28261232c565b612ecc8185612eac565b9350612edc818560208601612348565b80840191505092915050565b6000612ef48285612eb7565b9150612f008284612eb7565b91508190509392505050565b7f4f776e61626c653a206e6577206f776e657220697320746865207a65726f206160008201527f6464726573730000000000000000000000000000000000000000000000000000602082015250565b6000612f68602683612337565b9150612f7382612f0c565b604082019050919050565b60006020820190508181036000830152612f9781612f5b565b9050919050565b7f4552433732313a207472616e736665722066726f6d20696e636f72726563742060008201527f6f776e6572000000000000000000000000000000000000000000000000000000602082015250565b6000612ffa602583612337565b915061300582612f9e565b604082019050919050565b6000602082019050818103600083015261302981612fed565b9050919050565b7f4552433732313a207472616e7366657220746f20746865207a65726f2061646460008201527f7265737300000000000000000000000000000000000000000000000000000000602082015250565b600061308c602483612337565b915061309782613030565b604082019050919050565b600060208201905081810360008301526130bb8161307f565b9050919050565b7f4f776e61626c653a2063616c6c6572206973206e6f7420746865206f776e6572600082015250565b60006130f8602083612337565b9150613103826130c2565b602082019050919050565b60006020820190508181036000830152613127816130eb565b9050919050565b7f4552433732313a20617070726f766520746f2063616c6c657200000000000000600082015250565b6000613164601983612337565b915061316f8261312e565b602082019050919050565b6000602082019050818103600083015261319381613157565b9050919050565b7f4552433732313a207472616e7366657220746f206e6f6e20455243373231526560008201527f63656976657220696d706c656d656e7465720000000000000000000000000000602082015250565b60006131f6603283612337565b91506132018261319a565b604082019050919050565b60006020820190508181036000830152613225816131e9565b9050919050565b7f4552433732313a206d696e7420746f20746865207a65726f2061646472657373600082015250565b6000613262602083612337565b915061326d8261322c565b602082019050919050565b6000602082019050818103600083015261329181613255565b9050919050565b7f4552433732313a20746f6b656e20616c7265616479206d696e74656400000000600082015250565b60006132ce601c83612337565b91506132d982613298565b602082019050919050565b600060208201905081810360008301526132fd816132c1565b9050919050565b7f45524337323155524953746f726167653a2055524920736574206f66206e6f6e60008201527f6578697374656e7420746f6b656e000000000000000000000000000000000000602082015250565b6000613360602e83612337565b915061336b82613304565b604082019050919050565b6000602082019050818103600083015261338f81613353565b9050919050565b60008190508160005260206000209050919050565b60006020601f8301049050919050565b600082821b905092915050565b6000600883026133f87fffffffffffffffffffffffffffffffffffffffffffffffffffffffffffffffff826133bb565b61340286836133bb565b95508019841693508086168417925050509392505050565b6000819050919050565b600061343f61343a613435846123de565b61341a565b6123de565b9050919050565b6000819050919050565b61345983613424565b61346d61346582613446565b8484546133c8565b825550505050565b600090565b613482613475565b61348d818484613450565b505050565b5b818110156134b1576134a660008261347a565b600181019050613493565b5050565b601f8211156134f6576134c781613396565b6134d0846133ab565b810160208510156134df578190505b6134f36134eb856133ab565b830182613492565b50505b505050565b600082821c905092915050565b6000613519600019846008026134fb565b1980831691505092915050565b60006135328383613508565b9150826002028217905092915050565b61354b8261232c565b67ffffffffffffffff81111561356457613563612709565b5b61356e8254612a23565b6135798282856134b5565b600060209050601f8311600181146135ac576000841561359a578287015190505b6135a48582613526565b86555061360c565b601f1984166135ba86613396565b60005b828110156135e2578489015182556001820191506020850194506020810190506135bd565b868310156135ff57848901516135fb601f891682613508565b8355505b6001600288020188555050505b505050505050565b600081519050919050565b600082825260208201905092915050565b600061363b82613614565b613645818561361f565b9350613655818560208601612348565b61365e81612372565b840191505092915050565b600060808201905061367e6000830187612473565b61368b6020830186612473565b6136986040830185612669565b81810360608301526136aa8184613630565b905095945050505050565b6000815190506136c48161229d565b92915050565b6000602082840312156136e0576136df612267565b5b60006136ee848285016136b5565b91505092915050565b7f4e487b7100000000000000000000000000000000000000000000000000000000600052601260045260246000fdfea26469706673582212207575f6c47d83dea9148f52fe54ba16495e5ad4d33a8d43d0795b7c253210dda964736f6c63430008120033",
  "linkReferences": {},
  "deployedLinkReferences": {}
}