{
  "_format": "hh-sol-artifact-1",
  "contractName": "TokenSale",
  "sourceName": "contracts/TokenSale.sol",
  "abi": [
    {
      "inputs": [
        {
          "internalType": "address",
          "name": "_tokenAddress",
          "type": "address"
        }
      ],
      "stateMutability": "nonpayable",
      "type": "constructor"
    },
    {
      "anonymous": false,
      "inputs": [
        {
          "indexed": true,
          "internalType": "address",
          "name": "previousOwner",
          "type": "address"
        },
        {
          "indexed": true,
          "internalType": "address",
          "name": "newOwner",
          "type": "address"
        }
      ],
      "name": "OwnershipTransferred",
      "type": "event"
    },
    {
      "inputs": [
        {
          "internalType": "uint256",
          "name": "_packageName",
          "type": "uint256"
        }
      ],
      "name": "buyPackage",
      "outputs": [],
      "stateMutability": "payable",
      "type": "function"
    },
    {
      "inputs": [],
      "name": "checkSlotBasic",
      "outputs": [
        {
          "internalType": "uint256",
          "name": "",
          "type": "uint256"
        }
      ],
      "stateMutability": "view",
      "type": "function"
    },
    {
      "inputs": [
        {
          "internalType": "uint256",
          "name": "_packageName",
          "type": "uint256"
        }
      ],
      "name": "getPrice",
      "outputs": [
        {
          "internalType": "uint256",
          "name": "",
          "type": "uint256"
        }
      ],
      "stateMutability": "view",
      "type": "function"
    },
    {
      "inputs": [],
      "name": "owner",
      "outputs": [
        {
          "internalType": "address",
          "name": "",
          "type": "address"
        }
      ],
      "stateMutability": "view",
      "type": "function"
    },
    {
      "inputs": [
        {
          "internalType": "enum TokenSale.Rank",
          "name": "",
          "type": "uint8"
        }
      ],
      "name": "packages",
      "outputs": [
        {
          "internalType": "uint256",
          "name": "price",
          "type": "uint256"
        },
        {
          "internalType": "uint256",
          "name": "tokens",
          "type": "uint256"
        }
      ],
      "stateMutability": "view",
      "type": "function"
    },
    {
      "inputs": [
        {
          "internalType": "address",
          "name": "",
          "type": "address"
        }
      ],
      "name": "referrals",
      "outputs": [
        {
          "internalType": "address",
          "name": "",
          "type": "address"
        }
      ],
      "stateMutability": "view",
      "type": "function"
    },
    {
      "inputs": [],
      "name": "renounceOwnership",
      "outputs": [],
      "stateMutability": "nonpayable",
      "type": "function"
    },
    {
      "inputs": [
        {
          "internalType": "uint256",
          "name": "_packageName",
          "type": "uint256"
        },
        {
          "internalType": "uint256",
          "name": "_price",
          "type": "uint256"
        },
        {
          "internalType": "uint256",
          "name": "_tokens",
          "type": "uint256"
        }
      ],
      "name": "setPackage",
      "outputs": [],
      "stateMutability": "nonpayable",
      "type": "function"
    },
    {
      "inputs": [],
      "name": "token",
      "outputs": [
        {
          "internalType": "contract IERC20",
          "name": "",
          "type": "address"
        }
      ],
      "stateMutability": "view",
      "type": "function"
    },
    {
      "inputs": [],
      "name": "totalSuply",
      "outputs": [
        {
          "internalType": "uint256",
          "name": "",
          "type": "uint256"
        }
      ],
      "stateMutability": "view",
      "type": "function"
    },
    {
      "inputs": [
        {
          "internalType": "address",
          "name": "newOwner",
          "type": "address"
        }
      ],
      "name": "transferOwnership",
      "outputs": [],
      "stateMutability": "nonpayable",
      "type": "function"
    },
    {
      "inputs": [
        {
          "internalType": "address",
          "name": "",
          "type": "address"
        }
      ],
      "name": "userLevels",
      "outputs": [
        {
          "internalType": "uint256",
          "name": "",
          "type": "uint256"
        }
      ],
      "stateMutability": "view",
      "type": "function"
    },
    {
      "inputs": [],
      "name": "withdrawEther",
      "outputs": [],
      "stateMutability": "nonpayable",
      "type": "function"
    }
  ],
  "bytecode": "0x60806040523480156200001157600080fd5b50604051620014da380380620014da8339818101604052810190620000379190620003bf565b620000576200004b6200028960201b60201c565b6200029160201b60201c565b80600160006101000a81548173ffffffffffffffffffffffffffffffffffffffff021916908373ffffffffffffffffffffffffffffffffffffffff160217905550604051806040016040528066038d7ea4c68000815260200169021e19e0c9bab240000081525060036000806003811115620000d857620000d7620003f1565b5b6003811115620000ed57620000ec620003f1565b5b815260200190815260200160002060008201518160000155602082015181600101559050506040518060400160405280662386f26fc10000815260200169152d02c7e14af68000008152506003600060016003811115620001535762000152620003f1565b5b6003811115620001685762000167620003f1565b5b81526020019081526020016000206000820151816000015560208201518160010155905050604051806040016040528066470de4df8200008152602001692a5a058fc295ed0000008152506003600060026003811115620001ce57620001cd620003f1565b5b6003811115620001e357620001e2620003f1565b5b815260200190815260200160002060008201518160000155602082015181600101559050506040518060400160405280669fdf42f6e480008152602001695f4a8c8375d15540000081525060036000600380811115620002485762000247620003f1565b5b60038111156200025d576200025c620003f1565b5b815260200190815260200160002060008201518160000155602082015181600101559050505062000420565b600033905090565b60008060009054906101000a900473ffffffffffffffffffffffffffffffffffffffff169050816000806101000a81548173ffffffffffffffffffffffffffffffffffffffff021916908373ffffffffffffffffffffffffffffffffffffffff1602179055508173ffffffffffffffffffffffffffffffffffffffff168173ffffffffffffffffffffffffffffffffffffffff167f8be0079c531659141344cd1fd0a4f28419497f9722a3daafe3b4186f6b6457e060405160405180910390a35050565b600080fd5b600073ffffffffffffffffffffffffffffffffffffffff82169050919050565b600062000387826200035a565b9050919050565b62000399816200037a565b8114620003a557600080fd5b50565b600081519050620003b9816200038e565b92915050565b600060208284031215620003d857620003d762000355565b5b6000620003e884828501620003a8565b91505092915050565b7f4e487b7100000000000000000000000000000000000000000000000000000000600052602160045260246000fd5b6110aa80620004306000396000f3fe6080604052600436106100c25760003560e01c80639ca423b31161007f578063e4a1f4d111610059578063e4a1f4d114610235578063e757223014610273578063f2fde38b146102b0578063fc0c546a146102d9576100c2565b80639ca423b3146101b1578063a2a96799146101ee578063ab69523b14610219576100c2565b806330413ccf146100c7578063358d58fa14610104578063715018a61461012f5780637362377b14610146578063824471341461015d5780638da5cb5b14610186575b600080fd5b3480156100d357600080fd5b506100ee60048036038101906100e99190610aff565b610304565b6040516100fb9190610b45565b60405180910390f35b34801561011057600080fd5b5061011961031c565b6040516101269190610b45565b60405180910390f35b34801561013b57600080fd5b50610144610326565b005b34801561015257600080fd5b5061015b61033a565b005b34801561016957600080fd5b50610184600480360381019061017f9190610b8c565b610392565b005b34801561019257600080fd5b5061019b610414565b6040516101a89190610bee565b60405180910390f35b3480156101bd57600080fd5b506101d860048036038101906101d39190610aff565b61043d565b6040516101e59190610bee565b60405180910390f35b3480156101fa57600080fd5b50610203610470565b6040516102109190610b45565b60405180910390f35b610233600480360381019061022e9190610c09565b610476565b005b34801561024157600080fd5b5061025c60048036038101906102579190610c5b565b6107d3565b60405161026a929190610c88565b60405180910390f35b34801561027f57600080fd5b5061029a60048036038101906102959190610c09565b6107f7565b6040516102a79190610b45565b60405180910390f35b3480156102bc57600080fd5b506102d760048036038101906102d29190610aff565b6108a9565b005b3480156102e557600080fd5b506102ee61092c565b6040516102fb9190610d10565b60405180910390f35b60056020528060005260406000206000915090505481565b6000600254905090565b61032e610952565b61033860006109d0565b565b610342610952565b61034a610414565b73ffffffffffffffffffffffffffffffffffffffff166108fc479081150290604051600060405180830381858888f1935050505015801561038f573d6000803e3d6000fd5b50565b61039a610952565b604051806040016040528083815260200182815250600360008560038111156103c6576103c5610d2b565b5b60038111156103d8576103d7610d2b565b5b60038111156103ea576103e9610d2b565b5b81526020019081526020016000206000820151816000015560208201518160010155905050505050565b60008060009054906101000a900473ffffffffffffffffffffffffffffffffffffffff16905090565b60046020528060005260406000206000915054906101000a900473ffffffffffffffffffffffffffffffffffffffff1681565b60025481565b6000600381111561048a57610489610d2b565b5b81600381111561049d5761049c610d2b565b5b60038111156104af576104ae610d2b565b5b03610510576103e86002541080156104cc5750655af3107a400034145b61050b576040517f08c379a000000000000000000000000000000000000000000000000000000000815260040161050290610db7565b60405180910390fd5b61059f565b6003600082600381111561052757610526610d2b565b5b600381111561053957610538610d2b565b5b600381111561054b5761054a610d2b565b5b815260200190815260200160002060000154341461059e576040517f08c379a000000000000000000000000000000000000000000000000000000000815260040161059590610db7565b60405180910390fd5b5b600360008260038111156105b6576105b5610d2b565b5b60038111156105c8576105c7610d2b565b5b60038111156105da576105d9610d2b565b5b815260200190815260200160002060010154600160009054906101000a900473ffffffffffffffffffffffffffffffffffffffff1673ffffffffffffffffffffffffffffffffffffffff166370a08231306040518263ffffffff1660e01b81526004016106479190610bee565b602060405180830381865afa158015610664573d6000803e3d6000fd5b505050506040513d601f19601f820116820180604052508101906106889190610dec565b10156106c9576040517f08c379a00000000000000000000000000000000000000000000000000000000081526004016106c090610e65565b60405180910390fd5b600160009054906101000a900473ffffffffffffffffffffffffffffffffffffffff1673ffffffffffffffffffffffffffffffffffffffff1663a9059cbb336003600085600381111561071f5761071e610d2b565b5b600381111561073157610730610d2b565b5b600381111561074357610742610d2b565b5b8152602001908152602001600020600101546040518363ffffffff1660e01b8152600401610772929190610e85565b6020604051808303816000875af1158015610791573d6000803e3d6000fd5b505050506040513d601f19601f820116820180604052508101906107b59190610ee6565b506001600260008282546107c99190610f42565b9250508190555050565b60036020528060005260406000206000915090508060000154908060010154905082565b600080600381111561080c5761080b610d2b565b5b82600381111561081f5761081e610d2b565b5b600381111561083157610830610d2b565b5b14801561084157506103e8600254105b1561085457655af3107a400090506108a4565b6003600083600381111561086b5761086a610d2b565b5b600381111561087d5761087c610d2b565b5b600381111561088f5761088e610d2b565b5b81526020019081526020016000206000015490505b919050565b6108b1610952565b600073ffffffffffffffffffffffffffffffffffffffff168173ffffffffffffffffffffffffffffffffffffffff1603610920576040517f08c379a000000000000000000000000000000000000000000000000000000000815260040161091790610fe8565b60405180910390fd5b610929816109d0565b50565b600160009054906101000a900473ffffffffffffffffffffffffffffffffffffffff1681565b61095a610a94565b73ffffffffffffffffffffffffffffffffffffffff16610978610414565b73ffffffffffffffffffffffffffffffffffffffff16146109ce576040517f08c379a00000000000000000000000000000000000000000000000000000000081526004016109c590611054565b60405180910390fd5b565b60008060009054906101000a900473ffffffffffffffffffffffffffffffffffffffff169050816000806101000a81548173ffffffffffffffffffffffffffffffffffffffff021916908373ffffffffffffffffffffffffffffffffffffffff1602179055508173ffffffffffffffffffffffffffffffffffffffff168173ffffffffffffffffffffffffffffffffffffffff167f8be0079c531659141344cd1fd0a4f28419497f9722a3daafe3b4186f6b6457e060405160405180910390a35050565b600033905090565b600080fd5b600073ffffffffffffffffffffffffffffffffffffffff82169050919050565b6000610acc82610aa1565b9050919050565b610adc81610ac1565b8114610ae757600080fd5b50565b600081359050610af981610ad3565b92915050565b600060208284031215610b1557610b14610a9c565b5b6000610b2384828501610aea565b91505092915050565b6000819050919050565b610b3f81610b2c565b82525050565b6000602082019050610b5a6000830184610b36565b92915050565b610b6981610b2c565b8114610b7457600080fd5b50565b600081359050610b8681610b60565b92915050565b600080600060608486031215610ba557610ba4610a9c565b5b6000610bb386828701610b77565b9350506020610bc486828701610b77565b9250506040610bd586828701610b77565b9150509250925092565b610be881610ac1565b82525050565b6000602082019050610c036000830184610bdf565b92915050565b600060208284031215610c1f57610c1e610a9c565b5b6000610c2d84828501610b77565b91505092915050565b60048110610c4357600080fd5b50565b600081359050610c5581610c36565b92915050565b600060208284031215610c7157610c70610a9c565b5b6000610c7f84828501610c46565b91505092915050565b6000604082019050610c9d6000830185610b36565b610caa6020830184610b36565b9392505050565b6000819050919050565b6000610cd6610cd1610ccc84610aa1565b610cb1565b610aa1565b9050919050565b6000610ce882610cbb565b9050919050565b6000610cfa82610cdd565b9050919050565b610d0a81610cef565b82525050565b6000602082019050610d256000830184610d01565b92915050565b7f4e487b7100000000000000000000000000000000000000000000000000000000600052602160045260246000fd5b600082825260208201905092915050565b7f546f6b656e53616c653a20696e76616c69642070726963650000000000000000600082015250565b6000610da1601883610d5a565b9150610dac82610d6b565b602082019050919050565b60006020820190508181036000830152610dd081610d94565b9050919050565b600081519050610de681610b60565b92915050565b600060208284031215610e0257610e01610a9c565b5b6000610e1084828501610dd7565b91505092915050565b7f546f6b656e53616c653a206e6f7420656e6f75676820746f6b656e7300000000600082015250565b6000610e4f601c83610d5a565b9150610e5a82610e19565b602082019050919050565b60006020820190508181036000830152610e7e81610e42565b9050919050565b6000604082019050610e9a6000830185610bdf565b610ea76020830184610b36565b9392505050565b60008115159050919050565b610ec381610eae565b8114610ece57600080fd5b50565b600081519050610ee081610eba565b92915050565b600060208284031215610efc57610efb610a9c565b5b6000610f0a84828501610ed1565b91505092915050565b7f4e487b7100000000000000000000000000000000000000000000000000000000600052601160045260246000fd5b6000610f4d82610b2c565b9150610f5883610b2c565b9250828201905080821115610f7057610f6f610f13565b5b92915050565b7f4f776e61626c653a206e6577206f776e657220697320746865207a65726f206160008201527f6464726573730000000000000000000000000000000000000000000000000000602082015250565b6000610fd2602683610d5a565b9150610fdd82610f76565b604082019050919050565b6000602082019050818103600083015261100181610fc5565b9050919050565b7f4f776e61626c653a2063616c6c6572206973206e6f7420746865206f776e6572600082015250565b600061103e602083610d5a565b915061104982611008565b602082019050919050565b6000602082019050818103600083015261106d81611031565b905091905056fea264697066735822122082ad5868cb556a97e234f68826839f638f8907092180a272b32bab35feb5366964736f6c63430008120033",
  "linkReferences": {},
  "deployedLinkReferences": {}
}