{
  "_format": "hh-sol-artifact-1",
  "contractName": "TokenSale",
  "sourceName": "contracts/TokenSale.sol",
  "abi": [
    {
      "inputs": [
        {
          "internalType": "address",
          "name": "_tokenAddress",
          "type": "address"
        }
      ],
      "stateMutability": "nonpayable",
      "type": "constructor"
    },
    {
      "anonymous": false,
      "inputs": [
        {
          "indexed": true,
          "internalType": "address",
          "name": "previousOwner",
          "type": "address"
        },
        {
          "indexed": true,
          "internalType": "address",
          "name": "newOwner",
          "type": "address"
        }
      ],
      "name": "OwnershipTransferred",
      "type": "event"
    },
    {
      "inputs": [
        {
          "internalType": "uint256",
          "name": "_packageName",
          "type": "uint256"
        }
      ],
      "name": "buyPackage",
      "outputs": [],
      "stateMutability": "payable",
      "type": "function"
    },
    {
      "inputs": [
        {
          "internalType": "uint256",
          "name": "_packageName",
          "type": "uint256"
        }
      ],
      "name": "getPrice",
      "outputs": [
        {
          "internalType": "uint256",
          "name": "",
          "type": "uint256"
        }
      ],
      "stateMutability": "view",
      "type": "function"
    },
    {
      "inputs": [],
      "name": "owner",
      "outputs": [
        {
          "internalType": "address",
          "name": "",
          "type": "address"
        }
      ],
      "stateMutability": "view",
      "type": "function"
    },
    {
      "inputs": [
        {
          "internalType": "enum TokenSale.Rank",
          "name": "",
          "type": "uint8"
        }
      ],
      "name": "packages",
      "outputs": [
        {
          "internalType": "uint256",
          "name": "price",
          "type": "uint256"
        },
        {
          "internalType": "uint256",
          "name": "tokens",
          "type": "uint256"
        }
      ],
      "stateMutability": "view",
      "type": "function"
    },
    {
      "inputs": [
        {
          "internalType": "address",
          "name": "",
          "type": "address"
        }
      ],
      "name": "referrals",
      "outputs": [
        {
          "internalType": "address",
          "name": "",
          "type": "address"
        }
      ],
      "stateMutability": "view",
      "type": "function"
    },
    {
      "inputs": [],
      "name": "renounceOwnership",
      "outputs": [],
      "stateMutability": "nonpayable",
      "type": "function"
    },
    {
      "inputs": [
        {
          "internalType": "uint256",
          "name": "_packageName",
          "type": "uint256"
        },
        {
          "internalType": "uint256",
          "name": "_price",
          "type": "uint256"
        },
        {
          "internalType": "uint256",
          "name": "_tokens",
          "type": "uint256"
        }
      ],
      "name": "setPackage",
      "outputs": [],
      "stateMutability": "nonpayable",
      "type": "function"
    },
    {
      "inputs": [],
      "name": "token",
      "outputs": [
        {
          "internalType": "contract IERC20",
          "name": "",
          "type": "address"
        }
      ],
      "stateMutability": "view",
      "type": "function"
    },
    {
      "inputs": [],
      "name": "totalSuply",
      "outputs": [
        {
          "internalType": "uint256",
          "name": "",
          "type": "uint256"
        }
      ],
      "stateMutability": "view",
      "type": "function"
    },
    {
      "inputs": [
        {
          "internalType": "address",
          "name": "newOwner",
          "type": "address"
        }
      ],
      "name": "transferOwnership",
      "outputs": [],
      "stateMutability": "nonpayable",
      "type": "function"
    },
    {
      "inputs": [
        {
          "internalType": "address",
          "name": "",
          "type": "address"
        }
      ],
      "name": "userLevels",
      "outputs": [
        {
          "internalType": "uint256",
          "name": "",
          "type": "uint256"
        }
      ],
      "stateMutability": "view",
      "type": "function"
    },
    {
      "inputs": [],
      "name": "withdrawEther",
      "outputs": [],
      "stateMutability": "nonpayable",
      "type": "function"
    }
  ],
  "bytecode": "0x60806040523480156200001157600080fd5b506040516200148a3803806200148a8339818101604052810190620000379190620003bf565b620000576200004b6200028960201b60201c565b6200029160201b60201c565b80600160006101000a81548173ffffffffffffffffffffffffffffffffffffffff021916908373ffffffffffffffffffffffffffffffffffffffff160217905550604051806040016040528066038d7ea4c68000815260200169021e19e0c9bab240000081525060036000806003811115620000d857620000d7620003f1565b5b6003811115620000ed57620000ec620003f1565b5b815260200190815260200160002060008201518160000155602082015181600101559050506040518060400160405280662386f26fc10000815260200169152d02c7e14af68000008152506003600060016003811115620001535762000152620003f1565b5b6003811115620001685762000167620003f1565b5b81526020019081526020016000206000820151816000015560208201518160010155905050604051806040016040528066470de4df8200008152602001692a5a058fc295ed0000008152506003600060026003811115620001ce57620001cd620003f1565b5b6003811115620001e357620001e2620003f1565b5b815260200190815260200160002060008201518160000155602082015181600101559050506040518060400160405280669fdf42f6e480008152602001695f4a8c8375d15540000081525060036000600380811115620002485762000247620003f1565b5b60038111156200025d576200025c620003f1565b5b815260200190815260200160002060008201518160000155602082015181600101559050505062000420565b600033905090565b60008060009054906101000a900473ffffffffffffffffffffffffffffffffffffffff169050816000806101000a81548173ffffffffffffffffffffffffffffffffffffffff021916908373ffffffffffffffffffffffffffffffffffffffff1602179055508173ffffffffffffffffffffffffffffffffffffffff168173ffffffffffffffffffffffffffffffffffffffff167f8be0079c531659141344cd1fd0a4f28419497f9722a3daafe3b4186f6b6457e060405160405180910390a35050565b600080fd5b600073ffffffffffffffffffffffffffffffffffffffff82169050919050565b600062000387826200035a565b9050919050565b62000399816200037a565b8114620003a557600080fd5b50565b600081519050620003b9816200038e565b92915050565b600060208284031215620003d857620003d762000355565b5b6000620003e884828501620003a8565b91505092915050565b7f4e487b7100000000000000000000000000000000000000000000000000000000600052602160045260246000fd5b61105a80620004306000396000f3fe6080604052600436106100a75760003560e01c8063a2a9679911610064578063a2a96799146101a8578063ab69523b146101d3578063e4a1f4d1146101ef578063e75722301461022d578063f2fde38b1461026a578063fc0c546a14610293576100a7565b806330413ccf146100ac578063715018a6146100e95780637362377b1461010057806382447134146101175780638da5cb5b146101405780639ca423b31461016b575b600080fd5b3480156100b857600080fd5b506100d360048036038101906100ce9190610aaf565b6102be565b6040516100e09190610af5565b60405180910390f35b3480156100f557600080fd5b506100fe6102d6565b005b34801561010c57600080fd5b506101156102ea565b005b34801561012357600080fd5b5061013e60048036038101906101399190610b3c565b610342565b005b34801561014c57600080fd5b506101556103c4565b6040516101629190610b9e565b60405180910390f35b34801561017757600080fd5b50610192600480360381019061018d9190610aaf565b6103ed565b60405161019f9190610b9e565b60405180910390f35b3480156101b457600080fd5b506101bd610420565b6040516101ca9190610af5565b60405180910390f35b6101ed60048036038101906101e89190610bb9565b610426565b005b3480156101fb57600080fd5b5061021660048036038101906102119190610c0b565b610783565b604051610224929190610c38565b60405180910390f35b34801561023957600080fd5b50610254600480360381019061024f9190610bb9565b6107a7565b6040516102619190610af5565b60405180910390f35b34801561027657600080fd5b50610291600480360381019061028c9190610aaf565b610859565b005b34801561029f57600080fd5b506102a86108dc565b6040516102b59190610cc0565b60405180910390f35b60056020528060005260406000206000915090505481565b6102de610902565b6102e86000610980565b565b6102f2610902565b6102fa6103c4565b73ffffffffffffffffffffffffffffffffffffffff166108fc479081150290604051600060405180830381858888f1935050505015801561033f573d6000803e3d6000fd5b50565b61034a610902565b6040518060400160405280838152602001828152506003600085600381111561037657610375610cdb565b5b600381111561038857610387610cdb565b5b600381111561039a57610399610cdb565b5b81526020019081526020016000206000820151816000015560208201518160010155905050505050565b60008060009054906101000a900473ffffffffffffffffffffffffffffffffffffffff16905090565b60046020528060005260406000206000915054906101000a900473ffffffffffffffffffffffffffffffffffffffff1681565b60025481565b6000600381111561043a57610439610cdb565b5b81600381111561044d5761044c610cdb565b5b600381111561045f5761045e610cdb565b5b036104c0576103e860025410801561047c5750655af3107a400034145b6104bb576040517f08c379a00000000000000000000000000000000000000000000000000000000081526004016104b290610d67565b60405180910390fd5b61054f565b600360008260038111156104d7576104d6610cdb565b5b60038111156104e9576104e8610cdb565b5b60038111156104fb576104fa610cdb565b5b815260200190815260200160002060000154341461054e576040517f08c379a000000000000000000000000000000000000000000000000000000000815260040161054590610d67565b60405180910390fd5b5b6003600082600381111561056657610565610cdb565b5b600381111561057857610577610cdb565b5b600381111561058a57610589610cdb565b5b815260200190815260200160002060010154600160009054906101000a900473ffffffffffffffffffffffffffffffffffffffff1673ffffffffffffffffffffffffffffffffffffffff166370a08231306040518263ffffffff1660e01b81526004016105f79190610b9e565b602060405180830381865afa158015610614573d6000803e3d6000fd5b505050506040513d601f19601f820116820180604052508101906106389190610d9c565b1015610679576040517f08c379a000000000000000000000000000000000000000000000000000000000815260040161067090610e15565b60405180910390fd5b600160009054906101000a900473ffffffffffffffffffffffffffffffffffffffff1673ffffffffffffffffffffffffffffffffffffffff1663a9059cbb33600360008560038111156106cf576106ce610cdb565b5b60038111156106e1576106e0610cdb565b5b60038111156106f3576106f2610cdb565b5b8152602001908152602001600020600101546040518363ffffffff1660e01b8152600401610722929190610e35565b6020604051808303816000875af1158015610741573d6000803e3d6000fd5b505050506040513d601f19601f820116820180604052508101906107659190610e96565b506001600260008282546107799190610ef2565b9250508190555050565b60036020528060005260406000206000915090508060000154908060010154905082565b60008060038111156107bc576107bb610cdb565b5b8260038111156107cf576107ce610cdb565b5b60038111156107e1576107e0610cdb565b5b1480156107f157506103e8600254105b1561080457655af3107a40009050610854565b6003600083600381111561081b5761081a610cdb565b5b600381111561082d5761082c610cdb565b5b600381111561083f5761083e610cdb565b5b81526020019081526020016000206000015490505b919050565b610861610902565b600073ffffffffffffffffffffffffffffffffffffffff168173ffffffffffffffffffffffffffffffffffffffff16036108d0576040517f08c379a00000000000000000000000000000000000000000000000000000000081526004016108c790610f98565b60405180910390fd5b6108d981610980565b50565b600160009054906101000a900473ffffffffffffffffffffffffffffffffffffffff1681565b61090a610a44565b73ffffffffffffffffffffffffffffffffffffffff166109286103c4565b73ffffffffffffffffffffffffffffffffffffffff161461097e576040517f08c379a000000000000000000000000000000000000000000000000000000000815260040161097590611004565b60405180910390fd5b565b60008060009054906101000a900473ffffffffffffffffffffffffffffffffffffffff169050816000806101000a81548173ffffffffffffffffffffffffffffffffffffffff021916908373ffffffffffffffffffffffffffffffffffffffff1602179055508173ffffffffffffffffffffffffffffffffffffffff168173ffffffffffffffffffffffffffffffffffffffff167f8be0079c531659141344cd1fd0a4f28419497f9722a3daafe3b4186f6b6457e060405160405180910390a35050565b600033905090565b600080fd5b600073ffffffffffffffffffffffffffffffffffffffff82169050919050565b6000610a7c82610a51565b9050919050565b610a8c81610a71565b8114610a9757600080fd5b50565b600081359050610aa981610a83565b92915050565b600060208284031215610ac557610ac4610a4c565b5b6000610ad384828501610a9a565b91505092915050565b6000819050919050565b610aef81610adc565b82525050565b6000602082019050610b0a6000830184610ae6565b92915050565b610b1981610adc565b8114610b2457600080fd5b50565b600081359050610b3681610b10565b92915050565b600080600060608486031215610b5557610b54610a4c565b5b6000610b6386828701610b27565b9350506020610b7486828701610b27565b9250506040610b8586828701610b27565b9150509250925092565b610b9881610a71565b82525050565b6000602082019050610bb36000830184610b8f565b92915050565b600060208284031215610bcf57610bce610a4c565b5b6000610bdd84828501610b27565b91505092915050565b60048110610bf357600080fd5b50565b600081359050610c0581610be6565b92915050565b600060208284031215610c2157610c20610a4c565b5b6000610c2f84828501610bf6565b91505092915050565b6000604082019050610c4d6000830185610ae6565b610c5a6020830184610ae6565b9392505050565b6000819050919050565b6000610c86610c81610c7c84610a51565b610c61565b610a51565b9050919050565b6000610c9882610c6b565b9050919050565b6000610caa82610c8d565b9050919050565b610cba81610c9f565b82525050565b6000602082019050610cd56000830184610cb1565b92915050565b7f4e487b7100000000000000000000000000000000000000000000000000000000600052602160045260246000fd5b600082825260208201905092915050565b7f546f6b656e53616c653a20696e76616c69642070726963650000000000000000600082015250565b6000610d51601883610d0a565b9150610d5c82610d1b565b602082019050919050565b60006020820190508181036000830152610d8081610d44565b9050919050565b600081519050610d9681610b10565b92915050565b600060208284031215610db257610db1610a4c565b5b6000610dc084828501610d87565b91505092915050565b7f546f6b656e53616c653a206e6f7420656e6f75676820746f6b656e7300000000600082015250565b6000610dff601c83610d0a565b9150610e0a82610dc9565b602082019050919050565b60006020820190508181036000830152610e2e81610df2565b9050919050565b6000604082019050610e4a6000830185610b8f565b610e576020830184610ae6565b9392505050565b60008115159050919050565b610e7381610e5e565b8114610e7e57600080fd5b50565b600081519050610e9081610e6a565b92915050565b600060208284031215610eac57610eab610a4c565b5b6000610eba84828501610e81565b91505092915050565b7f4e487b7100000000000000000000000000000000000000000000000000000000600052601160045260246000fd5b6000610efd82610adc565b9150610f0883610adc565b9250828201905080821115610f2057610f1f610ec3565b5b92915050565b7f4f776e61626c653a206e6577206f776e657220697320746865207a65726f206160008201527f6464726573730000000000000000000000000000000000000000000000000000602082015250565b6000610f82602683610d0a565b9150610f8d82610f26565b604082019050919050565b60006020820190508181036000830152610fb181610f75565b9050919050565b7f4f776e61626c653a2063616c6c6572206973206e6f7420746865206f776e6572600082015250565b6000610fee602083610d0a565b9150610ff982610fb8565b602082019050919050565b6000602082019050818103600083015261101d81610fe1565b905091905056fea2646970667358221220c8d2a1d379ff0b7dd2aa63dd400f956c3d670157fa175061025214cc27b19f0b64736f6c63430008120033",
  "linkReferences": {},
  "deployedLinkReferences": {}
}