{
  "_format": "hh-sol-artifact-1",
  "contractName": "TokenSale",
  "sourceName": "contracts/TokenSale.sol",
  "abi": [
    {
      "inputs": [
        {
          "internalType": "address",
          "name": "_tokenAddress",
          "type": "address"
        }
      ],
      "stateMutability": "nonpayable",
      "type": "constructor"
    },
    {
      "anonymous": false,
      "inputs": [
        {
          "indexed": true,
          "internalType": "address",
          "name": "previousOwner",
          "type": "address"
        },
        {
          "indexed": true,
          "internalType": "address",
          "name": "newOwner",
          "type": "address"
        }
      ],
      "name": "OwnershipTransferred",
      "type": "event"
    },
    {
      "inputs": [
        {
          "internalType": "string",
          "name": "_packageName",
          "type": "string"
        }
      ],
      "name": "buyPackage",
      "outputs": [],
      "stateMutability": "payable",
      "type": "function"
    },
    {
      "inputs": [
        {
          "internalType": "string",
          "name": "_packageName",
          "type": "string"
        }
      ],
      "name": "getPrice",
      "outputs": [
        {
          "internalType": "uint256",
          "name": "",
          "type": "uint256"
        }
      ],
      "stateMutability": "view",
      "type": "function"
    },
    {
      "inputs": [],
      "name": "owner",
      "outputs": [
        {
          "internalType": "address",
          "name": "",
          "type": "address"
        }
      ],
      "stateMutability": "view",
      "type": "function"
    },
    {
      "inputs": [
        {
          "internalType": "string",
          "name": "",
          "type": "string"
        }
      ],
      "name": "packages",
      "outputs": [
        {
          "internalType": "uint256",
          "name": "price",
          "type": "uint256"
        },
        {
          "internalType": "uint256",
          "name": "tokens",
          "type": "uint256"
        }
      ],
      "stateMutability": "view",
      "type": "function"
    },
    {
      "inputs": [
        {
          "internalType": "address",
          "name": "",
          "type": "address"
        }
      ],
      "name": "referrals",
      "outputs": [
        {
          "internalType": "address",
          "name": "",
          "type": "address"
        }
      ],
      "stateMutability": "view",
      "type": "function"
    },
    {
      "inputs": [],
      "name": "renounceOwnership",
      "outputs": [],
      "stateMutability": "nonpayable",
      "type": "function"
    },
    {
      "inputs": [
        {
          "internalType": "string",
          "name": "_packageName",
          "type": "string"
        },
        {
          "internalType": "uint256",
          "name": "_price",
          "type": "uint256"
        },
        {
          "internalType": "uint256",
          "name": "_tokens",
          "type": "uint256"
        }
      ],
      "name": "setPackage",
      "outputs": [],
      "stateMutability": "nonpayable",
      "type": "function"
    },
    {
      "inputs": [],
      "name": "token",
      "outputs": [
        {
          "internalType": "contract IERC20",
          "name": "",
          "type": "address"
        }
      ],
      "stateMutability": "view",
      "type": "function"
    },
    {
      "inputs": [],
      "name": "totalSuply",
      "outputs": [
        {
          "internalType": "uint256",
          "name": "",
          "type": "uint256"
        }
      ],
      "stateMutability": "view",
      "type": "function"
    },
    {
      "inputs": [
        {
          "internalType": "address",
          "name": "newOwner",
          "type": "address"
        }
      ],
      "name": "transferOwnership",
      "outputs": [],
      "stateMutability": "nonpayable",
      "type": "function"
    },
    {
      "inputs": [
        {
          "internalType": "address",
          "name": "",
          "type": "address"
        }
      ],
      "name": "userLevels",
      "outputs": [
        {
          "internalType": "uint256",
          "name": "",
          "type": "uint256"
        }
      ],
      "stateMutability": "view",
      "type": "function"
    },
    {
      "inputs": [],
      "name": "withdrawEther",
      "outputs": [],
      "stateMutability": "nonpayable",
      "type": "function"
    }
  ],
  "bytecode": "0x60806040523480156200001157600080fd5b50604051620016cd380380620016cd833981810160405281019062000037919062000341565b620000576200004b6200020b60201b60201c565b6200021360201b60201c565b80600160006101000a81548173ffffffffffffffffffffffffffffffffffffffff021916908373ffffffffffffffffffffffffffffffffffffffff160217905550604051806040016040528066038d7ea4c68000815260200169021e19e0c9bab24000008152506003604051620000ce90620003ce565b908152602001604051809103902060008201518160000155602082015181600101559050506040518060400160405280662386f26fc10000815260200169152d02c7e14af68000008152506003604051620001299062000435565b90815260200160405180910390206000820151816000015560208201518160010155905050604051806040016040528066470de4df8200008152602001692a5a058fc295ed000000815250600360405162000184906200049c565b908152602001604051809103902060008201518160000155602082015181600101559050506040518060400160405280669fdf42f6e480008152602001695f4a8c8375d1554000008152506003604051620001df9062000503565b90815260200160405180910390206000820151816000015560208201518160010155905050506200051a565b600033905090565b60008060009054906101000a900473ffffffffffffffffffffffffffffffffffffffff169050816000806101000a81548173ffffffffffffffffffffffffffffffffffffffff021916908373ffffffffffffffffffffffffffffffffffffffff1602179055508173ffffffffffffffffffffffffffffffffffffffff168173ffffffffffffffffffffffffffffffffffffffff167f8be0079c531659141344cd1fd0a4f28419497f9722a3daafe3b4186f6b6457e060405160405180910390a35050565b600080fd5b600073ffffffffffffffffffffffffffffffffffffffff82169050919050565b60006200030982620002dc565b9050919050565b6200031b81620002fc565b81146200032757600080fd5b50565b6000815190506200033b8162000310565b92915050565b6000602082840312156200035a5762000359620002d7565b5b60006200036a848285016200032a565b91505092915050565b600081905092915050565b7f4261736963000000000000000000000000000000000000000000000000000000600082015250565b6000620003b660058362000373565b9150620003c3826200037e565b600582019050919050565b6000620003db82620003a7565b9150819050919050565b7f42726f6e7a650000000000000000000000000000000000000000000000000000600082015250565b60006200041d60068362000373565b91506200042a82620003e5565b600682019050919050565b600062000442826200040e565b9150819050919050565b7f53696c7665720000000000000000000000000000000000000000000000000000600082015250565b60006200048460068362000373565b915062000491826200044c565b600682019050919050565b6000620004a98262000475565b9150819050919050565b7f476f6c6400000000000000000000000000000000000000000000000000000000600082015250565b6000620004eb60048362000373565b9150620004f882620004b3565b600482019050919050565b60006200051082620004dc565b9150819050919050565b6111a3806200052a6000396000f3fe6080604052600436106100a75760003560e01c80638da5cb5b116100645780638da5cb5b146101bb578063939c3c96146101e65780639ca423b314610202578063a2a967991461023f578063f2fde38b1461026a578063fc0c546a14610293576100a7565b806309fec2ad146100ac57806330413ccf146100ea578063524f388914610127578063715018a6146101645780637362377b1461017b5780637f66336f14610192575b600080fd5b3480156100b857600080fd5b506100d360048036038101906100ce9190610b39565b6102be565b6040516100e1929190610b9b565b60405180910390f35b3480156100f657600080fd5b50610111600480360381019061010c9190610c22565b6102f8565b60405161011e9190610c4f565b60405180910390f35b34801561013357600080fd5b5061014e60048036038101906101499190610b39565b610310565b60405161015b9190610c4f565b60405180910390f35b34801561017057600080fd5b5061017961033b565b005b34801561018757600080fd5b5061019061034f565b005b34801561019e57600080fd5b506101b960048036038101906101b49190610c96565b6103a7565b005b3480156101c757600080fd5b506101d06103fe565b6040516101dd9190610d14565b60405180910390f35b61020060048036038101906101fb9190610b39565b610427565b005b34801561020e57600080fd5b5061022960048036038101906102249190610c22565b6107b3565b6040516102369190610d14565b60405180910390f35b34801561024b57600080fd5b506102546107e6565b6040516102619190610c4f565b60405180910390f35b34801561027657600080fd5b50610291600480360381019061028c9190610c22565b6107ec565b005b34801561029f57600080fd5b506102a861086f565b6040516102b59190610d8e565b60405180910390f35b6003818051602081018201805184825260208301602085012081835280955050505050506000915090508060000154908060010154905082565b60056020528060005260406000206000915090505481565b60006003826040516103229190610e1a565b9081526020016040518091039020600001549050919050565b610343610895565b61034d6000610913565b565b610357610895565b61035f6103fe565b73ffffffffffffffffffffffffffffffffffffffff166108fc479081150290604051600060405180830381858888f193505050501580156103a4573d6000803e3d6000fd5b50565b6103af610895565b6040518060400160405280838152602001828152506003846040516103d49190610e1a565b90815260200160405180910390206000820151816000015560208201518160010155905050505050565b60008060009054906101000a900473ffffffffffffffffffffffffffffffffffffffff16905090565b60006003826040516104399190610e1a565b9081526020016040518091039020600001541161048b576040517f08c379a000000000000000000000000000000000000000000000000000000000815260040161048290610e8e565b60405180910390fd5b60008180519060200120905060006040518060400160405280600581526020017f4261736963000000000000000000000000000000000000000000000000000000815250805190602001209050808203610641576103e8600254101561064057655af3107a4000341015610534576040517f08c379a000000000000000000000000000000000000000000000000000000000815260040161052b90610efa565b60405180910390fd5b3073ffffffffffffffffffffffffffffffffffffffff166108fc349081150290604051600060405180830381858888f1935050505015801561057a573d6000803e3d6000fd5b50600160009054906101000a900473ffffffffffffffffffffffffffffffffffffffff1673ffffffffffffffffffffffffffffffffffffffff1663a9059cbb33683635c9adc5dea000006040518363ffffffff1660e01b81526004016105e1929190610f55565b6020604051808303816000875af1158015610600573d6000803e3d6000fd5b505050506040513d601f19601f820116820180604052508101906106249190610fb6565b506001600260008282546106389190611012565b925050819055505b5b6003836040516106519190610e1a565b9081526020016040518091039020600001543410156106a5576040517f08c379a000000000000000000000000000000000000000000000000000000000815260040161069c90610efa565b60405180910390fd5b3073ffffffffffffffffffffffffffffffffffffffff166108fc349081150290604051600060405180830381858888f193505050501580156106eb573d6000803e3d6000fd5b50600160009054906101000a900473ffffffffffffffffffffffffffffffffffffffff1673ffffffffffffffffffffffffffffffffffffffff1663a9059cbb3360038660405161073b9190610e1a565b9081526020016040518091039020600101546040518363ffffffff1660e01b815260040161076a929190611046565b6020604051808303816000875af1158015610789573d6000803e3d6000fd5b505050506040513d601f19601f820116820180604052508101906107ad9190610fb6565b50505050565b60046020528060005260406000206000915054906101000a900473ffffffffffffffffffffffffffffffffffffffff1681565b60025481565b6107f4610895565b600073ffffffffffffffffffffffffffffffffffffffff168173ffffffffffffffffffffffffffffffffffffffff1603610863576040517f08c379a000000000000000000000000000000000000000000000000000000000815260040161085a906110e1565b60405180910390fd5b61086c81610913565b50565b600160009054906101000a900473ffffffffffffffffffffffffffffffffffffffff1681565b61089d6109d7565b73ffffffffffffffffffffffffffffffffffffffff166108bb6103fe565b73ffffffffffffffffffffffffffffffffffffffff1614610911576040517f08c379a00000000000000000000000000000000000000000000000000000000081526004016109089061114d565b60405180910390fd5b565b60008060009054906101000a900473ffffffffffffffffffffffffffffffffffffffff169050816000806101000a81548173ffffffffffffffffffffffffffffffffffffffff021916908373ffffffffffffffffffffffffffffffffffffffff1602179055508173ffffffffffffffffffffffffffffffffffffffff168173ffffffffffffffffffffffffffffffffffffffff167f8be0079c531659141344cd1fd0a4f28419497f9722a3daafe3b4186f6b6457e060405160405180910390a35050565b600033905090565b6000604051905090565b600080fd5b600080fd5b600080fd5b600080fd5b6000601f19601f8301169050919050565b7f4e487b7100000000000000000000000000000000000000000000000000000000600052604160045260246000fd5b610a46826109fd565b810181811067ffffffffffffffff82111715610a6557610a64610a0e565b5b80604052505050565b6000610a786109df565b9050610a848282610a3d565b919050565b600067ffffffffffffffff821115610aa457610aa3610a0e565b5b610aad826109fd565b9050602081019050919050565b82818337600083830152505050565b6000610adc610ad784610a89565b610a6e565b905082815260208101848484011115610af857610af76109f8565b5b610b03848285610aba565b509392505050565b600082601f830112610b2057610b1f6109f3565b5b8135610b30848260208601610ac9565b91505092915050565b600060208284031215610b4f57610b4e6109e9565b5b600082013567ffffffffffffffff811115610b6d57610b6c6109ee565b5b610b7984828501610b0b565b91505092915050565b6000819050919050565b610b9581610b82565b82525050565b6000604082019050610bb06000830185610b8c565b610bbd6020830184610b8c565b9392505050565b600073ffffffffffffffffffffffffffffffffffffffff82169050919050565b6000610bef82610bc4565b9050919050565b610bff81610be4565b8114610c0a57600080fd5b50565b600081359050610c1c81610bf6565b92915050565b600060208284031215610c3857610c376109e9565b5b6000610c4684828501610c0d565b91505092915050565b6000602082019050610c646000830184610b8c565b92915050565b610c7381610b82565b8114610c7e57600080fd5b50565b600081359050610c9081610c6a565b92915050565b600080600060608486031215610caf57610cae6109e9565b5b600084013567ffffffffffffffff811115610ccd57610ccc6109ee565b5b610cd986828701610b0b565b9350506020610cea86828701610c81565b9250506040610cfb86828701610c81565b9150509250925092565b610d0e81610be4565b82525050565b6000602082019050610d296000830184610d05565b92915050565b6000819050919050565b6000610d54610d4f610d4a84610bc4565b610d2f565b610bc4565b9050919050565b6000610d6682610d39565b9050919050565b6000610d7882610d5b565b9050919050565b610d8881610d6d565b82525050565b6000602082019050610da36000830184610d7f565b92915050565b600081519050919050565b600081905092915050565b60005b83811015610ddd578082015181840152602081019050610dc2565b60008484015250505050565b6000610df482610da9565b610dfe8185610db4565b9350610e0e818560208601610dbf565b80840191505092915050565b6000610e268284610de9565b915081905092915050565b600082825260208201905092915050565b7f546f6b656e53616c653a20696e76616c6964207061636b616765206e616d6500600082015250565b6000610e78601f83610e31565b9150610e8382610e42565b602082019050919050565b60006020820190508181036000830152610ea781610e6b565b9050919050565b7f546f6b656e53616c653a20696e76616c69642070726963650000000000000000600082015250565b6000610ee4601883610e31565b9150610eef82610eae565b602082019050919050565b60006020820190508181036000830152610f1381610ed7565b9050919050565b6000819050919050565b6000610f3f610f3a610f3584610f1a565b610d2f565b610b82565b9050919050565b610f4f81610f24565b82525050565b6000604082019050610f6a6000830185610d05565b610f776020830184610f46565b9392505050565b60008115159050919050565b610f9381610f7e565b8114610f9e57600080fd5b50565b600081519050610fb081610f8a565b92915050565b600060208284031215610fcc57610fcb6109e9565b5b6000610fda84828501610fa1565b91505092915050565b7f4e487b7100000000000000000000000000000000000000000000000000000000600052601160045260246000fd5b600061101d82610b82565b915061102883610b82565b92508282019050808211156110405761103f610fe3565b5b92915050565b600060408201905061105b6000830185610d05565b6110686020830184610b8c565b9392505050565b7f4f776e61626c653a206e6577206f776e657220697320746865207a65726f206160008201527f6464726573730000000000000000000000000000000000000000000000000000602082015250565b60006110cb602683610e31565b91506110d68261106f565b604082019050919050565b600060208201905081810360008301526110fa816110be565b9050919050565b7f4f776e61626c653a2063616c6c6572206973206e6f7420746865206f776e6572600082015250565b6000611137602083610e31565b915061114282611101565b602082019050919050565b600060208201905081810360008301526111668161112a565b905091905056fea264697066735822122068be8470e4ad813e8f047346db018d7c4def9404a86f4ea2c803791b10cd005e64736f6c63430008120033",
  "linkReferences": {},
  "deployedLinkReferences": {}
}