{
  "_format": "hh-sol-artifact-1",
  "contractName": "NFTMarketplace",
  "sourceName": "contracts/marketContract.sol",
  "abi": [
    {
      "inputs": [
        {
          "internalType": "address",
          "name": "_nftAddress",
          "type": "address"
        },
        {
          "internalType": "address",
          "name": "_tokenAddress",
          "type": "address"
        }
      ],
      "stateMutability": "nonpayable",
      "type": "constructor"
    },
    {
      "anonymous": false,
      "inputs": [
        {
          "indexed": true,
          "internalType": "uint256",
          "name": "tokenId",
          "type": "uint256"
        },
        {
          "indexed": false,
          "internalType": "address",
          "name": "seller",
          "type": "address"
        },
        {
          "indexed": false,
          "internalType": "uint256",
          "name": "price",
          "type": "uint256"
        }
      ],
      "name": "NFTListedSuccess",
      "type": "event"
    },
    {
      "anonymous": false,
      "inputs": [
        {
          "indexed": true,
          "internalType": "address",
          "name": "previousOwner",
          "type": "address"
        },
        {
          "indexed": true,
          "internalType": "address",
          "name": "newOwner",
          "type": "address"
        }
      ],
      "name": "OwnershipTransferred",
      "type": "event"
    },
    {
      "inputs": [
        {
          "internalType": "uint256",
          "name": "_tokenId",
          "type": "uint256"
        }
      ],
      "name": "buyNFT",
      "outputs": [],
      "stateMutability": "payable",
      "type": "function"
    },
    {
      "inputs": [
        {
          "internalType": "uint256",
          "name": "_tokenId",
          "type": "uint256"
        }
      ],
      "name": "cancelListedNFT",
      "outputs": [],
      "stateMutability": "nonpayable",
      "type": "function"
    },
    {
      "inputs": [
        {
          "internalType": "uint256",
          "name": "_tokenId",
          "type": "uint256"
        },
        {
          "internalType": "uint256",
          "name": "_price",
          "type": "uint256"
        }
      ],
      "name": "editPrice",
      "outputs": [],
      "stateMutability": "nonpayable",
      "type": "function"
    },
    {
      "inputs": [],
      "name": "getNFTs",
      "outputs": [
        {
          "components": [
            {
              "internalType": "uint256",
              "name": "tokenId",
              "type": "uint256"
            },
            {
              "internalType": "address payable",
              "name": "seller",
              "type": "address"
            },
            {
              "internalType": "uint256",
              "name": "price",
              "type": "uint256"
            }
          ],
          "internalType": "struct NFTMarketplace.ListedNFT[]",
          "name": "",
          "type": "tuple[]"
        }
      ],
      "stateMutability": "view",
      "type": "function"
    },
    {
      "inputs": [
        {
          "internalType": "uint256",
          "name": "_tokenId",
          "type": "uint256"
        }
      ],
      "name": "getPrice",
      "outputs": [
        {
          "internalType": "uint256",
          "name": "",
          "type": "uint256"
        }
      ],
      "stateMutability": "view",
      "type": "function"
    },
    {
      "inputs": [
        {
          "internalType": "uint256",
          "name": "",
          "type": "uint256"
        }
      ],
      "name": "idToListedNFT",
      "outputs": [
        {
          "internalType": "uint256",
          "name": "tokenId",
          "type": "uint256"
        },
        {
          "internalType": "address payable",
          "name": "seller",
          "type": "address"
        },
        {
          "internalType": "uint256",
          "name": "price",
          "type": "uint256"
        }
      ],
      "stateMutability": "view",
      "type": "function"
    },
    {
      "inputs": [
        {
          "internalType": "uint256",
          "name": "_tokenId",
          "type": "uint256"
        },
        {
          "internalType": "uint256",
          "name": "_price",
          "type": "uint256"
        }
      ],
      "name": "listedNFT",
      "outputs": [],
      "stateMutability": "nonpayable",
      "type": "function"
    },
    {
      "inputs": [],
      "name": "nft",
      "outputs": [
        {
          "internalType": "contract NFTSplittingME",
          "name": "",
          "type": "address"
        }
      ],
      "stateMutability": "view",
      "type": "function"
    },
    {
      "inputs": [],
      "name": "owner",
      "outputs": [
        {
          "internalType": "address",
          "name": "",
          "type": "address"
        }
      ],
      "stateMutability": "view",
      "type": "function"
    },
    {
      "inputs": [],
      "name": "platformFee",
      "outputs": [
        {
          "internalType": "uint256",
          "name": "",
          "type": "uint256"
        }
      ],
      "stateMutability": "view",
      "type": "function"
    },
    {
      "inputs": [],
      "name": "renounceOwnership",
      "outputs": [],
      "stateMutability": "nonpayable",
      "type": "function"
    },
    {
      "inputs": [
        {
          "internalType": "uint256",
          "name": "_platformFee",
          "type": "uint256"
        }
      ],
      "name": "setPlatformFee",
      "outputs": [],
      "stateMutability": "nonpayable",
      "type": "function"
    },
    {
      "inputs": [],
      "name": "token",
      "outputs": [
        {
          "internalType": "contract USDT",
          "name": "",
          "type": "address"
        }
      ],
      "stateMutability": "view",
      "type": "function"
    },
    {
      "inputs": [],
      "name": "totalNFTs",
      "outputs": [
        {
          "internalType": "uint256",
          "name": "",
          "type": "uint256"
        }
      ],
      "stateMutability": "view",
      "type": "function"
    },
    {
      "inputs": [
        {
          "internalType": "address",
          "name": "newOwner",
          "type": "address"
        }
      ],
      "name": "transferOwnership",
      "outputs": [],
      "stateMutability": "nonpayable",
      "type": "function"
    }
  ],
  "bytecode": "0x60806040523480156200001157600080fd5b506040516200219038038062002190833981810160405281019062000037919062000260565b620000576200004b6200012a60201b60201c565b6200013260201b60201c565b600560028190555081600360006101000a81548173ffffffffffffffffffffffffffffffffffffffff021916908373ffffffffffffffffffffffffffffffffffffffff16021790555080600460006101000a81548173ffffffffffffffffffffffffffffffffffffffff021916908373ffffffffffffffffffffffffffffffffffffffff16021790555033600660006101000a81548173ffffffffffffffffffffffffffffffffffffffff021916908373ffffffffffffffffffffffffffffffffffffffff1602179055505050620002a7565b600033905090565b60008060009054906101000a900473ffffffffffffffffffffffffffffffffffffffff169050816000806101000a81548173ffffffffffffffffffffffffffffffffffffffff021916908373ffffffffffffffffffffffffffffffffffffffff1602179055508173ffffffffffffffffffffffffffffffffffffffff168173ffffffffffffffffffffffffffffffffffffffff167f8be0079c531659141344cd1fd0a4f28419497f9722a3daafe3b4186f6b6457e060405160405180910390a35050565b600080fd5b600073ffffffffffffffffffffffffffffffffffffffff82169050919050565b60006200022882620001fb565b9050919050565b6200023a816200021b565b81146200024657600080fd5b50565b6000815190506200025a816200022f565b92915050565b600080604083850312156200027a5762000279620001f6565b5b60006200028a8582860162000249565b92505060206200029d8582860162000249565b9150509250929050565b611ed980620002b76000396000f3fe6080604052600436106100e85760003560e01c8063715018a61161008a578063d0e7a5cb11610059578063d0e7a5cb146102b1578063e7572230146102da578063f2fde38b14610317578063fc0c546a14610340576100e8565b8063715018a6146102075780638da5cb5b1461021e578063a448951514610249578063b6e8562814610288576100e8565b806326232a2e116100c657806326232a2e1461016c57806347ccca021461019757806351ed8288146101c257806355e58ff8146101de576100e8565b80630d0e96da146100ed57806312e8e2c314610118578063227212f214610141575b600080fd5b3480156100f957600080fd5b5061010261036b565b60405161010f919061142d565b60405180910390f35b34801561012457600080fd5b5061013f600480360381019061013a9190611479565b610371565b005b34801561014d57600080fd5b5061015661039e565b60405161016391906115e7565b60405180910390f35b34801561017857600080fd5b50610181610510565b60405161018e919061142d565b60405180910390f35b3480156101a357600080fd5b506101ac610516565b6040516101b99190611668565b60405180910390f35b6101dc60048036038101906101d79190611479565b61053c565b005b3480156101ea57600080fd5b5061020560048036038101906102009190611479565b610923565b005b34801561021357600080fd5b5061021c610b1a565b005b34801561022a57600080fd5b50610233610b2e565b60405161024091906116a4565b60405180910390f35b34801561025557600080fd5b50610270600480360381019061026b9190611479565b610b57565b60405161027f939291906116ce565b60405180910390f35b34801561029457600080fd5b506102af60048036038101906102aa9190611705565b610ba1565b005b3480156102bd57600080fd5b506102d860048036038101906102d39190611705565b610fd9565b005b3480156102e657600080fd5b5061030160048036038101906102fc9190611479565b611172565b60405161030e919061142d565b60405180910390f35b34801561032357600080fd5b5061033e60048036038101906103399190611771565b6111ea565b005b34801561034c57600080fd5b5061035561126d565b60405161036291906117bf565b60405180910390f35b60015481565b610379611293565b6000811015801561038b575060648111155b61039457600080fd5b8060028190555050565b6060600060015467ffffffffffffffff8111156103be576103bd6117da565b5b6040519080825280602002602001820160405280156103f757816020015b6103e46113dd565b8152602001906001900390816103dc5790505b5090506000805b6001548110156105075760006005600060018461041b9190611838565b815260200190815260200160002060000154146104f457600560006001836104439190611838565b8152602001908152602001600020604051806060016040529081600082015481526020016001820160009054906101000a900473ffffffffffffffffffffffffffffffffffffffff1673ffffffffffffffffffffffffffffffffffffffff1673ffffffffffffffffffffffffffffffffffffffff1681526020016002820154815250508383815181106104d9576104d861186c565b5b60200260200101819052506001826104f19190611838565b91505b80806104ff9061189b565b9150506103fe565b50819250505090565b60025481565b600360009054906101000a900473ffffffffffffffffffffffffffffffffffffffff1681565b6000600560008381526020019081526020016000206000015403610595576040517f08c379a000000000000000000000000000000000000000000000000000000000815260040161058c90611940565b60405180910390fd5b3373ffffffffffffffffffffffffffffffffffffffff166005600083815260200190815260200160002060010160009054906101000a900473ffffffffffffffffffffffffffffffffffffffff1673ffffffffffffffffffffffffffffffffffffffff1603610639576040517f08c379a0000000000000000000000000000000000000000000000000000000008152600401610630906119ac565b60405180910390fd5b60006005600083815260200190815260200160002060010160009054906101000a900473ffffffffffffffffffffffffffffffffffffffff16905060006005600084815260200190815260200160002060020154905060006064600254836106a191906119cc565b6106ab9190611a3d565b9050600081836106bb9190611a6e565b9050600460009054906101000a900473ffffffffffffffffffffffffffffffffffffffff1673ffffffffffffffffffffffffffffffffffffffff166323b872dd3386846040518463ffffffff1660e01b815260040161071c93929190611aa2565b6020604051808303816000875af115801561073b573d6000803e3d6000fd5b505050506040513d601f19601f8201168201806040525081019061075f9190611b11565b50600460009054906101000a900473ffffffffffffffffffffffffffffffffffffffff1673ffffffffffffffffffffffffffffffffffffffff166323b872dd33600660009054906101000a900473ffffffffffffffffffffffffffffffffffffffff16856040518463ffffffff1660e01b81526004016107e193929190611aa2565b6020604051808303816000875af1158015610800573d6000803e3d6000fd5b505050506040513d601f19601f820116820180604052508101906108249190611b11565b50600360009054906101000a900473ffffffffffffffffffffffffffffffffffffffff1673ffffffffffffffffffffffffffffffffffffffff166323b872dd3033886040518463ffffffff1660e01b815260040161088493929190611aa2565b600060405180830381600087803b15801561089e57600080fd5b505af11580156108b2573d6000803e3d6000fd5b50505050600560008681526020019081526020016000206000808201600090556001820160006101000a81549073ffffffffffffffffffffffffffffffffffffffff02191690556002820160009055505060018060008282546109159190611a6e565b925050819055505050505050565b600060056000838152602001908152602001600020600001540361097c576040517f08c379a000000000000000000000000000000000000000000000000000000000815260040161097390611940565b60405180910390fd5b3373ffffffffffffffffffffffffffffffffffffffff166005600083815260200190815260200160002060010160009054906101000a900473ffffffffffffffffffffffffffffffffffffffff1673ffffffffffffffffffffffffffffffffffffffff1614610a20576040517f08c379a0000000000000000000000000000000000000000000000000000000008152600401610a1790611bb0565b60405180910390fd5b600360009054906101000a900473ffffffffffffffffffffffffffffffffffffffff1673ffffffffffffffffffffffffffffffffffffffff166323b872dd3033846040518463ffffffff1660e01b8152600401610a7f93929190611aa2565b600060405180830381600087803b158015610a9957600080fd5b505af1158015610aad573d6000803e3d6000fd5b50505050600560008281526020019081526020016000206000808201600090556001820160006101000a81549073ffffffffffffffffffffffffffffffffffffffff0219169055600282016000905550506001806000828254610b109190611a6e565b9250508190555050565b610b22611293565b610b2c6000611311565b565b60008060009054906101000a900473ffffffffffffffffffffffffffffffffffffffff16905090565b60056020528060005260406000206000915090508060000154908060010160009054906101000a900473ffffffffffffffffffffffffffffffffffffffff16908060020154905083565b3373ffffffffffffffffffffffffffffffffffffffff16600360009054906101000a900473ffffffffffffffffffffffffffffffffffffffff1673ffffffffffffffffffffffffffffffffffffffff16636352211e846040518263ffffffff1660e01b8152600401610c13919061142d565b602060405180830381865afa158015610c30573d6000803e3d6000fd5b505050506040513d601f19601f82011682018060405250810190610c549190611be5565b73ffffffffffffffffffffffffffffffffffffffff1614610caa576040517f08c379a0000000000000000000000000000000000000000000000000000000008152600401610ca190611bb0565b60405180910390fd5b3073ffffffffffffffffffffffffffffffffffffffff16600360009054906101000a900473ffffffffffffffffffffffffffffffffffffffff1673ffffffffffffffffffffffffffffffffffffffff1663081812fc846040518263ffffffff1660e01b8152600401610d1c919061142d565b602060405180830381865afa158015610d39573d6000803e3d6000fd5b505050506040513d601f19601f82011682018060405250810190610d5d9190611be5565b73ffffffffffffffffffffffffffffffffffffffff1614610db3576040517f08c379a0000000000000000000000000000000000000000000000000000000008152600401610daa90611c84565b60405180910390fd5b60008111610df6576040517f08c379a0000000000000000000000000000000000000000000000000000000008152600401610ded90611cf0565b60405180910390fd5b6000600560008481526020019081526020016000206000015414610e4f576040517f08c379a0000000000000000000000000000000000000000000000000000000008152600401610e4690611d5c565b60405180910390fd5b600360009054906101000a900473ffffffffffffffffffffffffffffffffffffffff1673ffffffffffffffffffffffffffffffffffffffff166323b872dd3330856040518463ffffffff1660e01b8152600401610eae93929190611aa2565b600060405180830381600087803b158015610ec857600080fd5b505af1158015610edc573d6000803e3d6000fd5b5050505060405180606001604052808381526020013373ffffffffffffffffffffffffffffffffffffffff16815260200182815250600560008481526020019081526020016000206000820151816000015560208201518160010160006101000a81548173ffffffffffffffffffffffffffffffffffffffff021916908373ffffffffffffffffffffffffffffffffffffffff160217905550604082015181600201559050506001806000828254610f949190611838565b92505081905550817f11f40f2a21302695e96ea2fb5f618a930b1c7454a3033a7b1bc89d7090d722c73383604051610fcd929190611d7c565b60405180910390a25050565b6000600560008481526020019081526020016000206000015403611032576040517f08c379a000000000000000000000000000000000000000000000000000000000815260040161102990611940565b60405180910390fd5b3373ffffffffffffffffffffffffffffffffffffffff166005600084815260200190815260200160002060010160009054906101000a900473ffffffffffffffffffffffffffffffffffffffff1673ffffffffffffffffffffffffffffffffffffffff16146110d6576040517f08c379a00000000000000000000000000000000000000000000000000000000081526004016110cd90611bb0565b60405180910390fd5b60008111611119576040517f08c379a000000000000000000000000000000000000000000000000000000000815260040161111090611cf0565b60405180910390fd5b806005600084815260200190815260200160002060020181905550817f11f40f2a21302695e96ea2fb5f618a930b1c7454a3033a7b1bc89d7090d722c73383604051611166929190611d7c565b60405180910390a25050565b6000806005600084815260200190815260200160002060000154036111cc576040517f08c379a00000000000000000000000000000000000000000000000000000000081526004016111c390611940565b60405180910390fd5b60056000838152602001908152602001600020600201549050919050565b6111f2611293565b600073ffffffffffffffffffffffffffffffffffffffff168173ffffffffffffffffffffffffffffffffffffffff1603611261576040517f08c379a000000000000000000000000000000000000000000000000000000000815260040161125890611e17565b60405180910390fd5b61126a81611311565b50565b600460009054906101000a900473ffffffffffffffffffffffffffffffffffffffff1681565b61129b6113d5565b73ffffffffffffffffffffffffffffffffffffffff166112b9610b2e565b73ffffffffffffffffffffffffffffffffffffffff161461130f576040517f08c379a000000000000000000000000000000000000000000000000000000000815260040161130690611e83565b60405180910390fd5b565b60008060009054906101000a900473ffffffffffffffffffffffffffffffffffffffff169050816000806101000a81548173ffffffffffffffffffffffffffffffffffffffff021916908373ffffffffffffffffffffffffffffffffffffffff1602179055508173ffffffffffffffffffffffffffffffffffffffff168173ffffffffffffffffffffffffffffffffffffffff167f8be0079c531659141344cd1fd0a4f28419497f9722a3daafe3b4186f6b6457e060405160405180910390a35050565b600033905090565b604051806060016040528060008152602001600073ffffffffffffffffffffffffffffffffffffffff168152602001600081525090565b6000819050919050565b61142781611414565b82525050565b6000602082019050611442600083018461141e565b92915050565b600080fd5b61145681611414565b811461146157600080fd5b50565b6000813590506114738161144d565b92915050565b60006020828403121561148f5761148e611448565b5b600061149d84828501611464565b91505092915050565b600081519050919050565b600082825260208201905092915050565b6000819050602082019050919050565b6114db81611414565b82525050565b600073ffffffffffffffffffffffffffffffffffffffff82169050919050565b600061150c826114e1565b9050919050565b61151c81611501565b82525050565b60608201600082015161153860008501826114d2565b50602082015161154b6020850182611513565b50604082015161155e60408501826114d2565b50505050565b60006115708383611522565b60608301905092915050565b6000602082019050919050565b6000611594826114a6565b61159e81856114b1565b93506115a9836114c2565b8060005b838110156115da5781516115c18882611564565b97506115cc8361157c565b9250506001810190506115ad565b5085935050505092915050565b600060208201905081810360008301526116018184611589565b905092915050565b6000819050919050565b600061162e611629611624846114e1565b611609565b6114e1565b9050919050565b600061164082611613565b9050919050565b600061165282611635565b9050919050565b61166281611647565b82525050565b600060208201905061167d6000830184611659565b92915050565b600061168e826114e1565b9050919050565b61169e81611683565b82525050565b60006020820190506116b96000830184611695565b92915050565b6116c881611501565b82525050565b60006060820190506116e3600083018661141e565b6116f060208301856116bf565b6116fd604083018461141e565b949350505050565b6000806040838503121561171c5761171b611448565b5b600061172a85828601611464565b925050602061173b85828601611464565b9150509250929050565b61174e81611683565b811461175957600080fd5b50565b60008135905061176b81611745565b92915050565b60006020828403121561178757611786611448565b5b60006117958482850161175c565b91505092915050565b60006117a982611635565b9050919050565b6117b98161179e565b82525050565b60006020820190506117d460008301846117b0565b92915050565b7f4e487b7100000000000000000000000000000000000000000000000000000000600052604160045260246000fd5b7f4e487b7100000000000000000000000000000000000000000000000000000000600052601160045260246000fd5b600061184382611414565b915061184e83611414565b925082820190508082111561186657611865611809565b5b92915050565b7f4e487b7100000000000000000000000000000000000000000000000000000000600052603260045260246000fd5b60006118a682611414565b91507fffffffffffffffffffffffffffffffffffffffffffffffffffffffffffffffff82036118d8576118d7611809565b5b600182019050919050565b600082825260208201905092915050565b7f54686973204e465420686173206e6f74206265656e206c697374656420796574600082015250565b600061192a6020836118e3565b9150611935826118f4565b602082019050919050565b600060208201905081810360008301526119598161191d565b9050919050565b7f596f752061726520746865206f776e6572206f662074686973204e4654000000600082015250565b6000611996601d836118e3565b91506119a182611960565b602082019050919050565b600060208201905081810360008301526119c581611989565b9050919050565b60006119d782611414565b91506119e283611414565b92508282026119f081611414565b91508282048414831517611a0757611a06611809565b5b5092915050565b7f4e487b7100000000000000000000000000000000000000000000000000000000600052601260045260246000fd5b6000611a4882611414565b9150611a5383611414565b925082611a6357611a62611a0e565b5b828204905092915050565b6000611a7982611414565b9150611a8483611414565b9250828203905081811115611a9c57611a9b611809565b5b92915050565b6000606082019050611ab76000830186611695565b611ac46020830185611695565b611ad1604083018461141e565b949350505050565b60008115159050919050565b611aee81611ad9565b8114611af957600080fd5b50565b600081519050611b0b81611ae5565b92915050565b600060208284031215611b2757611b26611448565b5b6000611b3584828501611afc565b91505092915050565b7f596f7520617265206e6f7420746865206f776e6572206f662074686973204e4660008201527f5400000000000000000000000000000000000000000000000000000000000000602082015250565b6000611b9a6021836118e3565b9150611ba582611b3e565b604082019050919050565b60006020820190508181036000830152611bc981611b8d565b9050919050565b600081519050611bdf81611745565b92915050565b600060208284031215611bfb57611bfa611448565b5b6000611c0984828501611bd0565b91505092915050565b7f596f75206d75737420617070726f7665207468697320636f6e7472616374207460008201527f6f207472616e7366657220796f7572204e465400000000000000000000000000602082015250565b6000611c6e6033836118e3565b9150611c7982611c12565b604082019050919050565b60006020820190508181036000830152611c9d81611c61565b9050919050565b7f5072696365206d7573742062652067726561746572207468616e203000000000600082015250565b6000611cda601c836118e3565b9150611ce582611ca4565b602082019050919050565b60006020820190508181036000830152611d0981611ccd565b9050919050565b7f54686973204e46542068617320616c7265616479206265656e206c6973746564600082015250565b6000611d466020836118e3565b9150611d5182611d10565b602082019050919050565b60006020820190508181036000830152611d7581611d39565b9050919050565b6000604082019050611d916000830185611695565b611d9e602083018461141e565b9392505050565b7f4f776e61626c653a206e6577206f776e657220697320746865207a65726f206160008201527f6464726573730000000000000000000000000000000000000000000000000000602082015250565b6000611e016026836118e3565b9150611e0c82611da5565b604082019050919050565b60006020820190508181036000830152611e3081611df4565b9050919050565b7f4f776e61626c653a2063616c6c6572206973206e6f7420746865206f776e6572600082015250565b6000611e6d6020836118e3565b9150611e7882611e37565b602082019050919050565b60006020820190508181036000830152611e9c81611e60565b905091905056fea2646970667358221220e6b809d92bcea8760acd653e80f02b1eec6eff3189cde2bc0824eec70b7b5f0664736f6c63430008120033",
  "linkReferences": {},
  "deployedLinkReferences": {}
}