{
  "_format": "hh-sol-artifact-1",
  "contractName": "CampaignPoolSwap",
  "sourceName": "contracts/poolSwap/CampaignPoolSwap.sol",
  "abi": [
    {
      "inputs": [],
      "stateMutability": "nonpayable",
      "type": "constructor"
    },
    {
      "anonymous": false,
      "inputs": [
        {
          "indexed": false,
          "internalType": "uint8",
          "name": "version",
          "type": "uint8"
        }
      ],
      "name": "Initialized",
      "type": "event"
    },
    {
      "anonymous": false,
      "inputs": [
        {
          "indexed": true,
          "internalType": "address",
          "name": "previousOwner",
          "type": "address"
        },
        {
          "indexed": true,
          "internalType": "address",
          "name": "newOwner",
          "type": "address"
        }
      ],
      "name": "OwnershipTransferred",
      "type": "event"
    },
    {
      "inputs": [
        {
          "internalType": "address",
          "name": "_token",
          "type": "address"
        },
        {
          "internalType": "uint256",
          "name": "_amount",
          "type": "uint256"
        }
      ],
      "name": "addPool",
      "outputs": [],
      "stateMutability": "nonpayable",
      "type": "function"
    },
    {
      "inputs": [],
      "name": "getReserves",
      "outputs": [
        {
          "internalType": "uint256",
          "name": "",
          "type": "uint256"
        },
        {
          "internalType": "uint256",
          "name": "",
          "type": "uint256"
        }
      ],
      "stateMutability": "view",
      "type": "function"
    },
    {
      "inputs": [
        {
          "internalType": "address",
          "name": "_token0",
          "type": "address"
        },
        {
          "internalType": "address",
          "name": "_token1",
          "type": "address"
        },
        {
          "internalType": "uint256",
          "name": "_swapFee",
          "type": "uint256"
        },
        {
          "internalType": "uint256",
          "name": "_ratio",
          "type": "uint256"
        }
      ],
      "name": "initialize",
      "outputs": [],
      "stateMutability": "nonpayable",
      "type": "function"
    },
    {
      "inputs": [],
      "name": "owner",
      "outputs": [
        {
          "internalType": "address",
          "name": "",
          "type": "address"
        }
      ],
      "stateMutability": "view",
      "type": "function"
    },
    {
      "inputs": [],
      "name": "ratio",
      "outputs": [
        {
          "internalType": "uint256",
          "name": "",
          "type": "uint256"
        }
      ],
      "stateMutability": "view",
      "type": "function"
    },
    {
      "inputs": [],
      "name": "renounceOwnership",
      "outputs": [],
      "stateMutability": "nonpayable",
      "type": "function"
    },
    {
      "inputs": [
        {
          "internalType": "address",
          "name": "_from",
          "type": "address"
        },
        {
          "internalType": "address",
          "name": "_to",
          "type": "address"
        },
        {
          "internalType": "uint256",
          "name": "_amount",
          "type": "uint256"
        }
      ],
      "name": "swap",
      "outputs": [],
      "stateMutability": "nonpayable",
      "type": "function"
    },
    {
      "inputs": [],
      "name": "swapFee",
      "outputs": [
        {
          "internalType": "uint256",
          "name": "",
          "type": "uint256"
        }
      ],
      "stateMutability": "view",
      "type": "function"
    },
    {
      "inputs": [],
      "name": "token0",
      "outputs": [
        {
          "internalType": "contract ERC20",
          "name": "",
          "type": "address"
        }
      ],
      "stateMutability": "view",
      "type": "function"
    },
    {
      "inputs": [],
      "name": "token1",
      "outputs": [
        {
          "internalType": "contract ERC20",
          "name": "",
          "type": "address"
        }
      ],
      "stateMutability": "view",
      "type": "function"
    },
    {
      "inputs": [
        {
          "internalType": "address",
          "name": "newOwner",
          "type": "address"
        }
      ],
      "name": "transferOwnership",
      "outputs": [],
      "stateMutability": "nonpayable",
      "type": "function"
    }
  ],
  "bytecode": "0x608060405234801561001057600080fd5b50611a5f806100206000396000f3fe608060405234801561001057600080fd5b50600436106100a95760003560e01c806371ca337d1161007157806371ca337d1461012f5780638da5cb5b1461014d578063d21220a71461016b578063df791e5014610189578063eb990c59146101a5578063f2fde38b146101c1576100a9565b80630902f1ac146100ae5780630dfe1681146100cd57806332a9caba146100eb57806354cf2aeb14610107578063715018a614610125575b600080fd5b6100b66101dd565b6040516100c49291906112a3565b60405180910390f35b6100d5610320565b6040516100e2919061134b565b60405180910390f35b610105600480360381019061010091906113d5565b610346565b005b61010f6105d3565b60405161011c9190611415565b60405180910390f35b61012d6105d9565b005b6101376105ed565b6040516101449190611415565b60405180910390f35b6101556105f3565b604051610162919061143f565b60405180910390f35b61017361061d565b604051610180919061134b565b60405180910390f35b6101a3600480360381019061019e919061145a565b610643565b005b6101bf60048036038101906101ba91906114ad565b610ece565b005b6101db60048036038101906101d69190611514565b611098565b005b600080606560009054906101000a900473ffffffffffffffffffffffffffffffffffffffff1673ffffffffffffffffffffffffffffffffffffffff166370a08231306040518263ffffffff1660e01b815260040161023b919061143f565b602060405180830381865afa158015610258573d6000803e3d6000fd5b505050506040513d601f19601f8201168201806040525081019061027c9190611556565b606660009054906101000a900473ffffffffffffffffffffffffffffffffffffffff1673ffffffffffffffffffffffffffffffffffffffff166370a08231306040518263ffffffff1660e01b81526004016102d7919061143f565b602060405180830381865afa1580156102f4573d6000803e3d6000fd5b505050506040513d601f19601f820116820180604052508101906103189190611556565b915091509091565b606560009054906101000a900473ffffffffffffffffffffffffffffffffffffffff1681565b606560009054906101000a900473ffffffffffffffffffffffffffffffffffffffff1673ffffffffffffffffffffffffffffffffffffffff168273ffffffffffffffffffffffffffffffffffffffff1614806103ef5750606660009054906101000a900473ffffffffffffffffffffffffffffffffffffffff1673ffffffffffffffffffffffffffffffffffffffff168273ffffffffffffffffffffffffffffffffffffffff16145b61042e576040517f08c379a0000000000000000000000000000000000000000000000000000000008152600401610425906115e0565b60405180910390fd5b606560009054906101000a900473ffffffffffffffffffffffffffffffffffffffff1673ffffffffffffffffffffffffffffffffffffffff168273ffffffffffffffffffffffffffffffffffffffff160361052b57606560009054906101000a900473ffffffffffffffffffffffffffffffffffffffff1673ffffffffffffffffffffffffffffffffffffffff166323b872dd3330846040518463ffffffff1660e01b81526004016104e293929190611600565b6020604051808303816000875af1158015610501573d6000803e3d6000fd5b505050506040513d601f19601f82011682018060405250810190610525919061166f565b506105cf565b606660009054906101000a900473ffffffffffffffffffffffffffffffffffffffff1673ffffffffffffffffffffffffffffffffffffffff166323b872dd3330846040518463ffffffff1660e01b815260040161058a93929190611600565b6020604051808303816000875af11580156105a9573d6000803e3d6000fd5b505050506040513d601f19601f820116820180604052508101906105cd919061166f565b505b5050565b60675481565b6105e161111b565b6105eb6000611199565b565b60685481565b6000603360009054906101000a900473ffffffffffffffffffffffffffffffffffffffff16905090565b606660009054906101000a900473ffffffffffffffffffffffffffffffffffffffff1681565b606560009054906101000a900473ffffffffffffffffffffffffffffffffffffffff1673ffffffffffffffffffffffffffffffffffffffff168373ffffffffffffffffffffffffffffffffffffffff1614806106ec5750606660009054906101000a900473ffffffffffffffffffffffffffffffffffffffff1673ffffffffffffffffffffffffffffffffffffffff168373ffffffffffffffffffffffffffffffffffffffff16145b61072b576040517f08c379a0000000000000000000000000000000000000000000000000000000008152600401610722906115e0565b60405180910390fd5b606560009054906101000a900473ffffffffffffffffffffffffffffffffffffffff1673ffffffffffffffffffffffffffffffffffffffff168273ffffffffffffffffffffffffffffffffffffffff1614806107d45750606660009054906101000a900473ffffffffffffffffffffffffffffffffffffffff1673ffffffffffffffffffffffffffffffffffffffff168273ffffffffffffffffffffffffffffffffffffffff16145b610813576040517f08c379a000000000000000000000000000000000000000000000000000000000815260040161080a906115e0565b60405180910390fd5b600080606560009054906101000a900473ffffffffffffffffffffffffffffffffffffffff1673ffffffffffffffffffffffffffffffffffffffff168573ffffffffffffffffffffffffffffffffffffffff160361089157829150620186a06068548461088091906116cb565b61088a919061173c565b90506108b3565b606854620186a0846108a391906116cb565b6108ad919061173c565b91508290505b6000606560009054906101000a900473ffffffffffffffffffffffffffffffffffffffff1673ffffffffffffffffffffffffffffffffffffffff166370a08231306040518263ffffffff1660e01b8152600401610910919061143f565b602060405180830381865afa15801561092d573d6000803e3d6000fd5b505050506040513d601f19601f820116820180604052508101906109519190611556565b90506000606660009054906101000a900473ffffffffffffffffffffffffffffffffffffffff1673ffffffffffffffffffffffffffffffffffffffff166370a08231306040518263ffffffff1660e01b81526004016109b0919061143f565b602060405180830381865afa1580156109cd573d6000803e3d6000fd5b505050506040513d601f19601f820116820180604052508101906109f19190611556565b9050818411158015610a035750808311155b610a42576040517f08c379a0000000000000000000000000000000000000000000000000000000008152600401610a39906117b9565b60405180910390fd5b606560009054906101000a900473ffffffffffffffffffffffffffffffffffffffff1673ffffffffffffffffffffffffffffffffffffffff168773ffffffffffffffffffffffffffffffffffffffff1603610cb0576000620186a060675486610aab91906116cb565b610ab5919061173c565b9050606560009054906101000a900473ffffffffffffffffffffffffffffffffffffffff1673ffffffffffffffffffffffffffffffffffffffff166323b872dd3330846040518463ffffffff1660e01b8152600401610b1693929190611600565b6020604051808303816000875af1158015610b35573d6000803e3d6000fd5b505050506040513d601f19601f82011682018060405250810190610b59919061166f565b508085610b6691906117d9565b9450606560009054906101000a900473ffffffffffffffffffffffffffffffffffffffff1673ffffffffffffffffffffffffffffffffffffffff1663a9059cbb30876040518363ffffffff1660e01b8152600401610bc592919061180d565b6020604051808303816000875af1158015610be4573d6000803e3d6000fd5b505050506040513d601f19601f82011682018060405250810190610c08919061166f565b50606660009054906101000a900473ffffffffffffffffffffffffffffffffffffffff1673ffffffffffffffffffffffffffffffffffffffff1663a9059cbb33866040518363ffffffff1660e01b8152600401610c6692919061180d565b6020604051808303816000875af1158015610c85573d6000803e3d6000fd5b505050506040513d601f19601f82011682018060405250810190610ca9919061166f565b5050610ec5565b6000620186a060675486610cc491906116cb565b610cce919061173c565b9050606560009054906101000a900473ffffffffffffffffffffffffffffffffffffffff1673ffffffffffffffffffffffffffffffffffffffff166323b872dd3330846040518463ffffffff1660e01b8152600401610d2f93929190611600565b6020604051808303816000875af1158015610d4e573d6000803e3d6000fd5b505050506040513d601f19601f82011682018060405250810190610d72919061166f565b508085610d7f91906117d9565b9450606560009054906101000a900473ffffffffffffffffffffffffffffffffffffffff1673ffffffffffffffffffffffffffffffffffffffff1663a9059cbb33876040518363ffffffff1660e01b8152600401610dde92919061180d565b6020604051808303816000875af1158015610dfd573d6000803e3d6000fd5b505050506040513d601f19601f82011682018060405250810190610e21919061166f565b50606660009054906101000a900473ffffffffffffffffffffffffffffffffffffffff1673ffffffffffffffffffffffffffffffffffffffff1663a9059cbb30866040518363ffffffff1660e01b8152600401610e7f92919061180d565b6020604051808303816000875af1158015610e9e573d6000803e3d6000fd5b505050506040513d601f19601f82011682018060405250810190610ec2919061166f565b50505b50505050505050565b60008060019054906101000a900460ff16159050808015610eff5750600160008054906101000a900460ff1660ff16105b80610f2c5750610f0e3061125f565b158015610f2b5750600160008054906101000a900460ff1660ff16145b5b610f6b576040517f08c379a0000000000000000000000000000000000000000000000000000000008152600401610f62906118a8565b60405180910390fd5b60016000806101000a81548160ff021916908360ff1602179055508015610fa8576001600060016101000a81548160ff0219169083151502179055505b84606560006101000a81548173ffffffffffffffffffffffffffffffffffffffff021916908373ffffffffffffffffffffffffffffffffffffffff16021790555083606660006101000a81548173ffffffffffffffffffffffffffffffffffffffff021916908373ffffffffffffffffffffffffffffffffffffffff160217905550826067819055508160688190555080156110915760008060016101000a81548160ff0219169083151502179055507f7f26b83ff96e1f2b6a682f133852f6798a09c465da95921460cefb384740249860016040516110889190611910565b60405180910390a15b5050505050565b6110a061111b565b600073ffffffffffffffffffffffffffffffffffffffff168173ffffffffffffffffffffffffffffffffffffffff160361110f576040517f08c379a00000000000000000000000000000000000000000000000000000000081526004016111069061199d565b60405180910390fd5b61111881611199565b50565b611123611282565b73ffffffffffffffffffffffffffffffffffffffff166111416105f3565b73ffffffffffffffffffffffffffffffffffffffff1614611197576040517f08c379a000000000000000000000000000000000000000000000000000000000815260040161118e90611a09565b60405180910390fd5b565b6000603360009054906101000a900473ffffffffffffffffffffffffffffffffffffffff16905081603360006101000a81548173ffffffffffffffffffffffffffffffffffffffff021916908373ffffffffffffffffffffffffffffffffffffffff1602179055508173ffffffffffffffffffffffffffffffffffffffff168173ffffffffffffffffffffffffffffffffffffffff167f8be0079c531659141344cd1fd0a4f28419497f9722a3daafe3b4186f6b6457e060405160405180910390a35050565b6000808273ffffffffffffffffffffffffffffffffffffffff163b119050919050565b600033905090565b6000819050919050565b61129d8161128a565b82525050565b60006040820190506112b86000830185611294565b6112c56020830184611294565b9392505050565b600073ffffffffffffffffffffffffffffffffffffffff82169050919050565b6000819050919050565b600061131161130c611307846112cc565b6112ec565b6112cc565b9050919050565b6000611323826112f6565b9050919050565b600061133582611318565b9050919050565b6113458161132a565b82525050565b6000602082019050611360600083018461133c565b92915050565b600080fd5b6000611376826112cc565b9050919050565b6113868161136b565b811461139157600080fd5b50565b6000813590506113a38161137d565b92915050565b6113b28161128a565b81146113bd57600080fd5b50565b6000813590506113cf816113a9565b92915050565b600080604083850312156113ec576113eb611366565b5b60006113fa85828601611394565b925050602061140b858286016113c0565b9150509250929050565b600060208201905061142a6000830184611294565b92915050565b6114398161136b565b82525050565b60006020820190506114546000830184611430565b92915050565b60008060006060848603121561147357611472611366565b5b600061148186828701611394565b935050602061149286828701611394565b92505060406114a3868287016113c0565b9150509250925092565b600080600080608085870312156114c7576114c6611366565b5b60006114d587828801611394565b94505060206114e687828801611394565b93505060406114f7878288016113c0565b9250506060611508878288016113c0565b91505092959194509250565b60006020828403121561152a57611529611366565b5b600061153884828501611394565b91505092915050565b600081519050611550816113a9565b92915050565b60006020828403121561156c5761156b611366565b5b600061157a84828501611541565b91505092915050565b600082825260208201905092915050565b7f496e76616c696420746f6b656e00000000000000000000000000000000000000600082015250565b60006115ca600d83611583565b91506115d582611594565b602082019050919050565b600060208201905081810360008301526115f9816115bd565b9050919050565b60006060820190506116156000830186611430565b6116226020830185611430565b61162f6040830184611294565b949350505050565b60008115159050919050565b61164c81611637565b811461165757600080fd5b50565b60008151905061166981611643565b92915050565b60006020828403121561168557611684611366565b5b60006116938482850161165a565b91505092915050565b7f4e487b7100000000000000000000000000000000000000000000000000000000600052601160045260246000fd5b60006116d68261128a565b91506116e18361128a565b92508282026116ef8161128a565b915082820484148315176117065761170561169c565b5b5092915050565b7f4e487b7100000000000000000000000000000000000000000000000000000000600052601260045260246000fd5b60006117478261128a565b91506117528361128a565b9250826117625761176161170d565b5b828204905092915050565b7f496e73756666696369656e742062616c616e6365000000000000000000000000600082015250565b60006117a3601483611583565b91506117ae8261176d565b602082019050919050565b600060208201905081810360008301526117d281611796565b9050919050565b60006117e48261128a565b91506117ef8361128a565b92508282039050818111156118075761180661169c565b5b92915050565b60006040820190506118226000830185611430565b61182f6020830184611294565b9392505050565b7f496e697469616c697a61626c653a20636f6e747261637420697320616c72656160008201527f647920696e697469616c697a6564000000000000000000000000000000000000602082015250565b6000611892602e83611583565b915061189d82611836565b604082019050919050565b600060208201905081810360008301526118c181611885565b9050919050565b6000819050919050565b600060ff82169050919050565b60006118fa6118f56118f0846118c8565b6112ec565b6118d2565b9050919050565b61190a816118df565b82525050565b60006020820190506119256000830184611901565b92915050565b7f4f776e61626c653a206e6577206f776e657220697320746865207a65726f206160008201527f6464726573730000000000000000000000000000000000000000000000000000602082015250565b6000611987602683611583565b91506119928261192b565b604082019050919050565b600060208201905081810360008301526119b68161197a565b9050919050565b7f4f776e61626c653a2063616c6c6572206973206e6f7420746865206f776e6572600082015250565b60006119f3602083611583565b91506119fe826119bd565b602082019050919050565b60006020820190508181036000830152611a22816119e6565b905091905056fea26469706673582212202412144f306e65297010bfe557f1b181c294f0ae9a938a0c5796cf0b707f3d0964736f6c63430008120033",
  "linkReferences": {},
  "deployedLinkReferences": {}
}