{
  "_format": "hh-sol-artifact-1",
  "contractName": "CampaignPoolSwap",
  "sourceName": "contracts/poolSwap/CampaignPoolSwap.sol",
  "abi": [
    {
      "inputs": [],
      "stateMutability": "nonpayable",
      "type": "constructor"
    },
    {
      "anonymous": false,
      "inputs": [
        {
          "indexed": false,
          "internalType": "uint8",
          "name": "version",
          "type": "uint8"
        }
      ],
      "name": "Initialized",
      "type": "event"
    },
    {
      "anonymous": false,
      "inputs": [
        {
          "indexed": true,
          "internalType": "address",
          "name": "previousOwner",
          "type": "address"
        },
        {
          "indexed": true,
          "internalType": "address",
          "name": "newOwner",
          "type": "address"
        }
      ],
      "name": "OwnershipTransferred",
      "type": "event"
    },
    {
      "inputs": [
        {
          "internalType": "address",
          "name": "_tokenUSDT",
          "type": "address"
        },
        {
          "internalType": "uint256",
          "name": "_amount",
          "type": "uint256"
        }
      ],
      "name": "FramPool",
      "outputs": [],
      "stateMutability": "nonpayable",
      "type": "function"
    },
    {
      "inputs": [
        {
          "internalType": "address",
          "name": "_token1",
          "type": "address"
        },
        {
          "internalType": "uint256",
          "name": "_amount",
          "type": "uint256"
        }
      ],
      "name": "addPoolToken",
      "outputs": [],
      "stateMutability": "nonpayable",
      "type": "function"
    },
    {
      "inputs": [
        {
          "internalType": "address",
          "name": "",
          "type": "address"
        }
      ],
      "name": "balancesAddPool",
      "outputs": [
        {
          "internalType": "uint256",
          "name": "",
          "type": "uint256"
        }
      ],
      "stateMutability": "view",
      "type": "function"
    },
    {
      "inputs": [],
      "name": "getReserves",
      "outputs": [
        {
          "internalType": "uint256",
          "name": "",
          "type": "uint256"
        },
        {
          "internalType": "uint256",
          "name": "",
          "type": "uint256"
        }
      ],
      "stateMutability": "view",
      "type": "function"
    },
    {
      "inputs": [
        {
          "internalType": "address",
          "name": "_usdtToken",
          "type": "address"
        },
        {
          "internalType": "address",
          "name": "_token1",
          "type": "address"
        },
        {
          "internalType": "uint256",
          "name": "_swapFee",
          "type": "uint256"
        },
        {
          "internalType": "uint256",
          "name": "_ratio",
          "type": "uint256"
        }
      ],
      "name": "initialize",
      "outputs": [],
      "stateMutability": "nonpayable",
      "type": "function"
    },
    {
      "inputs": [],
      "name": "owner",
      "outputs": [
        {
          "internalType": "address",
          "name": "",
          "type": "address"
        }
      ],
      "stateMutability": "view",
      "type": "function"
    },
    {
      "inputs": [
        {
          "internalType": "address",
          "name": "",
          "type": "address"
        }
      ],
      "name": "poolFees",
      "outputs": [
        {
          "internalType": "uint256",
          "name": "",
          "type": "uint256"
        }
      ],
      "stateMutability": "view",
      "type": "function"
    },
    {
      "inputs": [],
      "name": "poolToken1",
      "outputs": [
        {
          "internalType": "uint256",
          "name": "",
          "type": "uint256"
        }
      ],
      "stateMutability": "view",
      "type": "function"
    },
    {
      "inputs": [],
      "name": "poolusdtToken",
      "outputs": [
        {
          "internalType": "uint256",
          "name": "",
          "type": "uint256"
        }
      ],
      "stateMutability": "view",
      "type": "function"
    },
    {
      "inputs": [],
      "name": "ratio",
      "outputs": [
        {
          "internalType": "uint256",
          "name": "",
          "type": "uint256"
        }
      ],
      "stateMutability": "view",
      "type": "function"
    },
    {
      "inputs": [],
      "name": "renounceOwnership",
      "outputs": [],
      "stateMutability": "nonpayable",
      "type": "function"
    },
    {
      "inputs": [
        {
          "internalType": "address",
          "name": "_from",
          "type": "address"
        },
        {
          "internalType": "address",
          "name": "_to",
          "type": "address"
        },
        {
          "internalType": "uint256",
          "name": "_amount",
          "type": "uint256"
        }
      ],
      "name": "swap",
      "outputs": [],
      "stateMutability": "nonpayable",
      "type": "function"
    },
    {
      "inputs": [],
      "name": "swapFee",
      "outputs": [
        {
          "internalType": "uint256",
          "name": "",
          "type": "uint256"
        }
      ],
      "stateMutability": "view",
      "type": "function"
    },
    {
      "inputs": [],
      "name": "token1",
      "outputs": [
        {
          "internalType": "contract ERC20",
          "name": "",
          "type": "address"
        }
      ],
      "stateMutability": "view",
      "type": "function"
    },
    {
      "inputs": [
        {
          "internalType": "address",
          "name": "newOwner",
          "type": "address"
        }
      ],
      "name": "transferOwnership",
      "outputs": [],
      "stateMutability": "nonpayable",
      "type": "function"
    },
    {
      "inputs": [],
      "name": "usdtToken",
      "outputs": [
        {
          "internalType": "contract ERC20",
          "name": "",
          "type": "address"
        }
      ],
      "stateMutability": "view",
      "type": "function"
    },
    {
      "inputs": [],
      "name": "withdrawPool",
      "outputs": [],
      "stateMutability": "nonpayable",
      "type": "function"
    }
  ],
  "bytecode": "0x608060405234801561001057600080fd5b50612094806100206000396000f3fe608060405234801561001057600080fd5b506004361061010b5760003560e01c806386c7b225116100a2578063be6e916111610071578063be6e91611461025f578063d21220a71461028f578063df791e50146102ad578063eb990c59146102c9578063f2fde38b146102e55761010b565b806386c7b225146101e95780638da5cb5b146102075780639a53638914610225578063a98ad46c146102415761010b565b80635c42c733116100de5780635c42c733146101875780636990102314610191578063715018a6146101c157806371ca337d146101cb5761010b565b80630902f1ac1461011057806322142a921461012f5780634758af8a1461014b57806354cf2aeb14610169575b600080fd5b610118610301565b6040516101269291906117a6565b60405180910390f35b6101496004803603810190610144919061185e565b610444565b005b6101536105d1565b604051610160919061189e565b60405180910390f35b6101716105d7565b60405161017e919061189e565b60405180910390f35b61018f6105dd565b005b6101ab60048036038101906101a691906118b9565b610805565b6040516101b8919061189e565b60405180910390f35b6101c961081d565b005b6101d3610831565b6040516101e0919061189e565b60405180910390f35b6101f1610837565b6040516101fe919061189e565b60405180910390f35b61020f61083d565b60405161021c91906118f5565b60405180910390f35b61023f600480360381019061023a919061185e565b610867565b005b6102496109fc565b604051610256919061196f565b60405180910390f35b610279600480360381019061027491906118b9565b610a22565b604051610286919061189e565b60405180910390f35b610297610a3a565b6040516102a4919061196f565b60405180910390f35b6102c760048036038101906102c2919061198a565b610a60565b005b6102e360048036038101906102de91906119dd565b6112eb565b005b6102ff60048036038101906102fa91906118b9565b6114bd565b005b600080606560009054906101000a900473ffffffffffffffffffffffffffffffffffffffff1673ffffffffffffffffffffffffffffffffffffffff166370a08231306040518263ffffffff1660e01b815260040161035f91906118f5565b602060405180830381865afa15801561037c573d6000803e3d6000fd5b505050506040513d601f19601f820116820180604052508101906103a09190611a59565b606660009054906101000a900473ffffffffffffffffffffffffffffffffffffffff1673ffffffffffffffffffffffffffffffffffffffff166370a08231306040518263ffffffff1660e01b81526004016103fb91906118f5565b602060405180830381865afa158015610418573d6000803e3d6000fd5b505050506040513d601f19601f8201168201806040525081019061043c9190611a59565b915091509091565b606560009054906101000a900473ffffffffffffffffffffffffffffffffffffffff1673ffffffffffffffffffffffffffffffffffffffff168273ffffffffffffffffffffffffffffffffffffffff16146104d4576040517f08c379a00000000000000000000000000000000000000000000000000000000081526004016104cb90611ae3565b60405180910390fd5b606560009054906101000a900473ffffffffffffffffffffffffffffffffffffffff1673ffffffffffffffffffffffffffffffffffffffff166323b872dd3330846040518463ffffffff1660e01b815260040161053393929190611b03565b6020604051808303816000875af1158015610552573d6000803e3d6000fd5b505050506040513d601f19601f820116820180604052508101906105769190611b72565b5080606960003373ffffffffffffffffffffffffffffffffffffffff1673ffffffffffffffffffffffffffffffffffffffff16815260200190815260200160002060008282546105c69190611bce565b925050819055505050565b606b5481565b60675481565b6000606960003373ffffffffffffffffffffffffffffffffffffffff1673ffffffffffffffffffffffffffffffffffffffff16815260200190815260200160002054905060008111610664576040517f08c379a000000000000000000000000000000000000000000000000000000000815260040161065b90611c4e565b60405180910390fd5b600061066e611540565b9050600081606c60003373ffffffffffffffffffffffffffffffffffffffff1673ffffffffffffffffffffffffffffffffffffffff16815260200190815260200160002054846106be9190611c6e565b6106c89190611cdf565b90506000606c60003373ffffffffffffffffffffffffffffffffffffffff1673ffffffffffffffffffffffffffffffffffffffff168152602001908152602001600020819055506000606960003373ffffffffffffffffffffffffffffffffffffffff1673ffffffffffffffffffffffffffffffffffffffff16815260200190815260200160002081905550606560009054906101000a900473ffffffffffffffffffffffffffffffffffffffff1673ffffffffffffffffffffffffffffffffffffffff1663a9059cbb33838661079f9190611bce565b6040518363ffffffff1660e01b81526004016107bc929190611d10565b6020604051808303816000875af11580156107db573d6000803e3d6000fd5b505050506040513d601f19601f820116820180604052508101906107ff9190611b72565b50505050565b60696020528060005260406000206000915090505481565b610825611564565b61082f60006115e2565b565b60685481565b606a5481565b6000603360009054906101000a900473ffffffffffffffffffffffffffffffffffffffff16905090565b61086f611564565b606660009054906101000a900473ffffffffffffffffffffffffffffffffffffffff1673ffffffffffffffffffffffffffffffffffffffff168273ffffffffffffffffffffffffffffffffffffffff16146108ff576040517f08c379a00000000000000000000000000000000000000000000000000000000081526004016108f690611ae3565b60405180910390fd5b606660009054906101000a900473ffffffffffffffffffffffffffffffffffffffff1673ffffffffffffffffffffffffffffffffffffffff166323b872dd3330846040518463ffffffff1660e01b815260040161095e93929190611b03565b6020604051808303816000875af115801561097d573d6000803e3d6000fd5b505050506040513d601f19601f820116820180604052508101906109a19190611b72565b5080606960003373ffffffffffffffffffffffffffffffffffffffff1673ffffffffffffffffffffffffffffffffffffffff16815260200190815260200160002060008282546109f19190611bce565b925050819055505050565b606560009054906101000a900473ffffffffffffffffffffffffffffffffffffffff1681565b606c6020528060005260406000206000915090505481565b606660009054906101000a900473ffffffffffffffffffffffffffffffffffffffff1681565b606560009054906101000a900473ffffffffffffffffffffffffffffffffffffffff1673ffffffffffffffffffffffffffffffffffffffff168373ffffffffffffffffffffffffffffffffffffffff161480610b095750606660009054906101000a900473ffffffffffffffffffffffffffffffffffffffff1673ffffffffffffffffffffffffffffffffffffffff168373ffffffffffffffffffffffffffffffffffffffff16145b610b48576040517f08c379a0000000000000000000000000000000000000000000000000000000008152600401610b3f90611ae3565b60405180910390fd5b606560009054906101000a900473ffffffffffffffffffffffffffffffffffffffff1673ffffffffffffffffffffffffffffffffffffffff168273ffffffffffffffffffffffffffffffffffffffff161480610bf15750606660009054906101000a900473ffffffffffffffffffffffffffffffffffffffff1673ffffffffffffffffffffffffffffffffffffffff168273ffffffffffffffffffffffffffffffffffffffff16145b610c30576040517f08c379a0000000000000000000000000000000000000000000000000000000008152600401610c2790611ae3565b60405180910390fd5b600080606560009054906101000a900473ffffffffffffffffffffffffffffffffffffffff1673ffffffffffffffffffffffffffffffffffffffff168573ffffffffffffffffffffffffffffffffffffffff1603610cae57829150620186a060685484610c9d9190611c6e565b610ca79190611cdf565b9050610cd0565b606854620186a084610cc09190611c6e565b610cca9190611cdf565b91508290505b6000606560009054906101000a900473ffffffffffffffffffffffffffffffffffffffff1673ffffffffffffffffffffffffffffffffffffffff166370a08231306040518263ffffffff1660e01b8152600401610d2d91906118f5565b602060405180830381865afa158015610d4a573d6000803e3d6000fd5b505050506040513d601f19601f82011682018060405250810190610d6e9190611a59565b90506000606660009054906101000a900473ffffffffffffffffffffffffffffffffffffffff1673ffffffffffffffffffffffffffffffffffffffff166370a08231306040518263ffffffff1660e01b8152600401610dcd91906118f5565b602060405180830381865afa158015610dea573d6000803e3d6000fd5b505050506040513d601f19601f82011682018060405250810190610e0e9190611a59565b9050818411158015610e205750808311155b610e5f576040517f08c379a0000000000000000000000000000000000000000000000000000000008152600401610e5690611d85565b60405180910390fd5b606560009054906101000a900473ffffffffffffffffffffffffffffffffffffffff1673ffffffffffffffffffffffffffffffffffffffff168773ffffffffffffffffffffffffffffffffffffffff16036110cd576000620186a060675486610ec89190611c6e565b610ed29190611cdf565b9050606560009054906101000a900473ffffffffffffffffffffffffffffffffffffffff1673ffffffffffffffffffffffffffffffffffffffff166323b872dd3330846040518463ffffffff1660e01b8152600401610f3393929190611b03565b6020604051808303816000875af1158015610f52573d6000803e3d6000fd5b505050506040513d601f19601f82011682018060405250810190610f769190611b72565b508085610f839190611da5565b9450606560009054906101000a900473ffffffffffffffffffffffffffffffffffffffff1673ffffffffffffffffffffffffffffffffffffffff1663a9059cbb30876040518363ffffffff1660e01b8152600401610fe2929190611d10565b6020604051808303816000875af1158015611001573d6000803e3d6000fd5b505050506040513d601f19601f820116820180604052508101906110259190611b72565b50606660009054906101000a900473ffffffffffffffffffffffffffffffffffffffff1673ffffffffffffffffffffffffffffffffffffffff1663a9059cbb33866040518363ffffffff1660e01b8152600401611083929190611d10565b6020604051808303816000875af11580156110a2573d6000803e3d6000fd5b505050506040513d601f19601f820116820180604052508101906110c69190611b72565b50506112e2565b6000620186a0606754866110e19190611c6e565b6110eb9190611cdf565b9050606560009054906101000a900473ffffffffffffffffffffffffffffffffffffffff1673ffffffffffffffffffffffffffffffffffffffff166323b872dd3330846040518463ffffffff1660e01b815260040161114c93929190611b03565b6020604051808303816000875af115801561116b573d6000803e3d6000fd5b505050506040513d601f19601f8201168201806040525081019061118f9190611b72565b50808561119c9190611da5565b9450606560009054906101000a900473ffffffffffffffffffffffffffffffffffffffff1673ffffffffffffffffffffffffffffffffffffffff1663a9059cbb33876040518363ffffffff1660e01b81526004016111fb929190611d10565b6020604051808303816000875af115801561121a573d6000803e3d6000fd5b505050506040513d601f19601f8201168201806040525081019061123e9190611b72565b50606660009054906101000a900473ffffffffffffffffffffffffffffffffffffffff1673ffffffffffffffffffffffffffffffffffffffff1663a9059cbb30866040518363ffffffff1660e01b815260040161129c929190611d10565b6020604051808303816000875af11580156112bb573d6000803e3d6000fd5b505050506040513d601f19601f820116820180604052508101906112df9190611b72565b50505b50505050505050565b60008060019054906101000a900460ff1615905080801561131c5750600160008054906101000a900460ff1660ff16105b80611349575061132b306116a8565b1580156113485750600160008054906101000a900460ff1660ff16145b5b611388576040517f08c379a000000000000000000000000000000000000000000000000000000000815260040161137f90611e4b565b60405180910390fd5b60016000806101000a81548160ff021916908360ff16021790555080156113c5576001600060016101000a81548160ff0219169083151502179055505b84606560006101000a81548173ffffffffffffffffffffffffffffffffffffffff021916908373ffffffffffffffffffffffffffffffffffffffff16021790555083606660006101000a81548173ffffffffffffffffffffffffffffffffffffffff021916908373ffffffffffffffffffffffffffffffffffffffff160217905550826067819055508160688190555061145d6116cb565b80156114b65760008060016101000a81548160ff0219169083151502179055507f7f26b83ff96e1f2b6a682f133852f6798a09c465da95921460cefb384740249860016040516114ad9190611eb3565b60405180910390a15b5050505050565b6114c5611564565b600073ffffffffffffffffffffffffffffffffffffffff168173ffffffffffffffffffffffffffffffffffffffff1603611534576040517f08c379a000000000000000000000000000000000000000000000000000000000815260040161152b90611f40565b60405180910390fd5b61153d816115e2565b50565b600080600061154d610301565b91509150808261155d9190611bce565b9250505090565b61156c611724565b73ffffffffffffffffffffffffffffffffffffffff1661158a61083d565b73ffffffffffffffffffffffffffffffffffffffff16146115e0576040517f08c379a00000000000000000000000000000000000000000000000000000000081526004016115d790611fac565b60405180910390fd5b565b6000603360009054906101000a900473ffffffffffffffffffffffffffffffffffffffff16905081603360006101000a81548173ffffffffffffffffffffffffffffffffffffffff021916908373ffffffffffffffffffffffffffffffffffffffff1602179055508173ffffffffffffffffffffffffffffffffffffffff168173ffffffffffffffffffffffffffffffffffffffff167f8be0079c531659141344cd1fd0a4f28419497f9722a3daafe3b4186f6b6457e060405160405180910390a35050565b6000808273ffffffffffffffffffffffffffffffffffffffff163b119050919050565b600060019054906101000a900460ff1661171a576040517f08c379a00000000000000000000000000000000000000000000000000000000081526004016117119061203e565b60405180910390fd5b61172261172c565b565b600033905090565b600060019054906101000a900460ff1661177b576040517f08c379a00000000000000000000000000000000000000000000000000000000081526004016117729061203e565b60405180910390fd5b61178b611786611724565b6115e2565b565b6000819050919050565b6117a08161178d565b82525050565b60006040820190506117bb6000830185611797565b6117c86020830184611797565b9392505050565b600080fd5b600073ffffffffffffffffffffffffffffffffffffffff82169050919050565b60006117ff826117d4565b9050919050565b61180f816117f4565b811461181a57600080fd5b50565b60008135905061182c81611806565b92915050565b61183b8161178d565b811461184657600080fd5b50565b60008135905061185881611832565b92915050565b60008060408385031215611875576118746117cf565b5b60006118838582860161181d565b925050602061189485828601611849565b9150509250929050565b60006020820190506118b36000830184611797565b92915050565b6000602082840312156118cf576118ce6117cf565b5b60006118dd8482850161181d565b91505092915050565b6118ef816117f4565b82525050565b600060208201905061190a60008301846118e6565b92915050565b6000819050919050565b600061193561193061192b846117d4565b611910565b6117d4565b9050919050565b60006119478261191a565b9050919050565b60006119598261193c565b9050919050565b6119698161194e565b82525050565b60006020820190506119846000830184611960565b92915050565b6000806000606084860312156119a3576119a26117cf565b5b60006119b18682870161181d565b93505060206119c28682870161181d565b92505060406119d386828701611849565b9150509250925092565b600080600080608085870312156119f7576119f66117cf565b5b6000611a058782880161181d565b9450506020611a168782880161181d565b9350506040611a2787828801611849565b9250506060611a3887828801611849565b91505092959194509250565b600081519050611a5381611832565b92915050565b600060208284031215611a6f57611a6e6117cf565b5b6000611a7d84828501611a44565b91505092915050565b600082825260208201905092915050565b7f496e76616c696420746f6b656e00000000000000000000000000000000000000600082015250565b6000611acd600d83611a86565b9150611ad882611a97565b602082019050919050565b60006020820190508181036000830152611afc81611ac0565b9050919050565b6000606082019050611b1860008301866118e6565b611b2560208301856118e6565b611b326040830184611797565b949350505050565b60008115159050919050565b611b4f81611b3a565b8114611b5a57600080fd5b50565b600081519050611b6c81611b46565b92915050565b600060208284031215611b8857611b876117cf565b5b6000611b9684828501611b5d565b91505092915050565b7f4e487b7100000000000000000000000000000000000000000000000000000000600052601160045260246000fd5b6000611bd98261178d565b9150611be48361178d565b9250828201905080821115611bfc57611bfb611b9f565b5b92915050565b7f4e6f2062616c616e636520746f20776974686472617700000000000000000000600082015250565b6000611c38601683611a86565b9150611c4382611c02565b602082019050919050565b60006020820190508181036000830152611c6781611c2b565b9050919050565b6000611c798261178d565b9150611c848361178d565b9250828202611c928161178d565b91508282048414831517611ca957611ca8611b9f565b5b5092915050565b7f4e487b7100000000000000000000000000000000000000000000000000000000600052601260045260246000fd5b6000611cea8261178d565b9150611cf58361178d565b925082611d0557611d04611cb0565b5b828204905092915050565b6000604082019050611d2560008301856118e6565b611d326020830184611797565b9392505050565b7f496e73756666696369656e742062616c616e6365000000000000000000000000600082015250565b6000611d6f601483611a86565b9150611d7a82611d39565b602082019050919050565b60006020820190508181036000830152611d9e81611d62565b9050919050565b6000611db08261178d565b9150611dbb8361178d565b9250828203905081811115611dd357611dd2611b9f565b5b92915050565b7f496e697469616c697a61626c653a20636f6e747261637420697320616c72656160008201527f647920696e697469616c697a6564000000000000000000000000000000000000602082015250565b6000611e35602e83611a86565b9150611e4082611dd9565b604082019050919050565b60006020820190508181036000830152611e6481611e28565b9050919050565b6000819050919050565b600060ff82169050919050565b6000611e9d611e98611e9384611e6b565b611910565b611e75565b9050919050565b611ead81611e82565b82525050565b6000602082019050611ec86000830184611ea4565b92915050565b7f4f776e61626c653a206e6577206f776e657220697320746865207a65726f206160008201527f6464726573730000000000000000000000000000000000000000000000000000602082015250565b6000611f2a602683611a86565b9150611f3582611ece565b604082019050919050565b60006020820190508181036000830152611f5981611f1d565b9050919050565b7f4f776e61626c653a2063616c6c6572206973206e6f7420746865206f776e6572600082015250565b6000611f96602083611a86565b9150611fa182611f60565b602082019050919050565b60006020820190508181036000830152611fc581611f89565b9050919050565b7f496e697469616c697a61626c653a20636f6e7472616374206973206e6f74206960008201527f6e697469616c697a696e67000000000000000000000000000000000000000000602082015250565b6000612028602b83611a86565b915061203382611fcc565b604082019050919050565b600060208201905081810360008301526120578161201b565b905091905056fea26469706673582212205db59d6454db5249e27b3622703b02a6e9a3feeb98aae290572551b9ee9075e564736f6c63430008120033",
  "linkReferences": {},
  "deployedLinkReferences": {}
}