{
  "_format": "hh-sol-artifact-1",
  "contractName": "CampaignPoolSwap",
  "sourceName": "contracts/poolSwap/CampaignPoolSwap.sol",
  "abi": [
    {
      "inputs": [],
      "stateMutability": "nonpayable",
      "type": "constructor"
    },
    {
      "anonymous": false,
      "inputs": [
        {
          "indexed": false,
          "internalType": "uint8",
          "name": "version",
          "type": "uint8"
        }
      ],
      "name": "Initialized",
      "type": "event"
    },
    {
      "anonymous": false,
      "inputs": [
        {
          "indexed": true,
          "internalType": "address",
          "name": "previousOwner",
          "type": "address"
        },
        {
          "indexed": true,
          "internalType": "address",
          "name": "newOwner",
          "type": "address"
        }
      ],
      "name": "OwnershipTransferred",
      "type": "event"
    },
    {
      "inputs": [
        {
          "internalType": "address",
          "name": "_tokenUSDT",
          "type": "address"
        },
        {
          "internalType": "uint256",
          "name": "_amount",
          "type": "uint256"
        }
      ],
      "name": "FramPool",
      "outputs": [],
      "stateMutability": "nonpayable",
      "type": "function"
    },
    {
      "inputs": [
        {
          "internalType": "address",
          "name": "_token1",
          "type": "address"
        },
        {
          "internalType": "uint256",
          "name": "_amount",
          "type": "uint256"
        }
      ],
      "name": "addPoolToken",
      "outputs": [],
      "stateMutability": "nonpayable",
      "type": "function"
    },
    {
      "inputs": [
        {
          "internalType": "address",
          "name": "",
          "type": "address"
        }
      ],
      "name": "balancesAddPool",
      "outputs": [
        {
          "internalType": "uint256",
          "name": "",
          "type": "uint256"
        }
      ],
      "stateMutability": "view",
      "type": "function"
    },
    {
      "inputs": [],
      "name": "getBalancePool",
      "outputs": [
        {
          "internalType": "uint256",
          "name": "",
          "type": "uint256"
        }
      ],
      "stateMutability": "view",
      "type": "function"
    },
    {
      "inputs": [],
      "name": "getReserves",
      "outputs": [
        {
          "internalType": "uint256",
          "name": "",
          "type": "uint256"
        },
        {
          "internalType": "uint256",
          "name": "",
          "type": "uint256"
        }
      ],
      "stateMutability": "view",
      "type": "function"
    },
    {
      "inputs": [
        {
          "internalType": "address",
          "name": "_usdtToken",
          "type": "address"
        },
        {
          "internalType": "address",
          "name": "_token1",
          "type": "address"
        },
        {
          "internalType": "uint256",
          "name": "_swapFee",
          "type": "uint256"
        },
        {
          "internalType": "uint256",
          "name": "_ratio",
          "type": "uint256"
        }
      ],
      "name": "initialize",
      "outputs": [],
      "stateMutability": "nonpayable",
      "type": "function"
    },
    {
      "inputs": [],
      "name": "owner",
      "outputs": [
        {
          "internalType": "address",
          "name": "",
          "type": "address"
        }
      ],
      "stateMutability": "view",
      "type": "function"
    },
    {
      "inputs": [],
      "name": "poolToken1",
      "outputs": [
        {
          "internalType": "uint256",
          "name": "",
          "type": "uint256"
        }
      ],
      "stateMutability": "view",
      "type": "function"
    },
    {
      "inputs": [],
      "name": "poolusdtToken",
      "outputs": [
        {
          "internalType": "uint256",
          "name": "",
          "type": "uint256"
        }
      ],
      "stateMutability": "view",
      "type": "function"
    },
    {
      "inputs": [],
      "name": "ratio",
      "outputs": [
        {
          "internalType": "uint256",
          "name": "",
          "type": "uint256"
        }
      ],
      "stateMutability": "view",
      "type": "function"
    },
    {
      "inputs": [],
      "name": "renounceOwnership",
      "outputs": [],
      "stateMutability": "nonpayable",
      "type": "function"
    },
    {
      "inputs": [
        {
          "internalType": "address",
          "name": "_from",
          "type": "address"
        },
        {
          "internalType": "address",
          "name": "_to",
          "type": "address"
        },
        {
          "internalType": "uint256",
          "name": "_amount",
          "type": "uint256"
        }
      ],
      "name": "swap",
      "outputs": [],
      "stateMutability": "nonpayable",
      "type": "function"
    },
    {
      "inputs": [],
      "name": "swapFee",
      "outputs": [
        {
          "internalType": "uint256",
          "name": "",
          "type": "uint256"
        }
      ],
      "stateMutability": "view",
      "type": "function"
    },
    {
      "inputs": [],
      "name": "token1",
      "outputs": [
        {
          "internalType": "contract ERC20",
          "name": "",
          "type": "address"
        }
      ],
      "stateMutability": "view",
      "type": "function"
    },
    {
      "inputs": [
        {
          "internalType": "address",
          "name": "newOwner",
          "type": "address"
        }
      ],
      "name": "transferOwnership",
      "outputs": [],
      "stateMutability": "nonpayable",
      "type": "function"
    },
    {
      "inputs": [],
      "name": "usdtToken",
      "outputs": [
        {
          "internalType": "contract ERC20",
          "name": "",
          "type": "address"
        }
      ],
      "stateMutability": "view",
      "type": "function"
    },
    {
      "inputs": [],
      "name": "withdrawPool",
      "outputs": [],
      "stateMutability": "nonpayable",
      "type": "function"
    }
  ],
  "bytecode": "0x608060405234801561001057600080fd5b506121d3806100206000396000f3fe608060405234801561001057600080fd5b506004361061010b5760003560e01c806371ca337d116100a2578063a98ad46c11610071578063a98ad46c1461025f578063d21220a71461027d578063df791e501461029b578063eb990c59146102b7578063f2fde38b146102d35761010b565b806371ca337d146101e957806386c7b225146102075780638da5cb5b146102255780639a536389146102435761010b565b80635b0d2d8c116100de5780635b0d2d8c146101875780635c42c733146101a557806369901023146101af578063715018a6146101df5761010b565b80630902f1ac1461011057806322142a921461012f5780634758af8a1461014b57806354cf2aeb14610169575b600080fd5b6101186102ef565b6040516101269291906118e5565b60405180910390f35b6101496004803603810190610144919061199d565b610432565b005b6101536106b6565b60405161016091906119dd565b60405180910390f35b6101716106bc565b60405161017e91906119dd565b60405180910390f35b61018f6106c2565b60405161019c91906119dd565b60405180910390f35b6101ad610765565b005b6101c960048036038101906101c491906119f8565b610927565b6040516101d691906119dd565b60405180910390f35b6101e761093f565b005b6101f1610953565b6040516101fe91906119dd565b60405180910390f35b61020f610959565b60405161021c91906119dd565b60405180910390f35b61022d61095f565b60405161023a9190611a34565b60405180910390f35b61025d6004803603810190610258919061199d565b610989565b005b610267610ae1565b6040516102749190611aae565b60405180910390f35b610285610b07565b6040516102929190611aae565b60405180910390f35b6102b560048036038101906102b09190611ac9565b610b2d565b005b6102d160048036038101906102cc9190611b1c565b61144e565b005b6102ed60048036038101906102e891906119f8565b611620565b005b600080606560009054906101000a900473ffffffffffffffffffffffffffffffffffffffff1673ffffffffffffffffffffffffffffffffffffffff166370a08231306040518263ffffffff1660e01b815260040161034d9190611a34565b602060405180830381865afa15801561036a573d6000803e3d6000fd5b505050506040513d601f19601f8201168201806040525081019061038e9190611b98565b606660009054906101000a900473ffffffffffffffffffffffffffffffffffffffff1673ffffffffffffffffffffffffffffffffffffffff166370a08231306040518263ffffffff1660e01b81526004016103e99190611a34565b602060405180830381865afa158015610406573d6000803e3d6000fd5b505050506040513d601f19601f8201168201806040525081019061042a9190611b98565b915091509091565b606560009054906101000a900473ffffffffffffffffffffffffffffffffffffffff1673ffffffffffffffffffffffffffffffffffffffff168273ffffffffffffffffffffffffffffffffffffffff16146104c2576040517f08c379a00000000000000000000000000000000000000000000000000000000081526004016104b990611c22565b60405180910390fd5b6000606660009054906101000a900473ffffffffffffffffffffffffffffffffffffffff1673ffffffffffffffffffffffffffffffffffffffff166370a08231306040518263ffffffff1660e01b815260040161051f9190611a34565b602060405180830381865afa15801561053c573d6000803e3d6000fd5b505050506040513d601f19601f820116820180604052508101906105609190611b98565b116105a0576040517f08c379a000000000000000000000000000000000000000000000000000000000815260040161059790611c22565b60405180910390fd5b606560009054906101000a900473ffffffffffffffffffffffffffffffffffffffff1673ffffffffffffffffffffffffffffffffffffffff166323b872dd3330846040518463ffffffff1660e01b81526004016105ff93929190611c42565b6020604051808303816000875af115801561061e573d6000803e3d6000fd5b505050506040513d601f19601f820116820180604052508101906106429190611cb1565b5080606a60008282546106559190611d0d565b9250508190555080606960003373ffffffffffffffffffffffffffffffffffffffff1673ffffffffffffffffffffffffffffffffffffffff16815260200190815260200160002060008282546106ab9190611d0d565b925050819055505050565b606b5481565b60675481565b6000606660009054906101000a900473ffffffffffffffffffffffffffffffffffffffff1673ffffffffffffffffffffffffffffffffffffffff166370a08231306040518263ffffffff1660e01b815260040161071f9190611a34565b602060405180830381865afa15801561073c573d6000803e3d6000fd5b505050506040513d601f19601f820116820180604052508101906107609190611b98565b905090565b6000606960003373ffffffffffffffffffffffffffffffffffffffff1673ffffffffffffffffffffffffffffffffffffffff168152602001908152602001600020549050600081116107ec576040517f08c379a00000000000000000000000000000000000000000000000000000000081526004016107e390611d8d565b60405180910390fd5b6000620186a0606754606a546108029190611dad565b61080c9190611e1e565b90506000606a54838361081f9190611dad565b6108299190611e1e565b9050600081846108399190611d0d565b90506000606960003373ffffffffffffffffffffffffffffffffffffffff1673ffffffffffffffffffffffffffffffffffffffff16815260200190815260200160002081905550606560009054906101000a900473ffffffffffffffffffffffffffffffffffffffff1673ffffffffffffffffffffffffffffffffffffffff1663a9059cbb33836040518363ffffffff1660e01b81526004016108dd929190611e4f565b6020604051808303816000875af11580156108fc573d6000803e3d6000fd5b505050506040513d601f19601f820116820180604052508101906109209190611cb1565b5050505050565b60696020528060005260406000206000915090505481565b6109476116a3565b6109516000611721565b565b60685481565b606a5481565b6000603360009054906101000a900473ffffffffffffffffffffffffffffffffffffffff16905090565b6109916116a3565b606660009054906101000a900473ffffffffffffffffffffffffffffffffffffffff1673ffffffffffffffffffffffffffffffffffffffff168273ffffffffffffffffffffffffffffffffffffffff1614610a21576040517f08c379a0000000000000000000000000000000000000000000000000000000008152600401610a1890611c22565b60405180910390fd5b606660009054906101000a900473ffffffffffffffffffffffffffffffffffffffff1673ffffffffffffffffffffffffffffffffffffffff166323b872dd3330846040518463ffffffff1660e01b8152600401610a8093929190611c42565b6020604051808303816000875af1158015610a9f573d6000803e3d6000fd5b505050506040513d601f19601f82011682018060405250810190610ac39190611cb1565b5080606b6000828254610ad69190611d0d565b925050819055505050565b606560009054906101000a900473ffffffffffffffffffffffffffffffffffffffff1681565b606660009054906101000a900473ffffffffffffffffffffffffffffffffffffffff1681565b606560009054906101000a900473ffffffffffffffffffffffffffffffffffffffff1673ffffffffffffffffffffffffffffffffffffffff168373ffffffffffffffffffffffffffffffffffffffff161480610bd65750606660009054906101000a900473ffffffffffffffffffffffffffffffffffffffff1673ffffffffffffffffffffffffffffffffffffffff168373ffffffffffffffffffffffffffffffffffffffff16145b610c15576040517f08c379a0000000000000000000000000000000000000000000000000000000008152600401610c0c90611c22565b60405180910390fd5b606560009054906101000a900473ffffffffffffffffffffffffffffffffffffffff1673ffffffffffffffffffffffffffffffffffffffff168273ffffffffffffffffffffffffffffffffffffffff161480610cbe5750606660009054906101000a900473ffffffffffffffffffffffffffffffffffffffff1673ffffffffffffffffffffffffffffffffffffffff168273ffffffffffffffffffffffffffffffffffffffff16145b610cfd576040517f08c379a0000000000000000000000000000000000000000000000000000000008152600401610cf490611c22565b60405180910390fd5b600080606560009054906101000a900473ffffffffffffffffffffffffffffffffffffffff1673ffffffffffffffffffffffffffffffffffffffff168573ffffffffffffffffffffffffffffffffffffffff1603610d7b57829150620186a060685484610d6a9190611dad565b610d749190611e1e565b9050610d9d565b606854620186a084610d8d9190611dad565b610d979190611e1e565b91508290505b6000606560009054906101000a900473ffffffffffffffffffffffffffffffffffffffff1673ffffffffffffffffffffffffffffffffffffffff166370a08231306040518263ffffffff1660e01b8152600401610dfa9190611a34565b602060405180830381865afa158015610e17573d6000803e3d6000fd5b505050506040513d601f19601f82011682018060405250810190610e3b9190611b98565b90506000606660009054906101000a900473ffffffffffffffffffffffffffffffffffffffff1673ffffffffffffffffffffffffffffffffffffffff166370a08231306040518263ffffffff1660e01b8152600401610e9a9190611a34565b602060405180830381865afa158015610eb7573d6000803e3d6000fd5b505050506040513d601f19601f82011682018060405250810190610edb9190611b98565b9050818411158015610eed5750808311155b610f2c576040517f08c379a0000000000000000000000000000000000000000000000000000000008152600401610f2390611ec4565b60405180910390fd5b606560009054906101000a900473ffffffffffffffffffffffffffffffffffffffff1673ffffffffffffffffffffffffffffffffffffffff168773ffffffffffffffffffffffffffffffffffffffff16036111e5576000620186a060675486610f959190611dad565b610f9f9190611e1e565b9050606560009054906101000a900473ffffffffffffffffffffffffffffffffffffffff1673ffffffffffffffffffffffffffffffffffffffff166323b872dd3330846040518463ffffffff1660e01b815260040161100093929190611c42565b6020604051808303816000875af115801561101f573d6000803e3d6000fd5b505050506040513d601f19601f820116820180604052508101906110439190611cb1565b5080856110509190611ee4565b9450606560009054906101000a900473ffffffffffffffffffffffffffffffffffffffff1673ffffffffffffffffffffffffffffffffffffffff1663a9059cbb30876040518363ffffffff1660e01b81526004016110af929190611e4f565b6020604051808303816000875af11580156110ce573d6000803e3d6000fd5b505050506040513d601f19601f820116820180604052508101906110f29190611cb1565b50606660009054906101000a900473ffffffffffffffffffffffffffffffffffffffff1673ffffffffffffffffffffffffffffffffffffffff1663a9059cbb33866040518363ffffffff1660e01b8152600401611150929190611e4f565b6020604051808303816000875af115801561116f573d6000803e3d6000fd5b505050506040513d601f19601f820116820180604052508101906111939190611cb1565b5084606a60008282546111a69190611d0d565b9250508190555083606b60008282546111bf9190611ee4565b9250508190555080606a60008282546111d89190611d0d565b9250508190555050611445565b6000620186a0606754866111f99190611dad565b6112039190611e1e565b9050606560009054906101000a900473ffffffffffffffffffffffffffffffffffffffff1673ffffffffffffffffffffffffffffffffffffffff166323b872dd3330846040518463ffffffff1660e01b815260040161126493929190611c42565b6020604051808303816000875af1158015611283573d6000803e3d6000fd5b505050506040513d601f19601f820116820180604052508101906112a79190611cb1565b5080856112b49190611ee4565b9450606560009054906101000a900473ffffffffffffffffffffffffffffffffffffffff1673ffffffffffffffffffffffffffffffffffffffff1663a9059cbb33876040518363ffffffff1660e01b8152600401611313929190611e4f565b6020604051808303816000875af1158015611332573d6000803e3d6000fd5b505050506040513d601f19601f820116820180604052508101906113569190611cb1565b50606660009054906101000a900473ffffffffffffffffffffffffffffffffffffffff1673ffffffffffffffffffffffffffffffffffffffff1663a9059cbb30866040518363ffffffff1660e01b81526004016113b4929190611e4f565b6020604051808303816000875af11580156113d3573d6000803e3d6000fd5b505050506040513d601f19601f820116820180604052508101906113f79190611cb1565b5084606a600082825461140a9190611ee4565b9250508190555083606b60008282546114239190611d0d565b9250508190555080606a600082825461143c9190611d0d565b92505081905550505b50505050505050565b60008060019054906101000a900460ff1615905080801561147f5750600160008054906101000a900460ff1660ff16105b806114ac575061148e306117e7565b1580156114ab5750600160008054906101000a900460ff1660ff16145b5b6114eb576040517f08c379a00000000000000000000000000000000000000000000000000000000081526004016114e290611f8a565b60405180910390fd5b60016000806101000a81548160ff021916908360ff1602179055508015611528576001600060016101000a81548160ff0219169083151502179055505b84606560006101000a81548173ffffffffffffffffffffffffffffffffffffffff021916908373ffffffffffffffffffffffffffffffffffffffff16021790555083606660006101000a81548173ffffffffffffffffffffffffffffffffffffffff021916908373ffffffffffffffffffffffffffffffffffffffff16021790555082606781905550816068819055506115c061180a565b80156116195760008060016101000a81548160ff0219169083151502179055507f7f26b83ff96e1f2b6a682f133852f6798a09c465da95921460cefb384740249860016040516116109190611ff2565b60405180910390a15b5050505050565b6116286116a3565b600073ffffffffffffffffffffffffffffffffffffffff168173ffffffffffffffffffffffffffffffffffffffff1603611697576040517f08c379a000000000000000000000000000000000000000000000000000000000815260040161168e9061207f565b60405180910390fd5b6116a081611721565b50565b6116ab611863565b73ffffffffffffffffffffffffffffffffffffffff166116c961095f565b73ffffffffffffffffffffffffffffffffffffffff161461171f576040517f08c379a0000000000000000000000000000000000000000000000000000000008152600401611716906120eb565b60405180910390fd5b565b6000603360009054906101000a900473ffffffffffffffffffffffffffffffffffffffff16905081603360006101000a81548173ffffffffffffffffffffffffffffffffffffffff021916908373ffffffffffffffffffffffffffffffffffffffff1602179055508173ffffffffffffffffffffffffffffffffffffffff168173ffffffffffffffffffffffffffffffffffffffff167f8be0079c531659141344cd1fd0a4f28419497f9722a3daafe3b4186f6b6457e060405160405180910390a35050565b6000808273ffffffffffffffffffffffffffffffffffffffff163b119050919050565b600060019054906101000a900460ff16611859576040517f08c379a00000000000000000000000000000000000000000000000000000000081526004016118509061217d565b60405180910390fd5b61186161186b565b565b600033905090565b600060019054906101000a900460ff166118ba576040517f08c379a00000000000000000000000000000000000000000000000000000000081526004016118b19061217d565b60405180910390fd5b6118ca6118c5611863565b611721565b565b6000819050919050565b6118df816118cc565b82525050565b60006040820190506118fa60008301856118d6565b61190760208301846118d6565b9392505050565b600080fd5b600073ffffffffffffffffffffffffffffffffffffffff82169050919050565b600061193e82611913565b9050919050565b61194e81611933565b811461195957600080fd5b50565b60008135905061196b81611945565b92915050565b61197a816118cc565b811461198557600080fd5b50565b60008135905061199781611971565b92915050565b600080604083850312156119b4576119b361190e565b5b60006119c28582860161195c565b92505060206119d385828601611988565b9150509250929050565b60006020820190506119f260008301846118d6565b92915050565b600060208284031215611a0e57611a0d61190e565b5b6000611a1c8482850161195c565b91505092915050565b611a2e81611933565b82525050565b6000602082019050611a496000830184611a25565b92915050565b6000819050919050565b6000611a74611a6f611a6a84611913565b611a4f565b611913565b9050919050565b6000611a8682611a59565b9050919050565b6000611a9882611a7b565b9050919050565b611aa881611a8d565b82525050565b6000602082019050611ac36000830184611a9f565b92915050565b600080600060608486031215611ae257611ae161190e565b5b6000611af08682870161195c565b9350506020611b018682870161195c565b9250506040611b1286828701611988565b9150509250925092565b60008060008060808587031215611b3657611b3561190e565b5b6000611b448782880161195c565b9450506020611b558782880161195c565b9350506040611b6687828801611988565b9250506060611b7787828801611988565b91505092959194509250565b600081519050611b9281611971565b92915050565b600060208284031215611bae57611bad61190e565b5b6000611bbc84828501611b83565b91505092915050565b600082825260208201905092915050565b7f496e76616c696420746f6b656e00000000000000000000000000000000000000600082015250565b6000611c0c600d83611bc5565b9150611c1782611bd6565b602082019050919050565b60006020820190508181036000830152611c3b81611bff565b9050919050565b6000606082019050611c576000830186611a25565b611c646020830185611a25565b611c7160408301846118d6565b949350505050565b60008115159050919050565b611c8e81611c79565b8114611c9957600080fd5b50565b600081519050611cab81611c85565b92915050565b600060208284031215611cc757611cc661190e565b5b6000611cd584828501611c9c565b91505092915050565b7f4e487b7100000000000000000000000000000000000000000000000000000000600052601160045260246000fd5b6000611d18826118cc565b9150611d23836118cc565b9250828201905080821115611d3b57611d3a611cde565b5b92915050565b7f4e6f2062616c616e636520746f20776974686472617700000000000000000000600082015250565b6000611d77601683611bc5565b9150611d8282611d41565b602082019050919050565b60006020820190508181036000830152611da681611d6a565b9050919050565b6000611db8826118cc565b9150611dc3836118cc565b9250828202611dd1816118cc565b91508282048414831517611de857611de7611cde565b5b5092915050565b7f4e487b7100000000000000000000000000000000000000000000000000000000600052601260045260246000fd5b6000611e29826118cc565b9150611e34836118cc565b925082611e4457611e43611def565b5b828204905092915050565b6000604082019050611e646000830185611a25565b611e7160208301846118d6565b9392505050565b7f496e73756666696369656e742062616c616e6365000000000000000000000000600082015250565b6000611eae601483611bc5565b9150611eb982611e78565b602082019050919050565b60006020820190508181036000830152611edd81611ea1565b9050919050565b6000611eef826118cc565b9150611efa836118cc565b9250828203905081811115611f1257611f11611cde565b5b92915050565b7f496e697469616c697a61626c653a20636f6e747261637420697320616c72656160008201527f647920696e697469616c697a6564000000000000000000000000000000000000602082015250565b6000611f74602e83611bc5565b9150611f7f82611f18565b604082019050919050565b60006020820190508181036000830152611fa381611f67565b9050919050565b6000819050919050565b600060ff82169050919050565b6000611fdc611fd7611fd284611faa565b611a4f565b611fb4565b9050919050565b611fec81611fc1565b82525050565b60006020820190506120076000830184611fe3565b92915050565b7f4f776e61626c653a206e6577206f776e657220697320746865207a65726f206160008201527f6464726573730000000000000000000000000000000000000000000000000000602082015250565b6000612069602683611bc5565b91506120748261200d565b604082019050919050565b600060208201905081810360008301526120988161205c565b9050919050565b7f4f776e61626c653a2063616c6c6572206973206e6f7420746865206f776e6572600082015250565b60006120d5602083611bc5565b91506120e08261209f565b602082019050919050565b60006020820190508181036000830152612104816120c8565b9050919050565b7f496e697469616c697a61626c653a20636f6e7472616374206973206e6f74206960008201527f6e697469616c697a696e67000000000000000000000000000000000000000000602082015250565b6000612167602b83611bc5565b91506121728261210b565b604082019050919050565b600060208201905081810360008301526121968161215a565b905091905056fea2646970667358221220c74c89375318aab354349c4f719e28809f0b008df63cc8160685dff48c9ecef964736f6c63430008120033",
  "linkReferences": {},
  "deployedLinkReferences": {}
}