{
  "_format": "hh-sol-artifact-1",
  "contractName": "FactoryToken",
  "sourceName": "contracts/FactoryToken.sol",
  "abi": [
    {
      "inputs": [
        {
          "internalType": "address",
          "name": "_campaignTypesTokenERC20Template",
          "type": "address"
        },
        {
          "internalType": "address",
          "name": "_nft",
          "type": "address"
        }
      ],
      "stateMutability": "nonpayable",
      "type": "constructor"
    },
    {
      "anonymous": false,
      "inputs": [
        {
          "indexed": false,
          "internalType": "address",
          "name": "owner",
          "type": "address"
        },
        {
          "indexed": false,
          "internalType": "address",
          "name": "campaignAddress",
          "type": "address"
        },
        {
          "indexed": true,
          "internalType": "uint256",
          "name": "NFTID",
          "type": "uint256"
        }
      ],
      "name": "CampaignCreated",
      "type": "event"
    },
    {
      "anonymous": false,
      "inputs": [
        {
          "indexed": true,
          "internalType": "address",
          "name": "previousOwner",
          "type": "address"
        },
        {
          "indexed": true,
          "internalType": "address",
          "name": "newOwner",
          "type": "address"
        }
      ],
      "name": "OwnershipTransferred",
      "type": "event"
    },
    {
      "inputs": [
        {
          "internalType": "uint256",
          "name": "",
          "type": "uint256"
        }
      ],
      "name": "NFTsUsed",
      "outputs": [
        {
          "internalType": "bool",
          "name": "",
          "type": "bool"
        }
      ],
      "stateMutability": "view",
      "type": "function"
    },
    {
      "inputs": [
        {
          "internalType": "address",
          "name": "_address",
          "type": "address"
        }
      ],
      "name": "addSlotMintNFT",
      "outputs": [],
      "stateMutability": "nonpayable",
      "type": "function"
    },
    {
      "inputs": [],
      "name": "campaignTypesTokenERC20Template",
      "outputs": [
        {
          "internalType": "address",
          "name": "",
          "type": "address"
        }
      ],
      "stateMutability": "view",
      "type": "function"
    },
    {
      "inputs": [
        {
          "internalType": "address",
          "name": "",
          "type": "address"
        }
      ],
      "name": "campaigns",
      "outputs": [
        {
          "internalType": "uint256",
          "name": "",
          "type": "uint256"
        }
      ],
      "stateMutability": "view",
      "type": "function"
    },
    {
      "inputs": [
        {
          "internalType": "uint256",
          "name": "",
          "type": "uint256"
        }
      ],
      "name": "campaignsByID",
      "outputs": [
        {
          "internalType": "address",
          "name": "owner",
          "type": "address"
        },
        {
          "internalType": "address",
          "name": "campaignAddress",
          "type": "address"
        },
        {
          "internalType": "uint256",
          "name": "NFTID",
          "type": "uint256"
        }
      ],
      "stateMutability": "view",
      "type": "function"
    },
    {
      "inputs": [
        {
          "internalType": "address",
          "name": "",
          "type": "address"
        },
        {
          "internalType": "uint256",
          "name": "",
          "type": "uint256"
        }
      ],
      "name": "campaignsByOwner",
      "outputs": [
        {
          "internalType": "address",
          "name": "",
          "type": "address"
        }
      ],
      "stateMutability": "view",
      "type": "function"
    },
    {
      "inputs": [
        {
          "internalType": "string",
          "name": "_name",
          "type": "string"
        },
        {
          "internalType": "string",
          "name": "_symbol",
          "type": "string"
        },
        {
          "internalType": "uint256",
          "name": "_NFTID",
          "type": "uint256"
        }
      ],
      "name": "createNewCampaign",
      "outputs": [],
      "stateMutability": "nonpayable",
      "type": "function"
    },
    {
      "inputs": [
        {
          "internalType": "address",
          "name": "_owner",
          "type": "address"
        }
      ],
      "name": "getAllCampaignsByOwner",
      "outputs": [
        {
          "internalType": "address[]",
          "name": "",
          "type": "address[]"
        }
      ],
      "stateMutability": "view",
      "type": "function"
    },
    {
      "inputs": [
        {
          "internalType": "address",
          "name": "_users",
          "type": "address"
        }
      ],
      "name": "getNFTReadyCreate",
      "outputs": [
        {
          "internalType": "uint256[]",
          "name": "",
          "type": "uint256[]"
        }
      ],
      "stateMutability": "view",
      "type": "function"
    },
    {
      "inputs": [
        {
          "internalType": "string",
          "name": "_tokenURI",
          "type": "string"
        }
      ],
      "name": "mintNFT",
      "outputs": [],
      "stateMutability": "nonpayable",
      "type": "function"
    },
    {
      "inputs": [],
      "name": "owner",
      "outputs": [
        {
          "internalType": "address",
          "name": "",
          "type": "address"
        }
      ],
      "stateMutability": "view",
      "type": "function"
    },
    {
      "inputs": [],
      "name": "renounceOwnership",
      "outputs": [],
      "stateMutability": "nonpayable",
      "type": "function"
    },
    {
      "inputs": [
        {
          "internalType": "address",
          "name": "",
          "type": "address"
        }
      ],
      "name": "slotMintNFT",
      "outputs": [
        {
          "internalType": "uint256",
          "name": "",
          "type": "uint256"
        }
      ],
      "stateMutability": "view",
      "type": "function"
    },
    {
      "inputs": [
        {
          "internalType": "address",
          "name": "newOwner",
          "type": "address"
        }
      ],
      "name": "transferOwnership",
      "outputs": [],
      "stateMutability": "nonpayable",
      "type": "function"
    }
  ],
  "bytecode": "0x60806040523480156200001157600080fd5b506040516200209038038062002090833981810160405281019062000037919062000217565b620000576200004b620000e160201b60201c565b620000e960201b60201c565b81600160006101000a81548173ffffffffffffffffffffffffffffffffffffffff021916908373ffffffffffffffffffffffffffffffffffffffff16021790555080600260006101000a81548173ffffffffffffffffffffffffffffffffffffffff021916908373ffffffffffffffffffffffffffffffffffffffff16021790555050506200025e565b600033905090565b60008060009054906101000a900473ffffffffffffffffffffffffffffffffffffffff169050816000806101000a81548173ffffffffffffffffffffffffffffffffffffffff021916908373ffffffffffffffffffffffffffffffffffffffff1602179055508173ffffffffffffffffffffffffffffffffffffffff168173ffffffffffffffffffffffffffffffffffffffff167f8be0079c531659141344cd1fd0a4f28419497f9722a3daafe3b4186f6b6457e060405160405180910390a35050565b600080fd5b600073ffffffffffffffffffffffffffffffffffffffff82169050919050565b6000620001df82620001b2565b9050919050565b620001f181620001d2565b8114620001fd57600080fd5b50565b6000815190506200021181620001e6565b92915050565b60008060408385031215620002315762000230620001ad565b5b6000620002418582860162000200565b9250506020620002548582860162000200565b9150509250929050565b611e22806200026e6000396000f3fe608060405234801561001057600080fd5b50600436106100ea5760003560e01c8063a2c150eb1161008c578063d60a7e3511610066578063d60a7e3514610271578063de2438f4146102a1578063f2fde38b146102bf578063fb37e883146102db576100ea565b8063a2c150eb146101f3578063b47dca4e14610223578063d24d72d81461023f576100ea565b806326ee3fad116100c857806326ee3fad1461016b578063715018a61461019b578063884a0efe146101a55780638da5cb5b146101d5576100ea565b80631601d0b5146100ef578063198dccbb1461011f5780631c0704da1461014f575b600080fd5b6101096004803603810190610104919061118f565b6102f7565b60405161011691906111d5565b60405180910390f35b6101396004803603810190610134919061121c565b61030f565b604051610146919061126b565b60405180910390f35b610169600480360381019061016491906113cc565b61035d565b005b6101856004803603810190610180919061118f565b6108ae565b6040516101929190611515565b60405180910390f35b6101a361097b565b005b6101bf60048036038101906101ba919061118f565b61098f565b6040516101cc91906115f5565b60405180910390f35b6101dd610b3f565b6040516101ea919061126b565b60405180910390f35b61020d60048036038101906102089190611617565b610b68565b60405161021a919061165f565b60405180910390f35b61023d6004803603810190610238919061118f565b610b88565b005b61025960048036038101906102549190611617565b610bea565b6040516102689392919061167a565b60405180910390f35b61028b6004803603810190610286919061118f565b610c54565b60405161029891906111d5565b60405180910390f35b6102a9610c6c565b6040516102b6919061126b565b60405180910390f35b6102d960048036038101906102d4919061118f565b610c92565b005b6102f560048036038101906102f091906116b1565b610d15565b005b60036020528060005260406000206000915090505481565b6004602052816000526040600020818154811061032b57600080fd5b906000526020600020016000915091509054906101000a900473ffffffffffffffffffffffffffffffffffffffff1681565b6000600360003373ffffffffffffffffffffffffffffffffffffffff1673ffffffffffffffffffffffffffffffffffffffff16815260200190815260200160002054116103df576040517f08c379a00000000000000000000000000000000000000000000000000000000081526004016103d690611757565b60405180910390fd5b3373ffffffffffffffffffffffffffffffffffffffff16600260009054906101000a900473ffffffffffffffffffffffffffffffffffffffff1673ffffffffffffffffffffffffffffffffffffffff16636352211e836040518263ffffffff1660e01b815260040161045191906111d5565b602060405180830381865afa15801561046e573d6000803e3d6000fd5b505050506040513d601f19601f82011682018060405250810190610492919061178c565b73ffffffffffffffffffffffffffffffffffffffff16146104e8576040517f08c379a00000000000000000000000000000000000000000000000000000000081526004016104df9061182b565b60405180910390fd5b600015156007600083815260200190815260200160002060009054906101000a900460ff1615151461054f576040517f08c379a000000000000000000000000000000000000000000000000000000000815260040161054690611897565b60405180910390fd5b600061057c600160009054906101000a900473ffffffffffffffffffffffffffffffffffffffff16610f19565b90508073ffffffffffffffffffffffffffffffffffffffff16634cd88b7685856040518363ffffffff1660e01b81526004016105b9929190611925565b600060405180830381600087803b1580156105d357600080fd5b505af11580156105e7573d6000803e3d6000fd5b505050508073ffffffffffffffffffffffffffffffffffffffff1663f2fde38b336040518263ffffffff1660e01b8152600401610624919061126b565b600060405180830381600087803b15801561063e57600080fd5b505af1158015610652573d6000803e3d6000fd5b50505050600460003373ffffffffffffffffffffffffffffffffffffffff1673ffffffffffffffffffffffffffffffffffffffff168152602001908152602001600020819080600181540180825580915050600190039060005260206000200160009091909190916101000a81548173ffffffffffffffffffffffffffffffffffffffff021916908373ffffffffffffffffffffffffffffffffffffffff1602179055506001600360003373ffffffffffffffffffffffffffffffffffffffff1673ffffffffffffffffffffffffffffffffffffffff1681526020019081526020016000206000828254610746919061198b565b9250508190555060016007600084815260200190815260200160002060006101000a81548160ff02191690831515021790555060405180606001604052803373ffffffffffffffffffffffffffffffffffffffff1681526020018273ffffffffffffffffffffffffffffffffffffffff168152602001838152506005600084815260200190815260200160002060008201518160000160006101000a81548173ffffffffffffffffffffffffffffffffffffffff021916908373ffffffffffffffffffffffffffffffffffffffff16021790555060208201518160010160006101000a81548173ffffffffffffffffffffffffffffffffffffffff021916908373ffffffffffffffffffffffffffffffffffffffff16021790555060408201518160020155905050817fc5099b671a0e7e75b6a5d731232dc609f91567fd0a1fb5921f49ee14d60a13b933836040516108a09291906119bf565b60405180910390a250505050565b6060600460008373ffffffffffffffffffffffffffffffffffffffff1673ffffffffffffffffffffffffffffffffffffffff16815260200190815260200160002080548060200260200160405190810160405280929190818152602001828054801561096f57602002820191906000526020600020905b8160009054906101000a900473ffffffffffffffffffffffffffffffffffffffff1673ffffffffffffffffffffffffffffffffffffffff1681526020019060010190808311610925575b50505050509050919050565b610983610fd3565b61098d6000611051565b565b60606000600260009054906101000a900473ffffffffffffffffffffffffffffffffffffffff1673ffffffffffffffffffffffffffffffffffffffff16631b8df0ee846040518263ffffffff1660e01b81526004016109ee919061126b565b600060405180830381865afa158015610a0b573d6000803e3d6000fd5b505050506040513d6000823e3d601f19601f82011682018060405250810190610a349190611ac5565b90506000815167ffffffffffffffff811115610a5357610a526112a1565b5b604051908082528060200260200182016040528015610a815781602001602082028036833780820191505090505b5090506000805b8351811015610b33576000151560076000868481518110610aac57610aab611b0e565b5b6020026020010151815260200190815260200160002060009054906101000a900460ff16151503610b2057838181518110610aea57610ae9611b0e565b5b6020026020010151838381518110610b0557610b04611b0e565b5b6020026020010181815250508180610b1c90611b3d565b9250505b8080610b2b90611b3d565b915050610a88565b50819350505050919050565b60008060009054906101000a900473ffffffffffffffffffffffffffffffffffffffff16905090565b60076020528060005260406000206000915054906101000a900460ff1681565b610b90610fd3565b6001600660008373ffffffffffffffffffffffffffffffffffffffff1673ffffffffffffffffffffffffffffffffffffffff1681526020019081526020016000206000828254610be09190611b85565b9250508190555050565b60056020528060005260406000206000915090508060000160009054906101000a900473ffffffffffffffffffffffffffffffffffffffff16908060010160009054906101000a900473ffffffffffffffffffffffffffffffffffffffff16908060020154905083565b60066020528060005260406000206000915090505481565b600160009054906101000a900473ffffffffffffffffffffffffffffffffffffffff1681565b610c9a610fd3565b600073ffffffffffffffffffffffffffffffffffffffff168173ffffffffffffffffffffffffffffffffffffffff1603610d09576040517f08c379a0000000000000000000000000000000000000000000000000000000008152600401610d0090611c2b565b60405180910390fd5b610d1281611051565b50565b6000600660003373ffffffffffffffffffffffffffffffffffffffff1673ffffffffffffffffffffffffffffffffffffffff1681526020019081526020016000205411610d97576040517f08c379a0000000000000000000000000000000000000000000000000000000008152600401610d8e90611c97565b60405180910390fd5b6000600260009054906101000a900473ffffffffffffffffffffffffffffffffffffffff1673ffffffffffffffffffffffffffffffffffffffff1663eacabe1433846040518363ffffffff1660e01b8152600401610df6929190611cb7565b6020604051808303816000875af1158015610e15573d6000803e3d6000fd5b505050506040513d601f19601f82011682018060405250810190610e399190611ce7565b90506001600360003373ffffffffffffffffffffffffffffffffffffffff1673ffffffffffffffffffffffffffffffffffffffff1681526020019081526020016000206000828254610e8b9190611b85565b925050819055506001600660003373ffffffffffffffffffffffffffffffffffffffff1673ffffffffffffffffffffffffffffffffffffffff1681526020019081526020016000206000828254610ee2919061198b565b9250508190555060006007600083815260200190815260200160002060006101000a81548160ff0219169083151502179055505050565b6000763d602d80600a3d3981f3363d3d373d3d3d363d730000008260601b60e81c176000526e5af43d82803e903d91602b57fd5bf38260781b17602052603760096000f09050600073ffffffffffffffffffffffffffffffffffffffff168173ffffffffffffffffffffffffffffffffffffffff1603610fce576040517f08c379a0000000000000000000000000000000000000000000000000000000008152600401610fc590611d60565b60405180910390fd5b919050565b610fdb611115565b73ffffffffffffffffffffffffffffffffffffffff16610ff9610b3f565b73ffffffffffffffffffffffffffffffffffffffff161461104f576040517f08c379a000000000000000000000000000000000000000000000000000000000815260040161104690611dcc565b60405180910390fd5b565b60008060009054906101000a900473ffffffffffffffffffffffffffffffffffffffff169050816000806101000a81548173ffffffffffffffffffffffffffffffffffffffff021916908373ffffffffffffffffffffffffffffffffffffffff1602179055508173ffffffffffffffffffffffffffffffffffffffff168173ffffffffffffffffffffffffffffffffffffffff167f8be0079c531659141344cd1fd0a4f28419497f9722a3daafe3b4186f6b6457e060405160405180910390a35050565b600033905090565b6000604051905090565b600080fd5b600080fd5b600073ffffffffffffffffffffffffffffffffffffffff82169050919050565b600061115c82611131565b9050919050565b61116c81611151565b811461117757600080fd5b50565b60008135905061118981611163565b92915050565b6000602082840312156111a5576111a4611127565b5b60006111b38482850161117a565b91505092915050565b6000819050919050565b6111cf816111bc565b82525050565b60006020820190506111ea60008301846111c6565b92915050565b6111f9816111bc565b811461120457600080fd5b50565b600081359050611216816111f0565b92915050565b6000806040838503121561123357611232611127565b5b60006112418582860161117a565b925050602061125285828601611207565b9150509250929050565b61126581611151565b82525050565b6000602082019050611280600083018461125c565b92915050565b600080fd5b600080fd5b6000601f19601f8301169050919050565b7f4e487b7100000000000000000000000000000000000000000000000000000000600052604160045260246000fd5b6112d982611290565b810181811067ffffffffffffffff821117156112f8576112f76112a1565b5b80604052505050565b600061130b61111d565b905061131782826112d0565b919050565b600067ffffffffffffffff821115611337576113366112a1565b5b61134082611290565b9050602081019050919050565b82818337600083830152505050565b600061136f61136a8461131c565b611301565b90508281526020810184848401111561138b5761138a61128b565b5b61139684828561134d565b509392505050565b600082601f8301126113b3576113b2611286565b5b81356113c384826020860161135c565b91505092915050565b6000806000606084860312156113e5576113e4611127565b5b600084013567ffffffffffffffff8111156114035761140261112c565b5b61140f8682870161139e565b935050602084013567ffffffffffffffff8111156114305761142f61112c565b5b61143c8682870161139e565b925050604061144d86828701611207565b9150509250925092565b600081519050919050565b600082825260208201905092915050565b6000819050602082019050919050565b61148c81611151565b82525050565b600061149e8383611483565b60208301905092915050565b6000602082019050919050565b60006114c282611457565b6114cc8185611462565b93506114d783611473565b8060005b838110156115085781516114ef8882611492565b97506114fa836114aa565b9250506001810190506114db565b5085935050505092915050565b6000602082019050818103600083015261152f81846114b7565b905092915050565b600081519050919050565b600082825260208201905092915050565b6000819050602082019050919050565b61156c816111bc565b82525050565b600061157e8383611563565b60208301905092915050565b6000602082019050919050565b60006115a282611537565b6115ac8185611542565b93506115b783611553565b8060005b838110156115e85781516115cf8882611572565b97506115da8361158a565b9250506001810190506115bb565b5085935050505092915050565b6000602082019050818103600083015261160f8184611597565b905092915050565b60006020828403121561162d5761162c611127565b5b600061163b84828501611207565b91505092915050565b60008115159050919050565b61165981611644565b82525050565b60006020820190506116746000830184611650565b92915050565b600060608201905061168f600083018661125c565b61169c602083018561125c565b6116a960408301846111c6565b949350505050565b6000602082840312156116c7576116c6611127565b5b600082013567ffffffffffffffff8111156116e5576116e461112c565b5b6116f18482850161139e565b91505092915050565b600082825260208201905092915050565b7f596f7520646f6e2774206861766520616e79204e465400000000000000000000600082015250565b60006117416016836116fa565b915061174c8261170b565b602082019050919050565b6000602082019050818103600083015261177081611734565b9050919050565b60008151905061178681611163565b92915050565b6000602082840312156117a2576117a1611127565b5b60006117b084828501611777565b91505092915050565b7f596f7520617265206e6f7420746865206f776e6572206f662074686973204e4660008201527f5400000000000000000000000000000000000000000000000000000000000000602082015250565b60006118156021836116fa565b9150611820826117b9565b604082019050919050565b6000602082019050818103600083015261184481611808565b9050919050565b7f54686973204e465420697320616c726561647920757365640000000000000000600082015250565b60006118816018836116fa565b915061188c8261184b565b602082019050919050565b600060208201905081810360008301526118b081611874565b9050919050565b600081519050919050565b60005b838110156118e05780820151818401526020810190506118c5565b60008484015250505050565b60006118f7826118b7565b61190181856116fa565b93506119118185602086016118c2565b61191a81611290565b840191505092915050565b6000604082019050818103600083015261193f81856118ec565b9050818103602083015261195381846118ec565b90509392505050565b7f4e487b7100000000000000000000000000000000000000000000000000000000600052601160045260246000fd5b6000611996826111bc565b91506119a1836111bc565b92508282039050818111156119b9576119b861195c565b5b92915050565b60006040820190506119d4600083018561125c565b6119e1602083018461125c565b9392505050565b600067ffffffffffffffff821115611a0357611a026112a1565b5b602082029050602081019050919050565b600080fd5b600081519050611a28816111f0565b92915050565b6000611a41611a3c846119e8565b611301565b90508083825260208201905060208402830185811115611a6457611a63611a14565b5b835b81811015611a8d5780611a798882611a19565b845260208401935050602081019050611a66565b5050509392505050565b600082601f830112611aac57611aab611286565b5b8151611abc848260208601611a2e565b91505092915050565b600060208284031215611adb57611ada611127565b5b600082015167ffffffffffffffff811115611af957611af861112c565b5b611b0584828501611a97565b91505092915050565b7f4e487b7100000000000000000000000000000000000000000000000000000000600052603260045260246000fd5b6000611b48826111bc565b91507fffffffffffffffffffffffffffffffffffffffffffffffffffffffffffffffff8203611b7a57611b7961195c565b5b600182019050919050565b6000611b90826111bc565b9150611b9b836111bc565b9250828201905080821115611bb357611bb261195c565b5b92915050565b7f4f776e61626c653a206e6577206f776e657220697320746865207a65726f206160008201527f6464726573730000000000000000000000000000000000000000000000000000602082015250565b6000611c156026836116fa565b9150611c2082611bb9565b604082019050919050565b60006020820190508181036000830152611c4481611c08565b9050919050565b7f596f7520646f6e2774206861766520616e7920736c6f74000000000000000000600082015250565b6000611c816017836116fa565b9150611c8c82611c4b565b602082019050919050565b60006020820190508181036000830152611cb081611c74565b9050919050565b6000604082019050611ccc600083018561125c565b8181036020830152611cde81846118ec565b90509392505050565b600060208284031215611cfd57611cfc611127565b5b6000611d0b84828501611a19565b91505092915050565b7f455243313136373a20637265617465206661696c656400000000000000000000600082015250565b6000611d4a6016836116fa565b9150611d5582611d14565b602082019050919050565b60006020820190508181036000830152611d7981611d3d565b9050919050565b7f4f776e61626c653a2063616c6c6572206973206e6f7420746865206f776e6572600082015250565b6000611db66020836116fa565b9150611dc182611d80565b602082019050919050565b60006020820190508181036000830152611de581611da9565b905091905056fea264697066735822122047b34e31c30e1f6c0ccd5bff1bf62eb6e5cb1d8b86b9ff3a17a1eaadfca21b0964736f6c63430008120033",
  "linkReferences": {},
  "deployedLinkReferences": {}
}