{
  "_format": "hh-sol-artifact-1",
  "contractName": "FactoryToken",
  "sourceName": "contracts/FactoryToken.sol",
  "abi": [
    {
      "inputs": [
        {
          "internalType": "address",
          "name": "_campaignTypesTokenERC20Template",
          "type": "address"
        }
      ],
      "stateMutability": "nonpayable",
      "type": "constructor"
    },
    {
      "inputs": [],
      "name": "campaignTypesTokenERC20Template",
      "outputs": [
        {
          "internalType": "address",
          "name": "",
          "type": "address"
        }
      ],
      "stateMutability": "view",
      "type": "function"
    },
    {
      "inputs": [],
      "name": "createNewCampaign",
      "outputs": [
        {
          "internalType": "address",
          "name": "",
          "type": "address"
        }
      ],
      "stateMutability": "nonpayable",
      "type": "function"
    }
  ],
  "bytecode": "0x608060405234801561001057600080fd5b506040516103b03803806103b0833981810160405281019061003291906100db565b806000806101000a81548173ffffffffffffffffffffffffffffffffffffffff021916908373ffffffffffffffffffffffffffffffffffffffff16021790555050610108565b600080fd5b600073ffffffffffffffffffffffffffffffffffffffff82169050919050565b60006100a88261007d565b9050919050565b6100b88161009d565b81146100c357600080fd5b50565b6000815190506100d5816100af565b92915050565b6000602082840312156100f1576100f0610078565b5b60006100ff848285016100c6565b91505092915050565b610299806101176000396000f3fe608060405234801561001057600080fd5b50600436106100365760003560e01c8063de2438f41461003b578063e1d9121a14610059575b600080fd5b610043610077565b60405161005091906101cb565b60405180910390f35b61006161009b565b60405161006e91906101cb565b60405180910390f35b60008054906101000a900473ffffffffffffffffffffffffffffffffffffffff1681565b6000806100c760008054906101000a900473ffffffffffffffffffffffffffffffffffffffff166100d0565b90508091505090565b6000763d602d80600a3d3981f3363d3d373d3d3d363d730000008260601b60e81c176000526e5af43d82803e903d91602b57fd5bf38260781b17602052603760096000f09050600073ffffffffffffffffffffffffffffffffffffffff168173ffffffffffffffffffffffffffffffffffffffff1603610185576040517f08c379a000000000000000000000000000000000000000000000000000000000815260040161017c90610243565b60405180910390fd5b919050565b600073ffffffffffffffffffffffffffffffffffffffff82169050919050565b60006101b58261018a565b9050919050565b6101c5816101aa565b82525050565b60006020820190506101e060008301846101bc565b92915050565b600082825260208201905092915050565b7f455243313136373a20637265617465206661696c656400000000000000000000600082015250565b600061022d6016836101e6565b9150610238826101f7565b602082019050919050565b6000602082019050818103600083015261025c81610220565b905091905056fea2646970667358221220652d61ec9db4bd96303bfc3d187a5cb5412cd43ff2594860aa9cd7f7502518d564736f6c63430008120033",
  "linkReferences": {},
  "deployedLinkReferences": {}
}